:100000000C941E070C9465070C9480070C946507EC
:100010000C9465070C9465070C9479240C9465077F
:100020000C9465070C9465070C9465070C946507A0
:100030000C9465070C9465070C94D0240C94650708
:100040000C9465070C9465070C9465070C94650780
:100050000C9465070C9465070C9465070C94650770
:100060000C9465070C946507000014367F36140065
:100070007F02040810207F000004067F06040101AF
:10008000010101010101010101FF0141497D7D41A2
:1000900001FF01755555554901FF01555555552924
:1000A00001FF012131297D2101FF015D55555525B4
:1000B00001FF017D5555557501FF01050505057DBC
:1000C00001FF017D5555557D01FF011D1515157D5C
:1000D00001FF017D017D457D01FF010101791515BC
:1000E0007D19010101FF0000000000000000000078
:1000F00000000000000000000000000000000101FE
:100100000101010101010101010101FF017D4555CD
:10011000457D01FF09050975554901FF09050901DB
:10012000552901FF017D0101017D01FF0101010947
:10013000150901FF01010101010101FF017D0175A7
:10014000554901FF01010101010101FF0101010107
:10015000010101FF01010101010101FF01017941DB
:100160005D41790101FF010101010101010101016D
:100170000101010101010101FF0101010101010171
:10018000010101010101010101010101010101FF61
:1001900001010101010101FF01214131090501FFB7
:1001A000012D4D31090501FF01292D29692901FF83
:1001B00001010101010101FF0171617D617101FF17
:1001C00001010101010101FF01010101010101FF23
:1001D00001010101010101FF010101010101010111
:1001E0000101010101FF000000000000000000000B
:1001F0000000000000000000FF00000000000101FE
:1002000001010101010101FF01010101010101FFE2
:10021000010101010101010101FF010101010101D0
:100220000101010101010101010101FF01010101C0
:10023000010101FF010101010101010101010101B0
:10024000010101010101010101FF010101010101A0
:10025000010101FF01FDF595F5F501FF0101010126
:100260000101010101FF000000000000000000008A
:100270000000000000000000FF00000000007D55AD
:1002800055015D5575017D4501FF0141497D7D4168
:1002900001FF01755555554901FF01555555552922
:1002A00001FF012131297D2101FF015D55555525B2
:1002B00001FF017D5555557501FF01050505057DBA
:1002C00001FF017D5555557D01FF011D1515157D5A
:1002D00001FF017D4545457D01FF017D4539017DDA
:1002E00055017D4101FF00000000000000000000FA
:1002F00000000000000000000000000000000101FC
:100300000101010101010101010101FF01010101DF
:10031000010101FF01252921216101FF0105394169
:10032000017D01FF01010101010101FF0101010145
:10033000010101FF01010101010101FF117D4501E1
:100340007D4501FF01457D01457D11FF010D0571D1
:10035000491101FF01297D297D2901FF010D0501B9
:100360003945654901FF0101010101010101010157
:100370000101010101010101FF010101010101016F
:10038000010101010101010101010101010101FF5F
:1003900001010101010101FF01010101010101FF51
:1003A00001010101010101FF01010101010101FF41
:1003B00001010101010101FF01010101010101FF31
:1003C00001454541414101FF0115151541E141FF3D
:1003D00001413905551D01FF0101010111097D0987
:1003E0001101010101FF00000000000000000000F9
:1003F0000000000000000000FF00000000000101FC
:1004000001010101010101FF01010101010101FFE0
:10041000010101010101010101FF010101010101CE
:100420000101010101010101010101FF01010101BE
:10043000010101FF010101010101010101010101AE
:10044000010101010101010101FF0111397D1111BA
:10045000111101FF012161FD612101FF0111111144
:10046000117D391101FF00000000000000000000B4
:100470000000000000000000FF0000000000010577
:100480007D057915797D552901FF017D4545657DFE
:1004900001FF013D413D413D01FF017D5555554560
:1004A00001FF017D1515156D01FF0105057D050590
:1004B00001FF01050971090501FF017D4141417DF0
:1004C00001FF0145457D454501FF017D4545457DD0
:1004D00001FF017D1515151D01FF0111397D111158
:1004E0001111111101FF00000000000000000000C8
:1004F0000000000000000000000000000000017D7E
:10050000454501791579017D151D01FF0179151505
:10051000157901FF014D5555556501FF017D454593
:10052000453901FF017D1515150501FF017D454583
:10053000557501FF017D1111117D01FF01414141FF
:10054000417D01FF017D1111294501FF017D4141DF
:10055000414101FF01652101014501FF0111397D83
:100560001111111D01FF0101010101010101010131
:100570000101010101010101FF0101010101015D11
:100580005575017D117D017D150501057D0501FF75
:10059000014565554D4501FF01452911294501FFDB
:1005A000017D4545454501FF010D3141310D01FFFB
:1005B000017D5555552901FF017D0911217D01FF5F
:1005C000017D057D057D01FF010D0511294501FF17
:1005D00001090145291101FF0101010111097D09ED
:1005E0001101010101FF00000000000000000000F7
:1005F0000000000000000000FF0000000000017D7E
:10060000454501057D0501FF016D6D016D6D01FF22
:100610000179157901057D0501FF015D5575017DA4
:10062000151D017D4545017D554501FF017D0515E0
:10063000150501FF01017D05050579017D41414158
:100640007D017D057D05790101FF0111397D1111C4
:10065000111101FF012161FD612101FF0111111142
:10066000117D391101FF00000000000000000000B2
:100670000000000000000000FF0000000000010575
:100680007D057915797D552901FF017D4545657DFC
:1006900001FF013D413D413D01FF017D151515055E
:1006A00001FF017D1515151D01FF017D454555759E
:1006B00001FF01414141417D01FF017D4141414136
:1006C00001FF017D4141417D01FF010509710905DE
:1006D00001FF01652101014501FF0111397D111162
:1006E0001111111101FF00000000000000000000C6
:1006F00000000000000000000000000000000111E8
:10070000397D111111111111111101FF0179151507
:10071000157901FF017D1515156D01FF014D555529
:10072000556501FF0105057D050501FF017D454575
:10073000453901FF017D1111117D01FF017D091175
:10074000217D01FF017D5555554501FF0145457D41
:10075000454501FF017D4545457D01FF0111397D7D
:100760001111111D01FF010101010101010101012F
:100770000101010101010101FF0101010101015D0F
:100780005575017D117D017D150501057D0501FF73
:10079000014565554D4501FF01452911294501FFD9
:1007A000017D4545454501FF010D3141310D01FFF9
:1007B000017D5555552901FF017D1111294501FF85
:1007C000017D057D057D01FF010D0511294501FF15
:1007D00001090145291101FF015D5575017D1515BF
:1007E00001057D0501FF0000000000000000000081
:1007F0000000000000000000FF0000000000017D7C
:10080000454501057D0501FF016D6D016D6D01FF20
:100810000179157901057D0501FF015D5575017DA2
:10082000151D017D4545017D554501FF017D0515DE
:10083000150501FF01017D05050579017D41414156
:100840007D017D057D05790101FF0179157901059E
:100850007D0501FF016D6D016D6D01FF017D454558
:1008600001057D0501FF0000000000000000000000
:100870000000000000000000FF0000000000000079
:100880000000000000000000000000000000000068
:100890000000000000000000000000000000000058
:1008A0000000000000000000000000000000000048
:1008B0000000000000000000000000000000000038
:1008C0000000000000000000000000000000000028
:1008D000000000000000000000404040404040C0D8
:1008E000F0FC7E4E40404040404000183C3C1C0024
:1008F00000000000000000000000000000000000F8
:1009000000000080C0E0F0F0300000C060F0F0F0C7
:10091000300080C020F0F0F020000000000080C017
:10092000E0703018B8F8F00000000000DC7E3FBE38
:10093000F0F0E000000000000080C0E07010181827
:10094000F8F06000000000C060F0F8F8300000002F
:1009500080E0F0F8F8300000000080E0F0FCFF3F9D
:100960000F0100000080C0E0F0F8780000000000F7
:1009700080C060309040203070E0C000000000185F
:100980000C06C3F9FE3FC7711806C3F07C1FC77180
:100990001806C3F8FE3F0F0180C0F0F8FEDF476382
:1009A0006030381E0F0781402018060381F0FC7F5D
:1009B0001F0780C0E0F8FC3E0F03010000000003A9
:1009C000018060100806E3FCFF3F0701C0308CE3A4
:1009D000FF7F1F0380C030188CE3F9FF3F070180C1
:1009E000C030180CC3F1FC7F0F0380C0F0FCFE3F49
:1009F0000701003EC18080E0FC3F8F400000000006
:100A0000383F3F1F07030000383E3F1F0E03000022
:100A1000307F7F3F190C0603010F1F3F716060702C
:100A200030180804020100000000387E7F3F3B18A8
:100A3000040301000F1F3120202020101808040299
:100A4000010000001C3F7F7F31180603183E3F3F26
:100A50001B0804020100001E3F3F3F100804020172
:100A60000000183E3F3F190C060301000F1F3160C4
:100A7000606030181C0F07030101000000003A48B5
:100A80006F7741626F75744E6F333A3A486F7741B2
:100A9000626F75744E6F343A0A003A486F7741625C
:100AA0006F75744E6F313A3A486F7741626F757463
:100AB0004E6F320A002B5D14001A00090013000A61
:100AC000000D002A00040015001600170007000B97
:100AD00000E1003800E4001B00060019000500E0FA
:100AE00000E200E700E6002C000351025100001272
:100AF00000A80033001C0018000F000000E3002ACB
:100B00000028000C000800110000001D00E500375F
:100B100000360010000E002B5D14001A00080015AE
:100B20000017001C00390004001600070009000A25
:100B3000000B00E10038004F001B00060019000503
:100B400000E000E200510050002C0003510251006F
:100B5000003300A800130012000C0018000000E38E
:100B6000002A0028000F000E000D0000001D00529A
:100B700000370036001000110029001E001F002061
:100B80000021002200230001000100350064000163
:100B90000001000100010001004F000100010001FF
:100BA000000100010001005100500001000100019E
:100BB000000000320001002700260025002400006C
:100BC0000001004C003400340030002F0000000110
:100BD00000520038002E002D00010029003A003B91
:100BE000003C003D003E003F0001004600B280B3E3
:100BF000804400B08001000100010001001AA21B26
:100C0000A22B00010001000100DF5C0100010001D6
:100C10000001000000470001004300420041004085
:100C200000000001009E8D005C01000100450000F5
:100C300000010001005300010001002A5D000000D6
:100C400000000000002A2B28000000000000000027
:100C5000000000000000000029000000002C1E34ED
:100C600020212224342627252E362D3738271E1FF3
:100C7000202122232425263333362E37381F04051E
:100C8000060708090A0B0C0D0E0F1011121314158C
:100C9000161718191A1B1C1D2F3130232D3504056A
:100CA000060708090A0B0C0D0E0F1011121314156C
:100CB000161718191A1B1C1D2F3130354C00000057
:100CC0000000000000000000000000000000000024
:100CD000007E0F00D4FFFFFFC70000007800AE00C9
:100CE000AF00DA02815FD9F1DB20A4A62EAF00A00D
:100CF000C000A1C800AED580A81FD300408D14202D
:100D00000009023B00020100A0FA090400000103EF
:100D100001010009210101000122400007058103B2
:100D20000800050904010001030000000921010178
:100D3000000122810007058303080005120110014C
:100D400000000008776D0317000101020001120383
:100D50004D006500720063007500740069006F004B
:100D6000000012034D006500630068005700690031
:100D70006C00640000000403090405010902A101DC
:100D800085020901A10005091901290515002501A0
:100D900095057501810295017503810305010930EF
:100DA00009311581257F950275088106093815815D
:100DB000257F950175088106050C0A3802158125E5
:100DC0007F950175088106C0C005010980A10185D4
:100DD0000319012AB700150126B700950175108186
:100DE00000C0050C0901A101850419012AA0021502
:100DF0000126A002950175108100C005010906A118
:100E000001050719E029E7150025019508750181FD
:100E1000029501750881030507190029FF150026B1
:100E2000FF0095067508810005081901290595053B
:100E300075019102950175039103C00011241FBE35
:100E4000CFEFD8E0DEBFCDBF04B603FE27C0809150
:100E50008D0590918E05A0918F05B09190058730FA
:100E6000904BA740B04BD1F410928D0510928E0597
:100E700010928F051092900514BE84B7877F84BFAF
:100E80000FB6F894A8958091600088618093600007
:100E9000109260000FBEE0E0F8E3099511E0A0E0D9
:100EA000B1E0E4E3F7E502C005900D92A63AB10780
:100EB000D9F725E0A6EAB1E001C01D92AD38B2072E
:100EC000E1F70E94E4270C947A2B0C940000A82FE1
:100ED000B92F80E090E041E050EA609530E009C031
:100EE0002D9182279795879510F084279527305E5E
:100EF000C8F36F5FA8F30895EADF8D939D9308957B
:100F0000CF93CFB7CF93DF93C3954B9BE9F74B9B21
:100F100010C04B9B0EC04B9B0CC04B9B0AC04B9B05
:100F200008C04B9B06C0C0916405C395C09364057F
:100F30008EC06F93C0916305DD27C559DA4F2F939B
:100F400065E54B9B03C02F916F91E1CF0F931F93EA
:100F50004F9320E040E15F9309B10C7003FB27F948
:100F60003F9350E03BE039C01C7040642F77012F65
:100F70005F5F1EC0406819B11C702F7752501FC0B0
:100F8000406409B12F770C70D1F15F5F00C023C0BE
:100F9000406219B12F771C7091F15F5F00C025C0CE
:100FA0000C701027515012F45D5F0000115027950E
:100FB0002C3F19B1C8F61C700127015027952C3F12
:100FC000C8F64227499309B10C7010274F7311508E
:100FD00027952C3FA8F64695469519B11C7079F0D7
:100FE0000127015027952C3F98F66B5A60F331503A
:100FF00009B1B0F600C012E01CBB00271CC03B507A
:101000003195C31BD04012E01CBB0881033C21F189
:101010000B3411F1209160051981110F1213EDCFDE
:101020004A81441F093679F10D3211F0013E29F74A
:101030004F7009F0042F009369053F915F914F9124
:101040001F910F912F916F91CCB3C1FD5DCFDF91B7
:10105000CF91CFBFCF91189520916905222369F3D5
:1010600010916705112309F049C034300AF448C0D3
:101070003093670520936205109163053BE0311BB7
:10108000309363053DC0009167050130BCF50AE56A
:101090004F7049F430911C0134FD33C000931C01A2
:1010A000CDE3D5E032C0433059F0443091F0309177
:1010B000480534FD26C000934805C9E4D5E025C0A5
:1010C0003091810534FD1DC000938105C2E8D5E053
:1010D0001CC03091540534FD14C000935405C5E57F
:1010E000D5E013C0052710E000C000000BB91AC0FE
:1010F000052710E0221F1DC010E021C04AE502C0F4
:1011000032ED432FC4E1D0E032E01AB11C605B9AAB
:101110000BB11AB95CE020E865E320FF05270BB9A5
:10112000279517951C3FF0F66695B8F7B1F720FFA5
:1011300005270BB9279517951C3FD0F627951795CE
:1011400017FF052700001C3F0BB9B0F629913A950F
:1011500019F7037F10916805110FC651D0400BB9E4
:1011600011F01093600512E01CBB08601AB1137FE8
:10117000402F437F54E05A95F1F70BB91AB94BB998
:101180005CCFCF93FB01823E910509F448C038F44F
:10119000813E9105A1F1C1E08C2FCF9108958A3253
:1011A0002DE59207D9F08B329D45A9F7C281CC235A
:1011B00009F44BC0E0910701F0910801808182FFA2
:1011C00042C081FF38C081E08093AA0181EE0E9475
:1011D000DE1A82EE0E94DE1A85E318C0C281CC239B
:1011E000D9F28AE99AE00E94A50B88E292E00E9477
:1011F000910A8EE79AE00E94A50BC0E0CDCFC28194
:10120000CC2339F081E08093A90181EE0E944C1A31
:10121000F4CF1092A90181EE0E94DE1ABDCFC281E7
:10122000CC2329F081E08093A80182EEEFCF1092C9
:10123000A80182EEF1CF82E08093AA0182EE0E94A3
:10124000DE1A89E2E3CF8BE2E1CF8091AA018130FF
:10125000A1F485E30E94DE1A8091A901813019F47E
:1012600081EE0E944C1A8091A801813019F482EE1F
:101270000E944C1A1092AA018FCF823021F489E289
:101280000E94DE1AF0CF8BE2C7CFCF93DF93D82F27
:10129000C62F0E94FB0F0E94D210D11127C080914F
:1012A000A701E0910701F09108019081CC23B1F1F1
:1012B000811108C091FF06C081E08093A7010E94C0
:1012C000572114C092FF16C08091A901813019F4F2
:1012D00081EE0E94DE1A8BE294E00E94910A8091D6
:1012E000A901813019F481EE0E944C1A81E0DF914E
:1012F000CF910895917151F08091A901813019F435
:1013000081EE0E94DE1A8BE291E0E7CF813021F47A
:1013100089EA0E94341BEACF8AEFFBCF882321F0B1
:1013200091FF02C08150C9CF92FF05C08BE296E0C9
:101330000E94910ADBCF917119F08BE293E0F8CF14
:10134000813011F48AEAE5CF89EFE3CF82E0089596
:10135000CF930E94F91880FD25C00E94F91881FDE5
:1013600021C00E94F91884709091A701892BD1F4B3
:10137000609168027091690280916A0290916B029B
:101380000E942A0C81110EC060E00E94561060E09D
:1013900072E08EE798E00E946D1081E08093A601D4
:1013A000CF9108958091A601882331F00E94FB0F10
:1013B0000E94D2101092A60160E080E00E945610B8
:1013C000609168027091690280916A0290916B024B
:1013D0000E942A0C8130A9F1882361F18230B1F199
:1013E0008330C9F10E940519C82F81FF0AC060E04F
:1013F0008EE10E94561067E070E087E790E00E945F
:101400006D10C0FF0AC060E08CE10E94561068E0D9
:1014100070E08FE690E00E946D10C2FFC1CF60E0E7
:101420008AE10E94561067E070E088E690E0CF9174
:101430000C946D1060E072E08EE796E00E946D10F3
:10144000D1CF60E072E08EE794E0F8CF60E072E028
:101450008EE792E0F3CF60E072E08EE790E0EECFAF
:10146000CF93DF939C013A9521153F4168F5EC013C
:10147000CC27D170DC01AA27B270AC01442754708C
:101480009C012227387094FF11C080E1CD2B09F414
:1014900080E0AB2B09F08062452B09F08064232BA0
:1014A00009F08068FB01DF91CF91099481E0CD2B99
:1014B00009F480E0AB2B09F08260452B09F08460D1
:1014C000232B81F38860EECFDF91CF910895CF93E6
:1014D000DF93EC01805E9109089720F06EE47DE1D6
:1014E000209711F46CE47BE1CE010E94300A8C2F2E
:1014F000DF91CF910C944C1ACF93DF93EC010E94B3
:10150000DE1ACE01805E9109089720F065E57DE145
:10151000209711F463E57BE1CE01DF91CF910C942C
:10152000300ACF93DF93EC010E94670A8FE39CE9B6
:101530000197F1F700C00000CE01DF91CF910C942C
:101540007C0A81E008950C94C10808950C94A50AC2
:101550001F93CF93DF9300D000D00F92CDB7DEB7AB
:1015600049835A836B8330910C0289819A813111AE
:101570001DC06623B9F02223A9F00E945C22182F17
:10158000682F89819A810E94082269817A81812F3E
:101590000F900F900F900F900F90DF91CF911F91B0
:1015A0000C948A0C0E943422182FEFCF0E945C22E8
:1015B00069817A81EDCFFC01262F408151816281C2
:1015C000738184810C94A80ACF93DF93EC0160E0CF
:1015D0000E94DB0ABE01DF91CF910C94A60AFF9214
:1015E0000F931F93CF93DF93E82FF0E0E35CF34F6B
:1015F000F490C82FC695C695C695D0E0FE01E3537A
:10160000F34F0491877010E0082E02C015950795DE
:101610000A94E2F701701127C354D34FFE01C4911D
:10162000D0E002C0D595C7958A95E2F7C170DD2755
:101630000115110519F081EE0E944C1A209719F03E
:1016400086EE0E944C1A8F2D0E94341BCD2B19F070
:1016500086EE0E94DE1A012B41F081EEDF91CF91E0
:101660001F910F91FF900C94DE1ADF91CF911F9183
:101670000F91FF900895EF92FF920F931F93CF93D6
:10168000DF938C01F62E8AE0E82EF80184918823FE
:1016900009F454C0813009F04DC0E8012196FE01E3
:1016A0008491813091F42196FE0184910E94341B33
:1016B0008E010F5F1F4F8F2D815038F3EFE9FFE050
:1016C0003197F1F700C00000F7CF823039F4E8011C
:1016D0002296FE0184910E944C1AEACF833039F49D
:1016E000E8012296FE0184910E94DE1AE1CF843047
:1016F000F9F6E8012296FE01249190E080E0FE01D7
:1017000031962053330B2A30310548F0019780F28F
:10171000EFE9FFE03197F1F700C00000F7CFE89E56
:10172000A001E99E500D1124C901840F951F249139
:10173000EF01E5CF0E94EF0AE801BACFDF91CF9128
:101740001F910F91FF90EF90089560E00C943B0B78
:101750000E940B250E943B23811102C00E94DF23BF
:101760000E9425120C947D0E0C94800E282F2F7051
:1017700041F0822F90E02A3010F44D96089506979C
:10178000089587E290E0089508950E94721D0E94D6
:10179000C40B2FEF84E39CE0215080409040E1F7A0
:1017A00000C000000C94F4240F931F93CF93DF9399
:1017B00000D0CDB7DEB78C0161E00E94DB0A9A83CE
:1017C0008983B801CE0101960E940015811108C0DD
:1017D00080E00F900F90DF91CF911F910F910895AE
:1017E000B80189819A810E94A30A882389F3B801EC
:1017F00089819A810E94C212882351F3B80189819C
:101800009A810E946113882319F3B80189819A8112
:101810000E94B3138823E1F2B80189819A810E9462
:10182000D6148823A9F2F8018281882349F089819E
:101830009A818115FCE59F0739F0803E9C4539F07F
:10184000C8010E94A10AC5CF0E94C50BC1CF0E944A
:10185000DF23BECFCF92DF92EF92FF926C01EE2496
:10186000FF2420E0C114D104E104F10419F0C70100
:10187000B60120E1C72ED82EE92EFF24C114D104D1
:10188000E104F10419F0285FC701B6016B017C0186
:1018900054E0F694E794D794C7945A95D1F7C114BD
:1018A000D104E104F10419F02C5FC701B6016B010A
:1018B0007C0142E0F694E794D794C7944A95D1F717
:1018C000C114D104E104F10419F02E5FC701B6017F
:1018D0009695879577956795672B682B692B09F007
:1018E0002F5F822FFF90EF90DF90CF9008950895A3
:1018F0000C94770C81E008950C947A0CCF93C82F48
:101900000E94780C8C2FCF910C947C0C90E080E09E
:1019100008950895972F70E027E0929F600D711D44
:101920001124FB0191E3899FE00DF11D1124EE0FBD
:10193000FF1FEB54F54F859194910895FC01EE0F34
:10194000FF1FE352F34F859194910895CF93DF9356
:101950000E948A0C0E94A20DEC01811520E49207DE
:1019600008F043C0811530E3930708F0B6C0803E0D
:10197000910518F5803C910508F0ACC0883A9105B6
:1019800070F4853A910508F09BC08130910501F112
:101990000097F1F00497E0F4D0E0C0E019C08F3B6D
:1019A0009105D0F7C85AD0E0CC0FDD1FC35EDE4FE3
:1019B0000990D881C02DD4640BC08F3F910509F0E8
:1019C00058F4803F910508F083C0883E910520F7C8
:1019D000CE01DF91CF9108959F70C11540E2D407E9
:1019E000B8F30E949E0CEC01F3CFC11583E5D80734
:1019F00060F5C11592E5D90708F080C0C11521E551
:101A0000D20708F076C0C11530E5D30708F46EC0E0
:101A1000CE0164E0969587956A95E1F783702C2F47
:101A200026952695237040E2249F90011124382B9F
:101A30008C2F8370C1E0D0E002C0CC0FDD1F8A95EF
:101A4000E2F7C22BD32BDC68C3CFC11549E5D4071D
:101A5000F0F4C11588E5D80708F061C0C11594E518
:101A6000D90708F099CFCE018370992721E030E0A3
:101A700002C0220F331F8A95E2F7C695C69590E201
:101A8000C99FE0011124C22BD32BDA68A1CFC11565
:101A90002AE5D20708F448C0CE019056811590423D
:101AA00008F07ACF8D2F8F710E94390E90E0982F19
:101AB000882788279F719C012C2BE901D06288CF51
:101AC000C55AD0E0C55BDE4FC881D0E0D06480CF7E
:101AD000D0657ECF805C910984CF9927D3FF03C066
:101AE000EC01D86C75CFEC01D06C72CFDF70D06A8E
:101AF0006FCFDC2FCC27C16FD06A6ACFCE01837045
:101B0000992721E030E002C0220F331F8A95E2F7C7
:101B1000C695C69580E2C89FE001112492CFDC2FC4
:101B2000CC27C06FD06A54CF8C2F8F700E94390E93
:101B300034E0D695C7953A95E1F7CF709C2FEC012C
:101B4000D06946CF82389105B1F1B0F48133910567
:101B500009F475C048F48932910509F469C08A32E4
:101B6000910509F473C008958533910509F459C0AE
:101B70008933910501F10895833E9105A9F138F467
:101B8000803E9105F9F0823E910549F10895863E27
:101B90009105A9F1873E9105C9F1843E910519F59A
:101BA00020913C0521FF1FC080913B0584FD14C09E
:101BB00087EE90E0089520913B052370A1F080EE20
:101BC00090E0089520913B0520FD47C030913C05F1
:101BD00030FF09C024FF44C090E080E004C02091A1
:101BE0003B0522FDF7CF089520913B0522FD3BC028
:101BF00030913C0530FDE3CF24FFF5CFEDCF2091B0
:101C00003B0523FFF0CF24FDE7CFD2CF20913B054A
:101C100023FD2CC030913C0531FFEECF84EE90E0E7
:101C2000089520913B0525FFDECF89E290E00895DD
:101C300020913B0525FFD7CF85E390E008952091C3
:101C40003B0526FFD0CF8AE290E0089520913B0526
:101C500026FFC9CF81E390E0089589E390E00895DD
:101C600083EE90E0089582EE90E0089586EE90E095
:101C7000089590913B0592FF06C0282F28712830C7
:101C8000F9F4877F846093FF06C0282F28712831DC
:101C9000F1F4877E846120913C0520FF06C0382F37
:101CA00038713830D9F4877F816021FF06C0282F32
:101CB00028712831D1F4877E816194FD877E089553
:101CC000282F24712430F9F68B7F8860DCCF282FF1
:101CD0002471243101F78B7E8861DDCF382F31717B
:101CE000313019F78E7F8860E0CF282F21712131A4
:101CF00021F78E7E8861E1CF08950C947C0E0895C3
:101D00000C947F0EE82FF0E0EC5DFC4F808108958D
:101D1000089580EA8A95F1F70895F894E82FE295FE
:101D2000EF70F0E031A1282F2F7081E090E001C02A
:101D3000880F2A95EAF7982F9095932391A392A163
:101D4000892B82A378940895CF93DF93C5E5D1E0E2
:101D500089910E948D0E81E0CC35D807C9F7CEE479
:101D6000D1E089910E948D0E81E0C535D807C9F771
:101D7000EDE1F3E0A4E2B3E011921D9283E0E432DE
:101D8000F807D1F787E00E943E0FDF91CF910C94C6
:101D9000A80BCF92DF92EF92FF920F931F93CF93F6
:101DA000DF93C5E5D1E00DE113E0D12CEE24E394FF
:101DB000F12C8991F894E82FE295EF70F0E021A1E1
:101DC0008F70A70102C0440F551F8A95E2F7CA0120
:101DD000922F982B91A392A18095892382A3789426
:101DE0000E94890EEEE4F1E030E020E0C12C419148
:101DF000A42FA295AF70B0E090968C9190E04F70B8
:101E000002C0959587954A95E2F780FD33C08E2DE7
:101E1000022E01C0880F0A94EAF7C82A2F5F3F4FAD
:101E20002730310521F7FE01319780810E948D0E08
:101E3000F8018081C81601F1C08281E0D82A0F5FC5
:101E40001F4FF1E0CC35DF0709F0B3CF2D2D47E070
:101E500064E273E08DE193E00E943F0F0E94B40BB7
:101E60008D2DDF91CF911F910F91FF90EF90DF901B
:101E7000CF90089580E0D1CF80E0E0CF0895FF9229
:101E80000F931F93CF93DF93F82E092F162FD72F81
:101E9000C42F222349F081E08093AD010E94A92440
:101EA0009093AC018093AB018091AD018823A1F0A8
:101EB0008091AB019091AC010E94C124069760F023
:101EC000EF2DF02FA12FBD2FCE0FDF2FD11DEC173F
:101ED000FD0741F41092AD01DF91CF911F910F9159
:101EE000FF90089581918D93F2CF0C944509249829
:101EF0002C9A25982D9A83B1829581701D9905C0E1
:101F000090E0892B8093B001089592E0FACFE091A0
:101F1000B001EE0FEE0FE093B00143B144FB882710
:101F200080F943B145FB222720F945FF02C022E09A
:101F300030E0822BE82BE093B001EF70F0E0E45A40
:101F4000FE4F80819091AF01890F8093AF01843063
:101F50004CF08091AE018F5F8093AE0160E080E035
:101F60000E94750F8091AF018D3F4CF48091AE01BE
:101F700081508093AE0161E080E00E94750F8091F6
:101F8000AF01082E000C990B64E070E00E94FC2A5F
:101F90008093AF010895CF92DF92EF92FF920F935B
:101FA0001F93CF93DF936C017B0164E670E088E7B9
:101FB0000E941118EC0197FD12C010E000E0F6013C
:101FC000E00FF11F849164E670E00E946D18EC014F
:101FD000892B29F40F5F1F4F0E151F0581F70E94F3
:101FE000F018CE01DF91CF911F910F91FF90EF90EC
:101FF000DF90CF900895EBE2F3E080E092E0DF0124
:102000009C011D9221503040E1F7F0933005E093A0
:102010002F058FEF9FEF9093D7018093D6010895FE
:102020000E94A6098093D20180FD0FC080E88093B2
:10203000D1010E940B186DE070E084EF9CE00E94DB
:10204000CB0F892B21F080E0089580E2F0CF8091C2
:10205000D20163E070E081FD26C081EF9CE00E9428
:10206000CB0F892B81F76DE070E081EE9CE00E9440
:10207000CB0F892B41F70E94B5246051754F8F4FCC
:102080009F4F60932B0570932C0580932D059093A3
:102090002E050E94FB0F81E08093D5018093D4012F
:1020A0001092D30108958EEE9CE0D9CF2091D101FA
:1020B00034E0839FC0011124629F800D911D112483
:1020C000811522E0920714F090E080E0855D9C4F3E
:1020D0009093300580932F050895CF93DF9320913F
:1020E0002F05309130052B523340A901460F571F61
:1020F0004130524020F060E072E0621B730B40916F
:10210000D6015091D701FC01C901620F731FC1E0D4
:10211000D0E08617970738F05093D7014093D60147
:10212000DF91CF9108952491DC01A55DBC4F3C91D6
:10213000321781F02C939C01A5E036952795AA953E
:10214000E1F7DE0102C0AA0FBB1F2A95E2F79D014D
:102150004A2B532B01963196DCCF8091D50181110A
:1021600003C08091D40108950E94B5246051754F39
:102170008F4F9F4F60932B0570932C0580932D05F7
:1021800090932E058091D4018111EBCF62E070E035
:102190008FED9CE00E94CB0F892B19F781E0809393
:1021A000D401DFCF2F923F925F926F927F928F92F6
:1021B0009F92AF92BF92CF92DF92EF92FF920F93D6
:1021C0001F93CF93DF938091D501882369F02091ED
:1021D000D6013091D7012115310531F08091D3011D
:1021E00061E070E0882399F0DF91CF911F910F910A
:1021F000FF90EF90DF90CF90BF90AF909F908F9027
:102200007F906F905F903F902F9008958F5F082F81
:1022100010E01B01082E02C0220C331C0A94E2F7C6
:10222000A90142215321452B89F39091D20190FDC0
:1022300044C08295880F807680930201980136957C
:1022400027953695279520930501815E809303019C
:102250001092060124E630E047E050E060E071E0D3
:1022600088E70E949C18892B09F0BECFA80125E0C1
:10227000440F551F2A95E1F78091D20180FD2BC0B4
:10228000455D5C4F04E610E020E230E060E488E762
:102290000E94C318892B09F0A7CF0E94AD10E1015D
:1022A000C095D0958091D6019091D701C823D923AC
:1022B000D093D701C093D60197CF880F880F880F8E
:1022C0008093020110920501895F8093030183E0EE
:1022D00080930601BFCFE1EBF1E080E2DF011D92C8
:1022E0008A95E9F7A0E7B1E00CE611E084E7C82E93
:1022F00081E0D82E97E0592E772473948D91E801D0
:1023000029918E01240F352F311D255D3C4FE82F7B
:10231000F0E0EF54FE4F90E080E0652C681A872CC7
:10232000082E01C0880C0A94EAF77901A12CE70174
:10233000B9907E01B820662D6A196770962E062E18
:10234000000C770BDB2D01C0DD0F9A94EAF7719535
:10235000619571096770772701C0B6946A95EAF7AD
:10236000BD2A6081962E9B289082A39468E0A612D5
:10237000DECF019631968830910579F6CA16DB06D4
:1023800009F0BCCF04E610E020E230E041EB51E080
:102390007DCF8091D4019091D501911103C091E03E
:1023A00089270895882369F062E070E08DED9CE054
:1023B0000E94CB0F892B19F08091D40108951092BF
:1023C000D4018091D401EBCF0F931F938091D5015D
:1023D000882319F160E080E00E9456100E94A8094D
:1023E0000E94D2108091D4018823B9F00E94B524B4
:1023F00000912B0510912C0520912D0530912E0573
:10240000601B710B820B930B6F3F7F4F8F4F9F476A
:1024100020F41F910F910C94C9111F910F910895F1
:10242000CF93DF93EC0197FF0CC0FB0182818823DF
:1024300041F00E944B12CE019F770E94A5120E948C
:10244000861281E0DF91CF9108958CE090E00E94A8
:10245000382B482F50E070E060E0409331055093F6
:10246000320560933305709334051092D80184309F
:1024700009F4089584E08093310508956091310551
:102480008CE090E00C94462B1092D80184E080936D
:1024900031050C943E120E94051986958170809337
:1024A000360590913105913029F4882319F089E39C
:1024B0000E94341B0E94FF22809335050E94122344
:1024C00080913105813089F0882359F0823091F074
:1024D0008430B9F08FE39CE90197F1F700C0000068
:1024E000089582EE0E944C1AF5CF88E193E00E9495
:1024F000910AF0CF82EE0E944C1A87E50E94341BAD
:10250000E9CF86EE0E94341B88E1F8CF8091310537
:10251000813071F0882341F0823031F0843099F0BD
:10252000809135050C940F2382EE0E94DE1AF8CFBD
:102530008CE20E94341B80913605882389F389E35D
:102540000E94341BEDCF88E2FBCF0F931F93CF93F4
:10255000DF938C01CCE0D0E0C8010C2E02C0969530
:1025600087950A94E2F78F700E94B60B0E94910A39
:102570002497CC3F8FEFD80779F7DF91CF911F9148
:102580000F9108950F931F93CF93DF93EC018B016D
:10259000FB018281882361F00E94FF228272C23E89
:1025A000FCE5DF07E1F060F4C13EECE5DE0799F001
:1025B000B801CE01DF91CF911F910F910C941012B1
:1025C000C83EFCE5DF07A0F78C2F835E80933105C2
:1025D0000E943E12EDCF811104C081E003C0811141
:1025E000FCCF8FEF0E944412E3CF0F931F93CF9342
:1025F000DF93C42FD22FFC0182818823C9F040933E
:10260000DB010E94A9249093DA018093D90180E232
:102610008C0F883008F050C0C77081E001C0880F6F
:10262000CA95EAF7DF91CF911F910F910C944C1B43
:102630001091DB01141335C08091D9019091DA011A
:102640000E94C124883C910560F5C0E2CD0F1D17A2
:10265000B9F080E2810F883040F4177081E001C04A
:10266000880F1A95EAF70E94531BC83048F481E09E
:102670009D2F977001C0880F9A95EAF70E944C1B16
:10268000802F0E94341BC830B8F4D77081E001C09D
:10269000880FDA95EAF7DF91CF911F910F910C9493
:1026A000531B80E28C0F883038F4C77081E001C082
:1026B000880FCA95EAF7EFCFDF91CF911F910F9165
:1026C00008950F939C01CB01253F4CE5340759F148
:1026D000A8F4293DFCE53F0701F12A3D4CE534070C
:1026E000D1F1283D3C4591F406E221EE41EE68ED42
:1026F0007CE50E94F51280E00F910895273FFCE5EC
:102700003F07E9F0B0F0283F3C45F9F0FC01828139
:10271000882339F11092DB01EFCF07E225EE45EE79
:1027200069ED7CE5E6CF06E221EE40EE65EF7CE563
:10273000E0CF07E225EE44EE66EF7CE5DACF06E275
:1027400021EE42EE67EF7CE5D4CF07E225EE46EEC0
:1027500068EF7CE5CECF08E221E045EE6AED7CE54E
:10276000C8CF81E0C9CFCF93DF93EC01FB01828119
:10277000882309F419C1C230FCE5DF07C0F1C63176
:102780009CE5D90730F09E012C5F3C45293031058E
:1027900070F50E944E2390933C0580933B05C03119
:1027A000ECE5DE0709F4CFC008F05BC0C8308CE56B
:1027B000D80709F4B6C088F5C430ECE5DE0709F4A3
:1027C000A8C0C0F4C2308CE5D80709F49CC0809141
:1027D0003B058260C330DC4509F498C080913B051D
:1027E00090913C050E945C230E94721D80E0DF9165
:1027F000CF91089580913B058061C630ECE5DE07FE
:1028000009F484C080913B058860C730DC4508F43A
:102810007DC080913B05806279C0CC308CE5D807C3
:1028200009F489C070F480913B058C60CA30ECE5F6
:10283000DE0709F46BC008F478C080913B058E7FF9
:1028400065C0CE308CE5D80709F479C080913B058E
:102850008B7FCF30DC4508F459C080913B058F7EDB
:1028600055C0CD3FECE5DE0709F457C030F5C33164
:102870008CE5D80709F46FC078F4C131ECE5DE07C8
:1028800009F465C0C231DC4509F0A8CF0E94721D71
:1028900080913B058F773AC0C5318CE5D80709F4A4
:1028A00062C008F476C080913C058160CC3FDC4575
:1028B00009F094CF80933C0591CFC130FDE5DF074F
:1028C00009F44DC088F480913C058D7FCF3F9CE595
:1028D000D90781F380913C058E7FC115DD4550F30A
:1028E00080913C058360E6CFC330FDE5DF0709F446
:1028F00059C008F444C080E0C430DD4509F06ECF13
:102900000E94E1236BCF80913B05816080933B0562
:1029100065CF80913B058460F9CF80913C05826052
:10292000C9CF80913B058064F1CF0E94721D8091D8
:102930003B058068EBCF80913B058D7FE7CF809191
:102940003B05877FE3CF80913B058F7DDFCF809173
:102950003B058F7BDBCF80913B05837FD7CF809179
:102960003C058C7FA7CF80913B0582FB992790F98E
:1029700021E0922790FB82F990FB83F9C7CF8091E9
:102980003C05982F909591708E7F892B90FB81F953
:1029900091CF0E94721D90913B05892F97FB87F97B
:1029A0008058B4CF81E0ACCF81E021CFCF93DF93CB
:1029B000EB0186319C4511F50E94FF229A819923F3
:1029C00099F08A7A91E009F490E09093DC0181110A
:1029D00009C089E20E94CC220E94E02280E0DF91BF
:1029E000CF91089585E3F6CF8091DC01811104C079
:1029F00089E20E94D322F0CF85E3FBCF81E0EFCFC5
:102A00004F925F926F927F928F929F92AF92BF92FE
:102A1000CF92DF92EF92FF920F931F93CF93DF93AA
:102A2000EC01E881F981CF01815095458F3F9105F7
:102A300010F485E5F827DB0112964C90442009F448
:102A400066C2EF3FF10509F100F1EF3DFC4521F0D1
:102A50001092DD01A42D07C08091DD0191E089274E
:102A60008093DD01A0E08A2FDF91CF911F910F911C
:102A7000FF90EF90DF90CF90BF90AF909F908F909E
:102A80007F906F905F904F900895A091DD01AA23F1
:102A900009F4E9C01092DD01E03CF105F0F5E03801
:102AA000F10508F0AAC0E034F10508F070C021E09B
:102AB00030E040E050E060E070E080E090E00E2F19
:102AC0000E94162BB091DE012B2BB091DF013B2B26
:102AD000B091E0014B2BB091E1015B2BB091E20191
:102AE0006B2BB091E3017B2BB091E4018B2BB09168
:102AF000E5019B2B2093DE013093DF014093E00141
:102B00005093E1016093E2017093E3018093E4014B
:102B10009093E501F983E883A6CFEF3FF10509F033
:102B200030F621E030E040E050E060E070E080E02E
:102B300090E08F01005C11090E94162BB091F60104
:102B40002B2BB091F7013B2BB091F8014B2BB0919F
:102B5000F9015B2BB091FA016B2BB091FB017B2B40
:102B6000B091FC018B2BB091FD019B2B2093F601C2
:102B70003093F7014093F8015093F9016093FA0103
:102B80007093FB018093FC019093FD01C3CF21E082
:102B900030E040E050E060E070E080E090E08F01E5
:102BA000005411090E94162BB091E6012B2BB09115
:102BB000E7013B2BB091E8014B2BB091E9015B2B76
:102BC000B091EA016B2BB091EB017B2BB091EC0142
:102BD0008B2BB091ED019B2B2093E6013093E70105
:102BE0004093E8015093E9016093EA017093EB018F
:102BF0008093EC019093ED018DCF21E030E040E037
:102C000050E060E070E080E090E08F010058110932
:102C10000E94162BB091EE012B2BB091EF013B2BB4
:102C2000B091F0014B2BB091F1015B2BB091F2010F
:102C30006B2BB091F3017B2BB091F4018B2BB091F6
:102C4000F5019B2B2093EE013093EF014093F001AF
:102C50005093F1016093F2017093F3018093F401BA
:102C60009093F50157CFE034F10508F067C07090FC
:102C7000DE018090DF019090E001D091E101C091F0
:102C8000E201B091E3015090E4016090E50121E0A0
:102C900030E040E050E060E070E080E090E00E2F37
:102CA0000E94162B59016A017B018C0127213B2DC3
:102CB000382149215D2D5D236C237F2D7B238521C8
:102CC000912F96210E942F2B09F0C4CEE03CF105F4
:102CD00008F08EC0E038F10508F0EBC0E034F105F3
:102CE00008F0B9C021E030E040E050E060E070E082
:102CF00080E090E00E2F0E94162B20953095409595
:102D0000509560957095809590952721382149219F
:102D10005D236C237B23852196212093DE01309354
:102D2000DF014093E0015093E1016093E201709371
:102D3000E3018093E4019093E50195CEE038F1053D
:102D4000E0F47090E6018090E7019090E801D09166
:102D5000E901C091EA01B091EB015090EC01609063
:102D6000ED0121E030E040E050E060E070E080E024
:102D700090E08F010054110993CFE03CF105E0F49D
:102D80007090EE018090EF019090F001D091F101F0
:102D9000C091F201B091F3015090F4016090F501FF
:102DA00021E030E040E050E060E070E080E090E062
:102DB0008F010058110974CF7090F6018090F701CF
:102DC0009090F801D091F901C091FA01B091FB0106
:102DD0005090FC016090FD0121E030E040E050E0C7
:102DE00060E070E080E090E08F01005C110958CF56
:102DF000EF3FF10511F008F075CF8F01005C11096C
:102E000021E030E040E050E060E070E080E090E001
:102E10000E94162B209530954095509560957095A1
:102E2000809590952721382149215D236C237B23B0
:102E3000852196212093F6013093F7014093F80104
:102E40005093F9016093FA017093FB018093FC01A8
:102E50009093FD0108CE8F010054110921E030E06C
:102E600040E050E060E070E080E090E00E94162BCF
:102E700020953095409550956095709580959095EA
:102E80002721382149215D236C237B23852196212D
:102E90002093E6013093E7014093E8015093E90164
:102EA0006093EA017093EB018093EC019093ED0144
:102EB000DACD8F010058110921E030E040E050E008
:102EC00060E070E080E090E00E94162B2095309545
:102ED0004095509560957095809590952721382163
:102EE00049215D236C237B23852196212093EE01CC
:102EF0003093EF014093F0015093F1016093F201A0
:102F00007093F3018093F4019093F501ACCDA1E0AF
:102F1000EF3FF10509F098F5E034F10590F5809068
:102F2000DE019090DF01D091E001C091E101B0910C
:102F3000E201A091E3016090E4017090E50121E0DD
:102F400030E040E050E060E070E080E090E00E2F84
:102F50000E94162B59016A017B018C0128213B2D0F
:102F600039214D235D2D5C236B237F2D7A23A1E036
:102F70008621912F97210E942F2B09F4A0E0A170A8
:102F800072CDE038F105E0F48090E6019090E70121
:102F9000D091E801C091E901B091EA01A091EB0163
:102FA0006090EC017090ED018F010054110921E057
:102FB00030E040E050E060E070E080E090E0C8CFBA
:102FC000E03CF105A0F48090EE019090EF01D091EB
:102FD000F001C091F101B091F201A091F301609074
:102FE000F4017090F5018F0100581109E0CF809035
:102FF000F6019090F701D091F801C091F901B091DC
:10300000FA01A091FB016090FC017090FD018F011D
:10301000005C1109CCCF1092B9008CE08093B8000D
:103020000895EF92FF920F931F93CF93DF93182F82
:10303000EB011092BC0084EA8093BC000E94A9249A
:103040007C018091BC0087FF27C08091B900887FF8
:10305000883029F08091B900887F8031D9F51093AC
:10306000BB0084E88093BC000E94A9248C0180915D
:10307000BC0087FF24C02091B900287F90E080E049
:103080002831B1F081E090E0203411F490E080E04C
:103090009195819591090CC0CF3FDC0791F20E9478
:1030A000A9248E199F098C179D0758F28EEF9FEF68
:1030B000DF91CF911F910F91FF90EF900895CF3F37
:1030C000DC07A9F20E94A924801B910B8C179D0795
:1030D00070F2ECCF8FEF9FEFEBCF0F931F93CF9357
:1030E000DF93EB018093BB0084E88093BC000E94D7
:1030F000A9248C018091BC0087FF11C02091B900E8
:10310000287F81E090E0283211F490E080E09195F2
:1031100081959109DF91CF911F910F910895CF3F34
:10312000DC0741F30E94A924801B910B8C179D079B
:1031300008F38EEF9FEFEECFCF92DF92EF92FF92E8
:103140000F931F93CF93DF936B018A017901B9012C
:103150000E941118E6010C0D1D1DC017D10761F466
:1031600024E92093BC00DF91CF911F910F91FF9034
:10317000EF90DF90CF90089597FDF2CFB70189913E
:103180000E946D18EACFCF92DF92EF92FF920F93D9
:103190001F93CF93DF93C62F6A017901B8010E9474
:1031A000111897FD0CC0B8018C2F0E946D18E60114
:1031B000EC0CFD1CCE15DF0511F097FF0CC024E9C7
:1031C0002093BC00DF91CF911F910F91FF90EF9062
:1031D000DF90CF900895B80189910E946D18EACFD1
:1031E00084E98093BC0008959093030280930202C7
:1031F0000895E0910202F0910302309721F00190CE
:10320000F081E02D099480E00895E0910202F091B0
:103210000302309711F480E008950190F081E02DD1
:1032200009950895E0910202F0910302309721F090
:103230000280F381E02D09940895E0910202F0915B
:103240000302309739F022E0DC012C930480F581F1
:10325000E02D099408952091000230910102281771
:10326000390771F09093010280930002E09102020D
:10327000F0910302309721F00680F781E02D099448
:1032800008952091FE013091FF012817390771F050
:103290009093FF018093FE01E0910202F0910302FE
:1032A000309721F00084F185E02D09940895089568
:1032B00008950C94571908950C945B190E9458199D
:1032C0000C94591981E008950C9462190895089599
:1032D0000E94A0240E94A40E80E00E9410100E9470
:1032E0001F250E94770F0C945C19AF92BF92CF926A
:1032F000DF92EF92FF920F931F93CF93DF93CDB79F
:10330000DEB72A970FB6F894DEBF0FBECDBF0E947E
:1033100066190E9467190E94C90EB82E0E9464198E
:10332000882309F468C085E0C82E82E0D82E10E01A
:1033300000E0A02E802F0E94820EE82EF601F19070
:103340006F01F81609F451C080917B0281FD0E9443
:10335000880E9F2D9E2580E0FF24F394292F2F2196
:1033600009F43EC08E83AF82EF2081E009F480E053
:1033700088870E94A9248160782F9A8789874E8147
:103380005F8168858A850E941D1AF801EB5FFD4FF9
:103390008081F826F0820E94870F0E94E411B1100C
:1033A0000E94AD100E94CA260E94F9189091040252
:1033B000891791F10E94F918809304022A960FB69A
:1033C000F894DEBF0FBECDBFDF91CF911F910F915B
:1033D000FF90EF90DF90CF90BF90AF900C947E0C59
:1033E0008F5FFF0C873009F0B9CF0F5F1F4F073099
:1033F000110509F09ECF8FEF89838A831B820E947B
:10340000A9248160782F9D838C8349815A816B81A7
:103410008D810E941D1ABFCF2A960FB6F894DEBF89
:103420000FBECDBFDF91CF911F910F91FF90EF9015
:10343000DF90CF90BF90AF900895CF93DF93CDB73B
:10344000DEB72B970FB6F894DEBF0FBECDBF4F830C
:10345000588769877A878B871E821D8285E0FE01E7
:103460003796DE01119601900D928A95E1F7498118
:103470005A816B817C818D819E812B960FB6F89449
:10348000DEBF0FBECDBFDF91CF910C94E81FFC01D2
:10349000808191810C949E22CF93C82F882309F4B8
:1034A0008BC08238C1F40E94F91881FD85C089E380
:1034B0000E94CC220E94E0222FEF81EE94E0215066
:1034C00080409040E1F700C0000089E30E94D322D1
:1034D000CF910C94E0228338A1F40E94F91880FD6A
:1034E0006BC083E50E94CC220E94E0222FEF81EE88
:1034F00094E0215080409040E1F700C0000083E557
:10350000E5CF8438A1F40E94F91882FD55C087E404
:103510000E94CC220E94E0222FEF81EE94E0215005
:1035200080409040E1F700C0000087E4CFCF8CEFEF
:103530008C0F813A90F46C2F8091070190910801D3
:103540000E94E623882329F08C2F0E94D3220E9418
:10355000E0228C2F0E94CC22BBCF80E28C0F8830DF
:1035600048F4C77081E001C0880FCA95EAF70E944D
:103570000223AECFEBE5EC0FE33040F4F0E0EE5584
:10358000FE4F808190E0CF910C942B19E8E5EC0F71
:10359000E73150F4F0E0EE0FFF1FEC58FE4F808152
:1035A0009181CF910C944119C03F30F08C2F0E9433
:1035B000C425CF910C94AF26CF910895882309F4A8
:1035C00052C0823871F40E94F91881FF4CC089E31F
:1035D0000E94CC220E94E02289E30E94D3220C9414
:1035E000E022833859F40E94F91880FF3CC083E53B
:1035F0000E94CC220E94E02283E5EFCF843859F468
:103600000E94F91882FF2FC087E40E94CC220E94FA
:10361000E02287E4E2CF9CEF980F913AF0F290E23B
:10362000980F983050F4877091E001C0990F8A95F7
:10363000EAF7892F0E940823D2CF9BE5980F933099
:1036400020F490E080E00C942B1998E5980F9731C6
:1036500020F490E080E00C944119803F20F00E941B
:103660002C260C94AF260895CF93C82F0E944C1A95
:10367000C93369F42FEF87EE93E0215080409040EA
:10368000E1F700C000008C2FCF910C94DE1A8FE37D
:103690009CE90197F1F7F5CF882321F00E940223DE
:1036A0000C94E0220895882321F00E9408230C94B2
:1036B000E0220895CF92DF92EF92FF920F931F9333
:1036C000CF93DF936C01D62FC72FFC01F580F294C6
:1036D0009FE0F922128111110E9422230C2F0295E2
:1036E0000F70E02FF0E0E458F44D0C94102BFC2FF9
:1036F000FF70FF2EC07F19F0F29480EFF8221123A3
:10370000A9F0FF2059F080E28D0F883010F0D11120
:1037100009C08F2D0E9402230E94E0228D2F0E945B
:103720004C1A14C08F2D0E941523F6CF8D2F0E94A6
:10373000DE1AFF2059F080E28D0F883010F0D11191
:1037400017C08F2D0E9408230E94E0220850110B01
:103750000430110508F066C10E94F918DF91CF917D
:103760001F910F91FF90EF90DF90CF900C947E0C03
:103770008F2D0E941B23E8CF8C2F8F70C07FC0320B
:1037800011F08295807FD13071F4112331F025E062
:103790002F15E0F20E944C1BD9CF94E09F15B0F298
:1037A0000E94531BD3CF112349F0FF2099F3F60158
:1037B000958190FFB3CF9F709583ECCFFF2081F36D
:1037C000D93369F4FFEF27EE83E0F15020408040C9
:1037D000E1F700C000008D2F0E94DE1AB7CFEFE3A3
:1037E000FCE93197F1F7F5CF8C2F8695869583709C
:1037F00069F0813009F0AACF8D2F9C2F93701111A1
:1038000002C090E080E00E944119A0CF8D2F9C2F34
:103810009370111102C090E080E00E942B1996CFA6
:103820008D2F112329F00E94C4250E94AF268ECF30
:103830000E942C26FACF8C2F837009F042C0111100
:1038400085CF2D2F229526952770220F220F6D2FC1
:103850006F70C62ED12CF12CE12C022E04C0CC0CA2
:10386000DD1CEE1CFF1C0A94D2F760E070E0CB0177
:10387000D4FF0FC06FE070E080E090E004C0660FFE
:10388000771F881F991F2A95D2F7609570958095AC
:103890009095C695C695C3706C297D298E299F2960
:1038A000C23049F058F4C13019F00E941E214ECFA9
:1038B0000E940C214BCF0E94302148CF0E940A2148
:1038C00045CF8695112311F08C2F8170882309F440
:1038D0003DCF2D2F229526952770220F220F6D2F79
:1038E0006F70C62ED12CF12CE12C022E04C0CC0C12
:1038F000DD1CEE1CFF1C0A94D2F760E070E0CB01E7
:10390000D4FF0FC06FE070E080E090E004C0660F6D
:10391000771F881F991F2A95D2F76095709580951B
:103920009095C695C695C3706C297D298E299F29CF
:10393000C23049F058F4C13019F00E94E32106CF9B
:103940000E94D12103CF0E94F52100CF0E94462181
:10395000FDCECF70112329F08C2F0E946C218D2F6A
:1039600019CF8D2F0E94531B8C2F0E948D21EECEDC
:10397000D13F29F148F4D03F91F0112379F1F110B2
:10398000CDCE8C2F8F711FC0D23F01F1D33FA9F74D
:10399000112309F18C2F8F710E945721D7CE11234B
:1039A00049F0F4E0FF1508F4D1CE8C2F8F710E94FE
:1039B000B021CCCE25E02F1508F4C8CEF6CF8C2F41
:1039C0008F71112391F20E946C21C0CE8C2F8F71C8
:1039D0001123C9F3CACF0E945221B8CEFF2079F03B
:1039E000D93341F48FEF97EEE3E081509040E0400F
:1039F000E1F7EFCE8FE39CE90197F1F7EACE8C2F48
:103A00008F71B3CF4C2F4F706D2FC6010E94860C63
:103A10000E9482209BCE4C2F4F706D2FC6010E94BA
:103A2000890C94CEDF91CF911F910F91FF90EF9071
:103A3000DF90CF9008950F931F93CF93DF93EC0106
:103A4000688179818A810E94A8228C010E940722C4
:103A50000E940921B801CE01DF91CF911F910F91F2
:103A60000C945A1BCF93DF93EC018B819C81892BA3
:103A700029F08881998189238F3F19F4DF91CF91B3
:103A80000895CE010E94D40B8823C1F3CE010E9479
:103A90001B1DCE01DF91CF910C94E40A882321F005
:103AA0000E9415230C94E0220895882321F00E949F
:103AB0001B230C94E02208950E9422230E943223AB
:103AC0000E94E0220E94D6270E94AF2690E080E06C
:103AD0000E942B1990E080E00C9441190E94DA2298
:103AE0000C945C1D0E9412230C946E1DE92FE2952C
:103AF000EF70E250EE3070F4F0E0E457F44D0C94C7
:103B0000102B803F19F020F4883E20F481E00895C6
:103B1000843FE1F380E00895883EC0F3813FD1F710
:103B2000F5CF93FB882780F908950E949E220C947C
:103B3000761DCF93DF9300D000D00F92CDB7DEB7C4
:103B40000F900F900F900F900F90DF91CF910895ED
:103B5000CF93DF9300D000D000D0CDB7DEB726964C
:103B60000FB6F894DEBF0FBECDBFDF91CF910895A1
:103B70001F93CF93DF93C0910D0216E080910E0248
:103B80008C1304C0DF91CF911F910895D0E01C9F4A
:103B9000F0011D9FF00D1124E15FFD4F4081518127
:103BA00062817381848195810E94A81D2196C770CE
:103BB000E5CF40913F0250914002609141027091E7
:103BC000420280914302909144020C94A81D1F93DD
:103BD000CF93DF9380914402807FA9F480914102CA
:103BE000882389F080910D02C0910E0260913F02FE
:103BF00070914002A0914202B0914302D62FD72388
:103C000016E0C81304C0DF91CF911F91089590E092
:103C1000109711F0DF3F19F401968770F2CF189FCB
:103C20009001199F300D1124F901E15FFD4F418191
:103C30004713F2CF40814613EFCF42814111ECCFC1
:103C4000438154814A1B5B0B483C510528F7809106
:103C500044028F70806180934402F901EC5EFD4F55
:103C600080818F70806180838FE392E00E94321D9B
:103C7000DF91CF911F910C94B81DAF92BF92CF925C
:103C8000DF92EF92FF920F931F93CF93DF93CDB705
:103C9000DEB761970FB6F894DEBF0FBECDBF8C01C3
:103CA00085E0F801DE011D9601900D928A95E1F7FD
:103CB000F80140815181E2808FE3C82E82E0D82E46
:103CC00060914202709143026115710509F461C16E
:103CD00090913F0220914002892F82238F3F09F467
:103CE00058C1A380B480F0904102F501E61BF70BA8
:103CF000FF2009F4FCC080914402382F307FE83C5B
:103D0000F10508F0B2C0311179C0FE2C251323C093
:103D1000941321C0E1101FC08F7080618093440212
:103D20000E94D91DC6010E94321D80914402F801F3
:103D300085838F2D61960FB6F894DEBF0FBECDBF81
:103D4000DF91CF911F910F91FF90EF90DF90CF9077
:103D5000BF90AF900895AB2829F0842F85238F3F23
:103D600009F033C180E0F82FF170DF2E80FF3CC0F6
:103D700080910D0220910E0236E0821315C04D870E
:103D80005E878D859E850E949E22292F22952F7009
:103D90002230F0F0243018F59F70F1F0F801958191
:103DA000907FD1F4D12C1EC090E0389FF001399F54
:103DB000F00D1124E15FFD4F6181651306C0608144
:103DC000641303C062816E110FC001968770D5CF56
:103DD0009F7011F0882331F3805E883018F3C8019A
:103DE0000E94321DFD2CA5CFEE2009F4A2CF8091B8
:103DF0004402816080934402F12C9BCF251306C0BE
:103E0000941304C0F801EE2009F48DC04D875E873D
:103E10008D859E850E94951D882319F1EE2009F15C
:103E200080914402803270F020913F023091400234
:103E300038872F831986BB86AA868C87CE01079682
:103E40000E94321D86E0F801AFE3B2E001900D92CE
:103E50008A95E1F70E94E71D0E94D91DFF24F39483
:103E600068CFC8010E94321DF9CF311113C07A2DDD
:103E7000B98AA88A6E2D89890E94991D8FE392E0E4
:103E80000E94321D86E0F60111928A95E9F70E94A0
:103E9000D91DB2CF25130FC094130DC0E1100BC074
:103EA000F8018583C8010E94321D86E0F601119257
:103EB0008A95E9F73ECF4D875E878D859E850E9466
:103EC000951D882371F2EE2061F2809144028032C8
:103ED00008F4B8CF20913F02309140023A83298301
:103EE0001B82BD82AC828E83CE010196A9CFE83CB5
:103EF000F10508F041C0FE2CEE2009F4B2CF2513E5
:103F00002AC0941328C08091440280FD1BC0982FC2
:103F1000907FC1F0F8018583903F31F0982F907F1A
:103F2000905F8F70892B8583C8010E94321D86E0C7
:103F3000F801AFE3B2E001900D928A95E1F70E949B
:103F4000D91DF7CE86E0F801AFE3B2E001900D9203
:103F50008A95E1F7EECE4D875E878D859E850E941E
:103F6000951D81116FCF809144028160809344023E
:103F7000C8010E94321DDDCE7A2DB98AA88A6E2D25
:103F800089890E94991D86E0F60111928A95E9F7C8
:103F9000D6CFEE2009F465CF4D875E878D859E854F
:103FA0000E94951DF82E882309F45BCF86E0F80166
:103FB000AFE3B2E001900D928A95E1F78FE392E0D2
:103FC0000E94471A0E94E71DBACF81E08E25CBCE12
:103FD0001F93CF93DF93CDB7DEB72C970FB6F8942E
:103FE000DEBF0FBECDBF4F83588769877A878B8727
:103FF0009C87CE0107960E943D1E882369F08A8522
:104000009B85892B39F04F815885842F85238F3FDD
:1040100009F071C016E05FC086E0FE013796DE0150
:10402000119601900D928A95E1F78A859B85892BDF
:1040300089F38F81988589238F3F61F320910E0248
:1040400030E0C90101968770992740910D02481709
:10405000190671F40E94721D10920E0210920D0248
:1040600086E0EFE3F2E0DF011D928A95E9F7D2CF17
:1040700096E0929FD001939FB00D1124A15FBD4F98
:10408000FE01319601900D929A95E1F780930E0210
:104090000E94B81DBFCF819FC0011124815F9D4F39
:1040A0000E943D1E8823E9F0E0910D021E9FF00161
:1040B0001124E15FFD4F40815181628173818481D0
:1040C00095810E94A81D80910D0290E00196877055
:1040D000992780930D0280910D0290910E02891311
:1040E000DACF2C960FB6F894DEBF0FBECDBFDF91AE
:1040F000CF911F91089569857A858B859C850E9453
:10410000A81D88CFEF92FF920F931F93CF93DF9359
:104110008C01892B81F0F12CEE24E394E8012196A7
:10412000F8018491843770F4843008F05FC08130E6
:10413000B1F08230A1F1DF91CF911F910F91FF90EB
:10414000EF900895853709F44CC008F43DC09CE712
:10415000980F903780F78F770E94DE1A49C00E5F64
:104160001F4FFE01849190E2980F983060F48770A1
:10417000FE2D01C0FF0F8A95EAF78F2F0E9425239D
:104180000E94E02202C00E944C1A8F2D815030F212
:10419000EFE9FFE03197F1F700C00000F7CF0E5FC5
:1041A0001F4FFE01849190E2980F983050F4877071
:1041B000FE2D01C0FF0F8A95EAF78F2F0E942B2357
:1041C000DFCF0E94DE1AE1CF0E5F1F4FFE01C491C8
:1041D000C150D8F28FE99FE00197F1F700C00000CD
:1041E000F7CF0E5F1F4FFE01F490CFCF0E944C1A05
:1041F0008E01CBCF08950C94FA200E94FB2060938F
:104200006C0270936D0280936E0290936F020C9417
:104210005C1D08950C94FD200F931F9300916C0278
:1042200010916D0220916E0230916F02602B712B04
:10423000822B932B1F910F910C94FD200F931F93B2
:1042400000916C0210916D0220916E0230916F020C
:1042500060237123822393231F910F910C94FD20DF
:104260000F931F9300916C0210916D0220916E02CA
:1042700030916F0260277127822793271F910F913A
:104280000C94FD200C94FA200C9442210E944421AD
:10429000609368027093690280936A0290936B0244
:1042A0000C945C1D60E070E0CB010C9446210F93F0
:1042B0001F9341E050E060E070E08A019B0104C080
:1042C000000F111F221F331F8A95D2F7C901B801B1
:1042D0001F910F910C9446210F931F9341E050E0E2
:1042E00060E070E004C0440F551F661F771F8A9579
:1042F000D2F78091680290916902A0916A02B09110
:104300006B028A019B01082B192B2A2B3B2BC9011D
:10431000B8011F910F910C9446210F931F9341E018
:1043200050E060E070E004C0440F551F661F771F27
:104330008A95D2F7CB01BA016095709580959095DA
:10434000009168021091690220916A0230916B021B
:1043500060237123822393231F910F910C94462194
:104360000F931F9341E050E060E070E004C0440F01
:10437000551F661F771F8A95D2F78091680290912A
:104380006902A0916A02B0916B028A019B01082721
:1043900019272A273B27C901B8011F910F910C94B7
:1043A00046210F931F93009168021091690220919A
:1043B0006A0230916B02602B712B822B932B1F9121
:1043C0000F910C9446210F931F9300916802109156
:1043D000690220916A0230916B026023712382236B
:1043E00093231F910F910C9446210F931F930091DB
:1043F00068021091690220916A0230916B02602775
:104400007127822793271F910F910C9446210895BD
:1044100027E0929F800D1124982F977041E001C0F2
:10442000440F9A95EAF786958695869595E0899F3B
:10443000F0011124EB5BFD4F90E080E070E05191C2
:10444000DF0111979B01082E02C0369527950A942B
:10445000E2F7217021952527242325272C93019607
:104460008530910561F7089527E0929F800D112412
:10447000982F977086958695869525E0829FF00106
:104480001124EB5BFD4F50E040E080E0219130E0F3
:10449000092E02C0369527950A94E2F7217033273A
:1044A000042E01C0220F0A94EAF7822B4F5F5F4F60
:1044B0004530510559F70895BF92CF92DF92EF92A0
:1044C000FF920F931F93CF93DF938C01C0906802EC
:1044D000D0906902E0906A02F0906B0280916C02C9
:1044E00090916D02A0916E02B0916F02C82AD92AF4
:1044F000EA2AFB2ACFE1D0E0BC2ED701C6010C2E60
:1045000004C0B695A795979587950A94D2F780FD34
:104510000EC0219788F7B12C8B2DDF91CF911F9181
:104520000F91FF90EF90DF90CF90BF900895B8016A
:104530008C2F0E94A60C019761F3EECFCF93DF93EF
:10454000EC010E945C22BE01DF91CF910C94A60C7D
:104550001F93CF93DF93EB0190910C02992331F0DD
:10456000CB01DF91CF911F910C949E22882379F08B
:10457000CB010E945C22182F682FCE010E940822D6
:10458000BE01812FDF91CF911F910C94A60CCB011E
:104590000E943422182FF4CF682F80910701909148
:1045A00008010C941C24682F809107019091080148
:1045B0000C941E2480910701909108010C942024F2
:1045C000E0910701F091080180917A028083E091E7
:1045D0000701F0910801808190917902892B8083F5
:1045E000E0910701F0910801808190917802892B78
:1045F000808380910701909108010C941219809199
:104600007A02089590917A02892B80937A02089514
:10461000809590917A02982390937A0208958093DE
:104620007A02089510927A02089590917902892B66
:1046300080937902089580959091790298239093C0
:104640007902089510927902089590917802892B49
:1046500080937802089580959091780298239093A2
:10466000780208951092780208956FEF7FEF90E03E
:1046700080E00C94642B90E080E00E94402B21E0CD
:104680008C3E9E4F09F020E0822F089582E090E05A
:104690000C94382B83E090E00C94382BCF9384E07B
:1046A00090E00E94382BC82F81E290E00E94382BC6
:1046B000982F8C2FCF910895CF93C92F682F84E026
:1046C00090E00E94462B6C2F81E290E0CF910C94F9
:1046D000462BAB01BC018FE090E00C94582BAB0152
:1046E000BC0183E190E00C94582B60E070E0CB01BA
:1046F0000C946F2360E070E0CB010E9469230C945E
:1047000075236CEE7EEF90E080E00E94642B60E009
:1047100082E090E00E94462B60E083E090E00E94FF
:10472000462B10926C0210926D0210926E02109243
:104730006F0260E084E090E00E94462B60E081E23E
:1047400090E00E94462B60E085E090E00E94462BBE
:1047500060E086E090E00E94462B6FEF87E090E0FB
:104760000E94462B40E050E0BA0188E090E00E94B1
:10477000582B60E08DE090E00E94462B40E050E036
:10478000BA0188E190E00E94582B60E087E190E058
:104790000E94462B40E050E0BA018CE190E00E947C
:1047A000582B60E080E290E00E94462B40E050E011
:1047B000BA0188E190E00E94582B0C947A230C9463
:1047C0008123682F8EE090E00C94462B662349F0FD
:1047D000FC01329608962191261729F0E817F9076F
:1047E000D1F780E0089581E008959C01FC013296A4
:1047F0009FEF80E04191461751F09F3F19F441111E
:1048000001C0982F8F5F8630A9F79F3F09F4089564
:10481000290F311D97FD3A95F90162830895FC0136
:10482000329608962191261303C0DF0111971C923E
:10483000E817F907B9F708950C94F5230C940F24A1
:10484000029626E0FC0111922A95E9F70895089551
:1048500008950C94282480918A02882349F10E94AB
:10486000292480E00E947E0C10927C0288E190E076
:1048700020E40FB6F894A895809360000FBE2093B3
:10488000600083B7817F846083BF83B7816083BF0B
:104890007894889583B78E7F83BF0FB6F894A895D8
:1048A00080916000886180936000109260000FBE6C
:1048B00008950895CF930E9427240E94C90E0E9454
:1048C0005924C0E08C2F0E94820E811105C0CF5F59
:1048D000C730C1F7CF91089581E0FCCF08950C94C3
:1048E0006E240E94721D0E94F9180E947E0C0C9486
:1048F0006F241F921FB61F9211248F939F93AF9323
:10490000BF9380917C02811113C0809137059091F3
:104910003805A0913905B0913A054196A11DB11D08
:104920008093370590933805A0933905B0933A05E5
:10493000BF91AF919F918F911F901FBE1F901895AF
:1049400082E084BD93E095BD9AEF97BD80936E00A1
:1049500008952FB7F8948091370590913805A0916C
:104960003905B0913A052FBF08952FB7F89460919B
:104970003705709138058091390590913A052FBF20
:1049800008959C014FB7F8948091370590913805B0
:10499000A0913905B0913A054FBF821B930B089542
:1049A00078941F921FB61F9211248F939F93AF93F9
:1049B000BF938091370590913805A0913905B0914A
:1049C0003A050196A11DB11D8093370590933805D6
:1049D000A0933905B0933A05BF91AF919F918F9104
:1049E0001F901FBE1F90189588E198E00FB6F894AD
:1049F000A895809360000FBE90936000A895F894EE
:104A0000D8E0CEEF28E3299320E0299314BEFFCF0E
:104A100008950C9435230E94C90E8FE39CE90197F9
:104A2000F1F700C000000E94C90E80E00E94820ED3
:104A300080FF04C00E9409250C94F42408950E946C
:104A40003B23811102C00E94DF230E9446238093F2
:104A50007B020E944E2390933C0580933B050E946D
:104A60004A23682F70E090E080E00E940A21609164
:104A700068027091690280916A0290916B020C94B5
:104A800044218091830280FF12C060910E0185E075
:104A9000689FB00111247595679575956795603885
:104AA0007105A8F561157105A1F1862F089581FFA3
:104AB00009C060910E0185E0689FB00111247595D1
:104AC0006795EDCF60910E0182FD0AC08091820250
:104AD0008823D1F090910D0160910E01891728F083
:104AE00085E0689FB0011124DACF869FB0011124C0
:104AF00085E0869F9001879F300D1124692F70E01B
:104B0000C9010E94FC2ACBCF65E070E0CECF8FE7D1
:104B1000089581E008958091830280FF0CC0609128
:104B20000A0170E075956795759567956115710532
:104B300049F1862F089581FF06C060910A0170E057
:104B400075956795F3CF60910A0182FD0BC0909136
:104B500081029923A1F06091090180910A019617C1
:104B600038F0682F70E06038710500F38FE7089522
:104B7000899FC001112470E00E94FC2AF4CF61E0FB
:104B800070E0D7CF81E00895803F31F40E94412545
:104B90008195809387020895813F19F40E944125F1
:104BA000F8CF823F31F40E9441258195809386029F
:104BB0000895833F19F40E944125F8CF893F29F4D5
:104BC0000E948B258093880208958A3F21F40E94D9
:104BD0008B258195F7CF8B3F31F40E948B258195F2
:104BE0008093890208958C3F19F40E948B25F8CF99
:104BF000843F31F48091850281608093850208951D
:104C0000853F21F4809185028260F7CF863F21F4B1
:104C1000809185028460F1CF873F21F480918502E5
:104C20008860EBCF883F21F4809185028061E5CFD9
:104C30008D3F31F4809183028160809383020895D7
:104C40008E3F21F4809183028260F7CF8F3FB9F7C6
:104C5000809183028460F1CF90918602803F59F465
:104C60008091870287FF0DC01092870291110BC0BF
:104C70001092820208C0813F81F480918702181649
:104C80009CF3992381F08091880290918902892B6D
:104C900009F064C0109281020895823F49F497FFA1
:104CA000F0CF10928602809187028111ECCFE0CF85
:104CB000833F19F41916ACF3E4CF20918802893FA1
:104CC00029F41216F4F610928802DBCF8A3F19F409
:104CD00027FFD7CFF8CF209189028B3F29F427FFF8
:104CE000D0CF10928902CDCF8C3F19F41216CCF39D
:104CF000C8CF843F31F4809185028E7F80938502F6
:104D0000C0CF853F21F4809185028D7FF7CF863F0C
:104D100021F4809185028B7FF1CF873F21F4809130
:104D20008502877FEBCF883F21F4809185028F7EBB
:104D3000E5CF8D3F31F4809183028E7F8093830293
:104D4000A0CF8E3F21F4809183028D7FF7CF8F3FDC
:104D500009F097CF809183028B7FF0CF08950E9456
:104D6000A9249C019091860280918702982B21F0C2
:104D70003093800220937F02909188028091890273
:104D8000982B21F030937E0220937D0284E892E0FC
:104D90000C941D19EF92FF920F931F93CF93DF9303
:104DA00000D000D000D0CDB7DEB786E0E4E8F2E076
:104DB000DE01119601900D928A95E1F7E09086024E
:104DC000F090870200918802109189021092860269
:104DD0001092870210928802109289028E2D8F29DC
:104DE00091F080917F02909180020E94C124AC01D9
:104DF00090918202992309F43FC080910F0184179A
:104E0000150608F447C0802F812B91F080917D0218
:104E100090917E020E94C124AC019091810299235D
:104E200009F477C080910B018417150608F47FC040
:104E30008091860290918702892B90918802892B1C
:104E400090918902892B11F00E94AF2686E0FE0125
:104E50003196A4E8B2E001900D928A95E1F726968A
:104E60000FB6F894DEBF0FBECDBFDF91CF911F917B
:104E70000F91FF90EF900895209110018AE0289FF4
:104E8000900111242417350708F0BDCF9F5F909340
:104E9000820202C09F3FD1F7EE2059F00E944125C7
:104EA0009FEF1E140CF491E0899F802D11248093B4
:104EB0008602FF2059F00E9441259FEF1F140CF439
:104EC00091E0899F802D1124809387023091860282
:104ED000332309F498CF20918702222309F493CF3A
:104EE00045EB3403C0011124992359F090938602B5
:104EF00045EB240390011124332339F030938702CA
:104F000082CF81E080938602F3CF81E08093870295
:104F10007ACF20910C018AE0289F90011124241758
:104F2000350708F085CF9F5F9093810202C09F3FB5
:104F3000D1F7002359F00E948B259FEF10160CF437
:104F400091E0899F802D112480938802112359F0CC
:104F50000E948B259FEF11160CF491E0899F802D04
:104F600011248093890230918802332309F460CFA1
:104F700020918902222309F45BCF45EB3403C00161
:104F80001124992359F09093880245EB2403900152
:104F90001124332339F0309389024ACF81E0809382
:104FA0008802F3CF81E08093890242CF86E0E4E873
:104FB000F2E0DF011D928A95E9F7109282021092C9
:104FC00081021092830208950E94A924EC0180E8D6
:104FD00090E00FB6F89480936100909361000FBE4B
:104FE0000E945E190E94CD2A539A80E0815009F0F8
:104FF00047C0539878940E9468190E94FD280E9427
:10500000F418FFEF20E732E0F15020403040E1F7A4
:1050100000C0000001E01CE0809164058823C1F11C
:10502000109264050E94A924EC0180918A028823D1
:1050300021F010928A020E94712480918A028823B2
:10504000A9F10E942B240E945A24882329F3F89462
:105050009AB15B9A892F8C608AB98BB181278BB901
:105060008FE7E8E3F1E08150E040F040E1F700C075
:1050700000008BB181278BB99AB95B987894CCCF1B
:10508000A895EFE9FFE03197F1F700C00000AECF3F
:1050900080918A028111D1CFCE010E94C12406974E
:1050A00060F200938A020E942B24C7CF0E94DD2960
:1050B00080916A05882329F08091480584FD0E942B
:1050C00075190E94A4280E9466190E946719A4CF2E
:1050D00080911C030895CF93DF9300D00F92CDB73A
:1050E000DEB790918D02981307C020918B0230910A
:1050F0008C022617370791F080938D0270938C02F3
:1051000060938B0289837B836A838091810584FF0E
:1051100005C063E0CE0101960E94D9290F900F903F
:105120000F90DF91CF910895BC0184E00C946B281F
:10513000BC0183E00C946B282091810524FF03C0FF
:1051400066E00C94D9290895CF93DF93CAE0D0E0AC
:105150008091480584FF1AC08091990290919A022B
:10516000981789F028E0829FC001112468E08556D5
:105170009D4F0E94D5298091990290E001968F70F1
:10518000992780939902DF91CF9108950E94DD299C
:105190008FE99FE00197F1F700C000002197C1F669
:1051A000F2CFCF93DF93EC01A0919A02B0E0CD0152
:1051B00001968F70992720919902281779F093E032
:1051C000AA0FBB1F9A95E1F7A556BD4F98E0FE01C7
:1051D00001900D929A95E1F780939A020E94DD2941
:1051E0000E94A42888E0FE01A1E9B2E001900D929E
:1051F0008A95E1F7DF91CF91089581E191E00895DB
:10520000FC01808180768032F1F48181813061F40B
:1052100084819581892BB9F481E992E090936605A8
:105220008093650588E00895823041F48BE193E036
:10523000909366058093650581E008958A3029F48E
:10524000838180931B0380E008958930E1F7828198
:1052500093818115924069F484819581892B49F469
:1052600081E0809390028681978190938F02809352
:105270008E028FEF0895FC0180918E0290918F0233
:10528000892B61F080919002813041F4908190935C
:105290001C0310928F0210928E0208958FEF0895D2
:1052A0000895FC019381933051F130F49130B9F0BD
:1052B0009230E9F080E008959132B1F19232D1F765
:1052C00084819581009709F43FC0019799F78AE797
:1052D0009DE0909366058093650581E808958CE3D1
:1052E0009DE0909366058093650582E1089581E0D5
:1052F0009DE090936605809365058BE30895828118
:10530000813079F0882329F08230A1F68EE49DE087
:10531000E8CF86E79DE0909366058093650584E07D
:10532000089582E69DE0DDCF8281882329F08130D7
:1053300009F68CE29DE002C083E19DE09093660552
:105340008093650589E008958BEF9DE09093660555
:105350008093650580E408951F93CF93DF93E82F32
:10536000792F162FEA01888184FF1CC0298188E8E3
:1053700028272983CE010296DC012E2F372F512FAB
:105380005E0FF90121912D939F01452F4E1B14169D
:10539000C4F3612F0E947C071C5F1883DF91CF91BB
:1053A0001F9108958AE58883E5CF48E455E00C9481
:1053B000AC2941E855E00C94AC29CF93DF93609180
:1053C0006705635067FD12C080916305CCE0D0E0B3
:1053D000C81BD109C559DA4F80916205803108F0A8
:1053E00054C0CE010E9450291092670580911C0183
:1053F00084FF3EC080911B018F3FD1F1C82F8930BF
:1054000008F0C8E0982F9C1B90931B0190913D05DC
:1054100028E8922790933D058823E9F0809165055F
:10542000909166052091610526FFAEC0FC012C2FEE
:10543000AEE3B5E034913D9331962150D9F79C010C
:105440002F5F3F4F8FEF8C0F820F932F911D909303
:105450006605809365056C2F8EE395E00E947C07BE
:10546000CC5FCC3019F08FEF80931B01C0931C01EF
:1054700084E199B19C7031F48150D9F7109268059C
:1054800010926005DF91CF9108958D3209F069C0C7
:10549000683009F0A9CF83EC80933D058AE58093BD
:1054A0001C01109261058881807671F0CE010E9406
:1054B00000298F3FC1F4988197FD8E8190E89093E9
:1054C000610580931B0190CF2A8110924605998136
:1054D000911111C01092470526E435E082E0309327
:1054E0006605209365059F819111EBCF9E819817EA
:1054F00040F7892FE6CF953029F42093680526E4FC
:1055000035E0EDCF963099F49B81913021F4CE01B6
:105510000E94512908C09230D1F39330C1F39132E7
:10552000B1F39232A1F390E490936105C2CF983029
:1055300089F0993019F420936A05E1CF9A3071F01F
:105540009B30E9F69BE490934905909382059093F4
:105550005505D5CF2AE635E081E0C1CF26E435E018
:10556000FBCF8091610587FF3FCFCE010E943B2991
:105570008F3F21F48EE180931C0136CF882309F4FC
:1055800033CF10921B0130CFDC012C2FEEE3F5E07E
:105590003D9131932150E1F752CFCF93DF93E9E66C
:1055A000F0E0808188608083E99AC8E4D5E08BE4EC
:1055B0008983A1E8B5E011968C931197E4E5F5E0B5
:1055C00081838AE588838C938083DF91CF910895CE
:1055D000AA1BBB1B51E107C0AA1FBB1FA617B70719
:1055E00010F0A61BB70B881F991F5A95A9F7809535
:1055F0009095BC01CD01089597FB072E16F40094F9
:1056000007D077FD09D00E94E82A07FC05D03EF4B8
:10561000909581959F4F0895709561957F4F08955E
:10562000EE0FFF1F0590F491E02D0994002E083035
:1056300090F0982F872F762F652F542F432F322FDE
:1056400022270850F4CF220F331F441F551F661F17
:10565000771F881F991F0A95B2F7002D08952A1504
:105660003B054C055D056E057F0580079107089594
:10567000F999FECF92BD81BDF89A992780B508951A
:10568000A8E1B0E042E050E00C946C2B262FF99991
:10569000FECF92BD81BDF89A019700B4021639F091
:1056A0001FBA20BD0FB6F894FA9AF99A0FBE089562
:1056B0000396272F0E94472B0E94462B252F0E94DE
:1056C000472B242F0C94472B0196272F0E94472B02
:1056D0000C94462BDC01CB01FC01F999FECF06C0EE
:1056E000F2BDE1BDF89A319600B40D9241505040A0
:1056F000B8F70895F894FFCF771B771BBC1BBC1B32
:10570000F41B101CA61BA61B1B1CA91CB81CB81C38
:10571000021DA61BA61B0B1D811D811D8A1D8A1D36
:105720008C1D8A1D8A1D8A1D811D811D911D8A1D4A
:045730008A1D911D20
:105734000021007F22000370022808641E140A322C
:105744001E6828D1289C2898289428FF5AE200E94A
:1057540000EA00B500B600B700CD008301CC008A92
:105764000192019401210223022402250226022728
:10577400022A02B300B4006F007000818283309764
:1057840096953132339091946360616200FF010019
:10579400010000FFFF0000010001FF0000081018D5
:1057A40018100800E200E900EA00B500B600B700EE
:1057B400CD008301CC008A019201940121022302CD
:1057C40024022502260227022A02B300B4006F0035
:0657D400700081828300D9
:00000001FF
