:100000000C9473070C94BA070C94D5070C94BA0798
:100010000C94BA070C94BA070C94DD280C94BA0718
:100020000C94BA070C94BA070C94BA070C94BA074C
:100030000C94BA070C94BA070C9434290C94BA07A0
:100040000C94BA070C94BA070C94BA070C94BA072C
:100050000C94BA070C94BA070C94BA070C94BA071C
:100060000C94BA070C94BA07000014367F361400BB
:10007000007F02040810207F00000004067F0604B1
:100080000001020C30408040300C020C30408040B7
:10009000300C020100FF08080808080808080808D2
:1000A00008080808080808080808080808080808D0
:1000B00008080808080808080808080808080808C0
:1000C00008080808080808FF0000000000000000F9
:1000D00000000000FC0A0A0A0A0A0A0A0A0A0A0AB6
:1000E000FC00000000000000000000000000000014
:1000F000000000000000000000000010F0100000F0
:10010000000109091D0900000202070200000000A9
:10011000010000008080C0800000202070200001CD
:1001200001010101010101010101FF0141497D7D41
:100130004101FF01755555554901FF01555555556B
:100140002901FF012131297D2101FF015D5555550F
:100150002501FF017D5555557501FF010505050573
:100160007D01FF017D5555557D01FF011D151515BB
:100170007D01FF017D017D457D01FF0101017915B3
:10018000157D19010101FF000000000000000000C2
:10019000000000000000000000000000000000015E
:1001A000010101010101010101010101FF017D4581
:1001B00055457D01FF09050975554901FF090509E7
:1001C00001552901FF017D0101017D01FF010101AF
:1001D00009150901FF01010101010101FF017D0173
:1001E00075554901FF01010101010101FF010101F3
:1001F00001010101FF01010101010101FF0101797B
:10020000415D41790101FF0101010101010101018C
:10021000010101010101010101FF010101010101D0
:1002200001010101010101010101010101010101BE
:10023000FF01010101010101FF0121413109050116
:10024000FF012D4D31090501FF01292D29692901E2
:10025000FF01010101010101FF0171617D61710176
:10026000FF01010101010101FF0101010101010182
:10027000FF01010101010101FF0101010101010172
:10028000010101010101FF00000000000000000069
:10029000000000000000000000FF0000000000015E
:1002A0000101010101010101FF0101010101010140
:1002B000FF010101010101010101FF010101010132
:1002C000010101010101010101010101FF01010120
:1002D00001010101FF010101010101010101010110
:1002E00001010101010101010101FF010101010100
:1002F00001010101FF01FDF595F5F501FF01010186
:10030000010101010101FF000000000000000000E8
:10031000000000000000000000FF00000000007D61
:100320005555015D5575017D4501FF0141497D7DB3
:100330004101FF01755555554901FF015555555569
:100340002901FF012131297D2101FF015D5555550D
:100350002501FF017D5555557501FF010505050571
:100360007D01FF017D5555557D01FF011D151515B9
:100370007D01FF017D4545457D01FF017D45390139
:100380007D55017D4101FF000000000000000000DC
:10039000000000000000000000000000000000015C
:1003A000010101010101010101010101FF0101013F
:1003B00001010101FF01252921216101FF01053909
:1003C00041017D01FF01010101010101FF01010165
:1003D00001010101FF01010101010101FF117D4541
:1003E000017D4501FF01457D01457D11FF010D05A1
:1003F00071491101FF01297D297D2901FF010D05A9
:10040000013945654901FF010101010101010101B6
:10041000010101010101010101FF010101010101CE
:1004200001010101010101010101010101010101BC
:10043000FF01010101010101FF01010101010101B0
:10044000FF01010101010101FF01010101010101A0
:10045000FF01010101010101FF0101010101010190
:10046000FF01454541414101FF0115151541E1419C
:10047000FF01413905551D01FF0101010111097DF0
:10048000091101010101FF0000000000000000004F
:10049000000000000000000000FF0000000000015C
:1004A0000101010101010101FF010101010101013E
:1004B000FF010101010101010101FF010101010130
:1004C000010101010101010101010101FF0101011E
:1004D00001010101FF01010101010101010101010E
:1004E00001010101010101010101FF0111397D112A
:1004F00011111101FF012161FD612101FF011111A4
:1005000011117D391101FF00000000000000000002
:10051000000000000000000000FF000000000001DB
:10052000057D057915797D552901FF017D454565D5
:100530007D01FF013D413D413D01FF017D55555587
:100540004501FF017D1515156D01FF0105057D05AF
:100550000501FF01050971090501FF017D414141C7
:100560007D01FF0145457D454501FF017D4545452F
:100570007D01FF017D1515151D01FF0111397D114B
:10058000111111111101FF00000000000000000016
:10059000000000000000000000000000000000015A
:1005A0007D454501791579017D151D01FF017915FD
:1005B00015157901FF014D5555556501FF017D4523
:1005C00045453901FF017D1515150501FF017D45E3
:1005D00045557501FF017D1111117D01FF0141415B
:1005E00041417D01FF017D1111294501FF017D413F
:1005F00041414101FF01652101014501FF0111391F
:100600007D1111111D01FF01010101010101010114
:10061000010101010101010101FF010101010101CC
:100620005D5575017D117D017D150501057D050176
:10063000FF014565554D4501FF014529112945013A
:10064000FF017D4545454501FF010D3141310D015A
:10065000FF017D5555552901FF017D0911217D01BE
:10066000FF017D057D057D01FF010D051129450176
:10067000FF01090145291101FF0101010111097D56
:10068000091101010101FF0000000000000000004D
:10069000000000000000000000FF0000000000015A
:1006A0007D454501057D0501FF016D6D016D6D0104
:1006B000FF0179157901057D0501FF015D55750182
:1006C0007D151D017D4545017D554501FF017D05D8
:1006D00015150501FF01017D05050579017D4141E4
:1006E000417D017D057D05790101FF0111397D11F4
:1006F00011111101FF012161FD612101FF011111A2
:1007000011117D391101FF00000000000000000000
:10071000000000000000000000FF000000000001D9
:10072000057D057915797D552901FF017D454565D3
:100730007D01FF013D413D413D01FF017D15151545
:100740000501FF017D1515151D01FF017D4545556D
:100750007501FF01414141417D01FF017D41414161
:100760004101FF017D4141417D01FF010509710901
:100770000501FF01652101014501FF0111397D11CD
:10078000111111111101FF00000000000000000014
:100790000000000000000000000000000000000158
:1007A00011397D111111111111111101FF0179156B
:1007B00015157901FF017D1515156D01FF014D55C9
:1007C00055556501FF0105057D050501FF017D45C5
:1007D00045453901FF017D1111117D01FF017D09A1
:1007E00011217D01FF017D5555554501FF0145450D
:1007F0007D454501FF017D4545457D01FF011139DD
:100800007D1111111D01FF01010101010101010112
:10081000010101010101010101FF010101010101CA
:100820005D5575017D117D017D150501057D050174
:10083000FF014565554D4501FF0145291129450138
:10084000FF017D4545454501FF010D3141310D0158
:10085000FF017D5555552901FF017D1111294501E4
:10086000FF017D057D057D01FF010D051129450174
:10087000FF01090145291101FF015D5575017D1534
:100880001501057D0501FF000000000000000000CB
:10089000000000000000000000FF00000000000158
:1008A0007D454501057D0501FF016D6D016D6D0102
:1008B000FF0179157901057D0501FF015D55750180
:1008C0007D151D017D4545017D554501FF017D05D6
:1008D00015150501FF01017D05050579017D4141E2
:1008E000417D017D057D05790101FF0179157901C2
:1008F000057D0501FF016D6D016D6D01FF017D45F8
:100900004501057D0501FF0000000000000000001A
:10091000000000000000000000FF000000000000D8
:1009200000000000000000000000000000000000C7
:1009300000000000000000000000000000000000B7
:1009400000000000000000000000000000000000A7
:100950000000000000000000000000000000000097
:100960000000000000000000000000000000000087
:1009700000000000000000000000404040404040F7
:10098000C0F0FC7E4E40404040404000183C3C1CC3
:100990000000000000000000000000000000000057
:1009A0000000000080C0E0F0F0300000C060F0F017
:1009B000F0300080C020F0F0F02000000000008047
:1009C000C0E0703018B8F8F00000000000DC7E3F96
:1009D000BEF0F0E000000000000080C0E0701018E1
:1009E00018F8F06000000000C060F0F8F830000077
:1009F0000080E0F0F8F8300000000080E0F0FCFF3C
:100A00003F0F0100000080C0E0F0F8780000000017
:100A10000080C060309040203070E0C000000000D6
:100A2000180C06C3F9FE3FC7711806C3F07C1FC738
:100A3000711806C3F8FE3F0F0180C0F0F8FEDF47D3
:100A4000636030381E0F0781402018060381F0FCD8
:100A50007F1F0780C0E0F8FC3E0F0301000000008C
:100A600003018060100806E3FCFF3F0701C0308CE3
:100A7000E3FF7F1F0380C030188CE3F9FF3F0701BD
:100A800080C030180CC3F1FC7F0F0380C0F0FCFE67
:100A90003F0701003EC18080E0FC3F8F4000000026
:100AA00000383F3F1F07030000383E3F1F0E030082
:100AB00000307F7F3F190C0603010F1F3F716060FC
:100AC0007030180804020100000000387E7F3F3BB0
:100AD00018040301000F1F312020202010180804E3
:100AE00002010000001C3F7F7F31180603183E3FC3
:100AF0003F1B0804020100001E3F3F3F1008040294
:100B0000010000183E3F3F190C060301000F1F3182
:100B100060606030181C0F07030101000000003AFC
:100B2000486F7741626F75744E6F333A3A486F770A
:100B300041626F75744E6F340A003A486F774162B4
:100B40006F75744E6F313A3A486F7741626F7574C2
:100B50004E6F323A00645D14001A00090013000A57
:100B6000000D002A00040015001600170007000BF6
:100B700000E1003800E4001B00060019000500E059
:100B800000E200E700E6002C0003510251000012D1
:100B900000655D33001C0018000F000000E3002A10
:100BA0000028000C000800110000001D00E50037BF
:100BB00000360010000E00645D14001A00080015D5
:100BC0000017001C00390004001600070009000A85
:100BD000000B00E10038004F001B00060019000563
:100BE00000E000E200510050002C000351025100CF
:100BF000003300655D130012000C0018000000E3D4
:100C0000002A0028000F000E000D0000001D0052F9
:100C100000370036001000110029001E001F0020C0
:100C200000210022002300010001000100350064C2
:100C30000001000100010001004F0001000100015E
:100C400000010001000100510050000100010001FD
:100C500000000032000100270026002500240000CB
:100C60000001004C003400010030002F00000001A2
:100C700000520038002E002D00010029003A003BF0
:100C8000003C003D003E003F0001004600B280B342
:100C9000804400B08001000100010001001AA21B85
:100CA000A22B000100010001002B5D0100010001E9
:100CB00000010000004700010043004200410040E5
:100CC00000000001009E8D005C0100665D45000093
:100CD0000001000100530001000100635D000000FD
:100CE00000000000002A2B28000000000000000087
:100CF000000000000000000029000000002C1E344D
:100D000020212224342627252E362D3738271E1F52
:100D1000202122232425263333362E37381F04057D
:100D2000060708090A0B0C0D0E0F101112131415EB
:100D3000161718191A1B1C1D2F3130232D350405C9
:100D4000060708090A0B0C0D0E0F101112131415CB
:100D5000161718191A1B1C1D2F3130354C000000B6
:100D60000000000000000000000000000000000083
:100D70000000000000000000000000000000000073
:100D8000007E0F00D4FFFFFFC70000007800AE0018
:100D9000AF00DA02815FD9F1DB20A4A62EAF00A05C
:100DA000C000A1C800AED580A81FD300408D14207C
:100DB0000009023B00020100A0FA0904000001033F
:100DC0000101000921010100012240000705810302
:100DD00008000509040100010300000009210101C8
:100DE0000001227B000705830308000512011001A2
:100DF00000000008776D03170001010200011203D3
:100E00004D006500720063007500740069006F009A
:100E1000000012034D006500630068005700690080
:100E20006C00640000000403090405010902A1012B
:100E300085020901A10005091901290815002501EC
:100E40009508750181020501093009311581257F59
:100E500095027508810609381581257F9501750869
:100E60008106050C0A38021581257F9501750881D8
:100E700006C0C005010980A101850319012AB70038
:100E8000150126B700950175108100C0050C0901F8
:100E9000A101850419012AA002150126A0029501CD
:100EA00075108100C005010906A101050719E02997
:100EB000E7150025019508750181029501750881E6
:100EC000030507190029FF150026FF009506750880
:100ED0008100050819012905950575019102950103
:100EE00075039103C00011241FBECFEFD8E0DEBF11
:100EF000CDBF04B603FE27C08091BA059091BB0513
:100F0000A091BC05B091BD058730904BA740B04B78
:100F1000D1F41092BA051092BB051092BC05109244
:100F2000BD0514BE84B7877F84BF0FB6F894A8951B
:100F300080916000886180936000109260000FBE15
:100F4000E0E0F8E3099511E0A0E0B1E0E6E6FAE5BB
:100F500002C005900D92AE3BB107D9F725E0AEEB8C
:100F6000B1E001C01D92AA3BB207E1F70E946D1CDF
:100F70000C94132D0C940000A82FB92F80E090E062
:100F800041E050EA609530E009C02D9182279795A5
:100F9000879510F084279527305EC8F36F5FA8F31C
:100FA0000895EADF8D939D930895CF93CFB7CF93A4
:100FB000DF93C3954B9BE9F74B9B10C04B9B0EC037
:100FC0004B9B0CC04B9B0AC04B9B08C04B9B06C065
:100FD000C0919105C395C09391058EC06F93C09148
:100FE0009005DD27C856DA4F2F9365E54B9B03C06C
:100FF0002F916F91E1CF0F931F934F9320E040E12A
:101000005F9309B10C7003FB27F93F9350E03BE07D
:1010100039C01C7040642F77012F5F5F1EC040688D
:1010200019B11C702F7752501FC0406409B12F773F
:101030000C70D1F15F5F00C023C0406219B12F77FF
:101040001C7091F15F5F00C025C00C7010275150DB
:1010500012F45D5F0000115027952C3F19B1C8F6BE
:101060001C700127015027952C3FC8F64227499351
:1010700009B10C7010274F73115027952C3FA8F61B
:101080004695469519B11C7079F0012701502795B6
:101090002C3F98F66B5A60F3315009B1B0F600C09E
:1010A00012E01CBB00271CC03B503195C31BD04035
:1010B00012E01CBB0881033C21F10B3411F120919B
:1010C0008D051981110F1213EDCF4A81441F093686
:1010D00079F10D3211F0013E29F74F7009F0042F1C
:1010E000009396053F915F914F911F910F912F9122
:1010F0006F91CCB3C1FD5DCFDF91CF91CFBFCF91C9
:10110000189520919605222369F3109194051123D7
:1011100009F049C034300AF448C030939405209354
:101120008F05109190053BE0311B309390053DC039
:10113000009194050130BCF50AE54F7049F43091F7
:10114000340134FD33C000933401CAE6D5E032C027
:10115000433059F0443091F03091750534FD26C08C
:1011600000937505C6E7D5E025C03091AE0534FD86
:101170001DC00093AE05CFEAD5E01CC030918105BB
:1011800034FD14C000938105C2E8D5E013C00527E3
:1011900010E000C000000BB91AC0052710E0221FA4
:1011A0001DC010E021C04AE502C032ED432FC4E16A
:1011B000D0E032E01AB11C605B9A0BB11AB95CE066
:1011C00020E865E320FF05270BB9279517951C3FFD
:1011D000F0F66695B8F7B1F720FF05270BB927950C
:1011E00017951C3FD0F62795179517FF0527000088
:1011F0001C3F0BB9B0F629913A9519F7037F10916E
:101200009505110FC651D0400BB911F010938D0503
:1012100012E01CBB08601AB1137F402F437F54E0DB
:101220005A95F1F70BB91AB94BB95CCF60E080E081
:101230000E94291F60E870E081E890E00C94401F54
:10124000CF93FB01813E910509F449C0E8F4803554
:10125000910509F464C040F48F34910509F477C016
:10126000C1E08C2FCF9108958135910509F463C0B9
:1012700082359105A9F7C281CC2309F44CC081E0E5
:101280008093C50182E532C084362DE5920709F4CA
:101290006AC0B8F4823E910591F183369D4501F70D
:1012A000C281CC23F1F28AE39BE00E94B00D88E278
:1012B00092E00E94100C8FE19BE00E94B00DC0E014
:1012C000D0CF85362DE5920709F48EC086369D4530
:1012D00039F6C281CC2329F20E948F11F0CFC2814E
:1012E000CC2339F081E08093C70181EE0E945D0E2E
:1012F000E6CF1092C70181EE0E94EF0EB2CFC281FD
:10130000CC2329F081E08093C60182EEEFCF1092CA
:10131000C60182EEF1CF1092C50182E5EDCFC28108
:10132000CC2329F081E08093C40180E5DFCF1092C7
:10133000C40180E5E1CFC281CC2329F081E0809314
:10134000C30181E5D3CF1092C30181E5D5CFC2811E
:10135000CC2329F081E08093C2018FE4C7CF1092A3
:10136000C2018FE4C9CFC281CC23F1F0E09100012A
:10137000F0910101808182FF15C081FF0BC081E0E7
:101380008093C80181EE0E94EF0E82EE0E94EF0E64
:1013900085E3ACCF82E08093C80182EE0E94EF0E1D
:1013A00089E2A4CF8BE2A2CF8091C8018130A1F461
:1013B00085E30E94EF0E8091C701882319F081EE2A
:1013C0000E945D0E8091C601882319F082EE0E9472
:1013D0005D0E1092C80145CF823021F489E20E944F
:1013E000EF0EF0CF8BE288CFC281CC2309F439CF46
:1013F000E0910001F09101018081982F987821F40B
:101400009091C201992329F0827239F082EF0E94F3
:101410005C0F88EA0E945C0F52CF81EFF8CF8111F8
:101420006DC08091C101E0910001F09101019081B6
:10143000662309F47BC081110DC0292F227221F48B
:101440002091C501222331F081E08093C1010E94E7
:10145000351254C0392F3878292F2474311104C023
:101460004091C3014423E1F0211118C0927261F050
:101470008EEF0E945D0E68E770E08EEE0E94450FD1
:101480008EEF0E94EF0E3AC08FEF0E945D0E68E76C
:1014900070E08EEE0E94450F8FEFF3CF311106C042
:1014A0003091C201332391F0222391F0927239F0EE
:1014B0008EEF0E945D0E80EF0E945C0FE1CF8FEFF8
:1014C0000E945D0E80EF0E945C0FE6CF211104C0E8
:1014D0002091C4012223A1F08091C701882319F033
:1014E00081EE0E94EF0E8BE294E00E94100C80913E
:1014F000C701882319F081EE0E945D0E81E00895F6
:10150000917111F4332351F08091C701882319F0B0
:1015100081EE0E94EF0E8BE291E0E7CF813021F463
:1015200089EA0E945C0FEACF8AEFFBCF882349F05B
:10153000292F227221F42091C501222311F081501C
:1015400084CF392F3878292F2474311104C0409169
:10155000C301442381F021110CC0927229F08EEF57
:101560000E945D0E8DEEA8CF8FEF0E945D0E8DEE76
:10157000AACF311106C03091C201332371F022236A
:1015800071F0927229F08EEF0E945D0E8FEE94CF73
:101590008FEF0E945D0E8FEE96CF211104C0209137
:1015A000C401222329F08BE296E00E94100CA6CF02
:1015B000917111F4332319F08BE293E0F6CF81306F
:1015C00011F48AEAAECF89EFACCF82E00895CF93D1
:1015D0000E94F52780FD25C00E94F52781FD21C0CE
:1015E0000E94F52784709091C101892BD1F46091FC
:1015F000ED017091EE018091EF019091F0010E9458
:10160000BD0D81110EC060E00E94291F60E072E0F4
:101610008FE199E00E94401F81E08093C001CF914B
:1016200008958091C001882331F00E94CE1E0E944F
:10163000A51F1092C00160E080E00E94291F609108
:10164000ED017091EE018091EF019091F0010E9407
:10165000BD0D8130F9F0882339F0823001F18330FB
:1016600019F10E94160906C060E072E08FE197E070
:101670000E94401F8091C101813009F44CC0882331
:10168000C1F0823009F45AC0833009F460C00E946E
:10169000160919C060E072E08FE195E0E9CF60E0E3
:1016A00072E08FE193E0E4CF60E072E08FE191E0DF
:1016B000DFCF63E08DE10E94291F66E070E089E1E1
:1016C00091E00E94401F0E940128C82F81FF0AC09C
:1016D00060E08EE10E94291F68E070E089E790E0F9
:1016E0000E94401FC0FF0AC060E08CE10E94291FD9
:1016F00069E070E080E790E00E94401FC2FF8FCF5A
:1017000060E08AE10E94291F68E070E088E690E0CE
:10171000CF910C94401F62E08DE10E94291F66E08A
:1017200070E083E191E00E94401F63E08DE10E9440
:10173000291F66E070E08DE091E0C3CF62E08DE1AB
:101740000E94291F66E070E087E091E0BACF61E077
:101750008DE10E94291F66E070E081E091E0B1CF49
:101760009C013A9521153F4150F5FC01EE27F1709F
:10177000BC0166277270AC01442754709C0122277B
:10178000387094FF0EC080E1EF2B09F480E0672BE6
:1017900009F08062452B09F08064232B89F0806872
:1017A000089581E0EF2B09F480E0672B09F0826057
:1017B000452B09F08460232B19F08860089580E0A0
:1017C0000895CF93DF93EC010E94B00B9E01205E41
:1017D00031092830310510F0209739F40E94640F48
:1017E0008C2FDF91CF910C945D0E0E946B11F8CF7E
:1017F000CF93DF93EC010E94EF0ECE010E94B00B5D
:101800009E01205E31092830310510F0CD2B21F4E6
:10181000DF91CF910C946B0FDF91CF910C947211EB
:10182000CF93DF93EC010E94E10B8FE39CE90197DA
:10183000F1F700C00000CE01DF91CF910C94F80BBE
:1018400081E008950C94200908950C94240C1F93B2
:10185000CF93DF9300D000D00F92CDB7DEB749838E
:101860005A836B833091C90189819A8131111DC0DE
:101870006623B9F02223A9F00E943A13182F682F8B
:1018800089819A810E94E61269817A81812F0F9065
:101890000F900F900F900F90DF91CF911F910C94AC
:1018A000F8180E941213182FEFCF0E943A13698183
:1018B0007A81EDCFFC01262F4081518162817381B5
:1018C00084810C94270C81E00895CF93DF93EC0181
:1018D00060E00E945A0CBE01DF91CF910C94250C60
:1018E0000E94061B0E94110E0E94F8200C942B1BD4
:1018F0000C942E1B08950E948F110E947A0C2FEFDA
:1019000084E39CE0215080409040E1F700C000005B
:101910000C9458290F931F93CF93DF9300D0CDB72A
:10192000DEB78C0161E00E945A0C9A838983B8016A
:10193000CE0101960E94DE23811108C080E00F9045
:101940000F90DF91CF911F910F910895B801898178
:101950009A810E94220C882389F3B80189819A8197
:101960000E949921882351F3B80189819A810E94AC
:101970003822882319F3B80189819A810E948A222A
:101980008823E1F2B80189819A810E94B4238823D7
:10199000A9F2F8018281882349F089819A81811511
:1019A000FCE59F0739F08F3D9C4539F0C8010E9446
:1019B000200CC5CF0E947B0CC1CF0E94F417BECF74
:1019C000DF92EF92FF920F931F93CF93DF93E82F55
:1019D000F0E0E352F34FD490282F269526952695D4
:1019E00030E0F901E358F24F0491877010E0082EBF
:1019F00002C0159507950A94E2F701701127F901C5
:101A0000E359F24FE490F12C082E02C0F594E794CC
:101A10000A94E2F791E0E922FF24F901E35AF24F38
:101A2000C491D0E002C0D595C7958A95E2F7C17000
:101A3000DD270115110519F081EE0E945D0EE114FC
:101A4000F10419F086EE0E945D0E8D2D0E945C0F50
:101A5000EF2819F086EE0E94EF0E012B19F081EEAF
:101A60000E94EF0ECD2B51F08CE2DF91CF911F91B0
:101A70000F91FF90EF90DF900C945C0FDF91CF916E
:101A80001F910F91FF90EF90DF900895EF92FF92DA
:101A90000F931F93CF93DF938C01F62E8AE0E82EED
:101AA000F8018491882309F454C0813009F04DC0B5
:101AB000E8012196FE018491813091F42196FE0186
:101AC00084910E945C0F8E010F5F1F4F8F2D8150FC
:101AD00038F3EFE9FFE03197F1F700C00000F7CFEE
:101AE000823039F4E8012296FE0184910E945D0E55
:101AF000EACF833039F4E8012296FE0184910E94F6
:101B0000EF0EE1CF8430F9F6E8012296FE01249130
:101B100090E080E0FE0131962053330B2A303105EE
:101B200048F0019780F2EFE9FFE03197F1F700C04C
:101B30000000F7CFE89EA001E99E500D1124C901D5
:101B4000840F951F2491EF01E5CF0E94E00CE8017E
:101B5000BACFDF91CF911F910F91FF90EF90089531
:101B600060E00C94460D982F9F709A50963018F0B4
:101B7000805D0C94E00C895AFCCFCF92DF92EF92FB
:101B8000FF926C01EE24FF2420E0C114D104E10493
:101B9000F10419F0C701B60120E1C72ED82EE92EB5
:101BA000FF24C114D104E104F10419F0285FC70136
:101BB000B6016B017C0154E0F694E794D794C79486
:101BC0005A95D1F7C114D104E104F10419F02C5F46
:101BD000C701B6016B017C0142E0F694E794D7940B
:101BE000C7944A95D1F7C114D104E104F10419F066
:101BF0002E5FC701B6019695879577956795672BF8
:101C0000682B692B09F02F5F822FFF90EF90DF90F8
:101C1000CF90089508950C940A0E81E008950C94D5
:101C20000D0E0895CF93C82F0E940B0E8C2FCF91CD
:101C30000C940F0ECF93DF93CDB7DEB72B970FB673
:101C4000F894DEBF0FBECDBF4F83588769877A8770
:101C50008B8761110E9436171E821D8285E0FE016E
:101C60003796DE01119601900D928A95E1F78C81ED
:101C70009D81892B89F449815A816B817C818D8179
:101C80009E810E9446162B960FB6F894DEBF0FBEBB
:101C9000CDBFDF91CF91089589819A8189238F3FAC
:101CA00051F3CE0101960E94630C8111E4CFEBCF7A
:101CB000FC01808191810C947C13CF93C82F8823E1
:101CC00009F48BC08238C1F40E94F52781FD85C0DC
:101CD00089E30E94E0160E94F4162FEF81EE94E053
:101CE000215080409040E1F700C0000089E30E944D
:101CF000E716CF910C94F4168338A1F40E94F527CF
:101D000080FD6BC083E50E94E0160E94F4162FEF61
:101D100081EE94E0215080409040E1F700C0000047
:101D200083E5E5CF8438A1F40E94F52782FD55C0F4
:101D300087E40E94E0160E94F4162FEF81EE94E0F3
:101D4000215080409040E1F700C0000087E4CFCFF1
:101D50008CEF8C0F813A90F46C2F80910001909160
:101D600001010E944928882329F08C2F0E94E71640
:101D70000E94F4168C2F0E94E016BBCF80E28C0FDD
:101D8000883048F4C77081E001C0880FCA95EAF72F
:101D90000E941617AECFEBE5EC0FE33040F4F0E015
:101DA000ED59FE4F808190E0CF910C941D28E8E51D
:101DB000EC0FE73150F4F0E0EE0FFF1FEB5CFE4F4D
:101DC00080819181CF910C943328CD3E30F08C2FBF
:101DD0000E94EF1CCF910C94A71DCF9108958823EA
:101DE00009F452C0823871F40E94F52781FF4CC07B
:101DF00089E30E94E0160E94F41689E30E94E71628
:101E00000C94F416833859F40E94F52780FF3CC0E7
:101E100083E50E94E0160E94F41683E5EFCF843834
:101E200059F40E94F52782FF2FC087E40E94E01634
:101E30000E94F41687E4E2CF9CEF980F913AF0F2FB
:101E400090E2980F983050F4877091E001C0990F9C
:101E50008A95EAF7892F0E941C17D2CF9BE5980F2D
:101E6000933020F490E080E00C941D2898E5980FC2
:101E7000973120F490E080E00C9433288D3E20F0E0
:101E80000E94441D0C94A71D08951F93CF93DF93C8
:101E9000182FEB010E945D0E209731F4812FDF9106
:101EA000CF911F910C94EF0E8FE99FE00197F1F70E
:101EB00000C000002197F0CF6AE070E0893311F490
:101EC00060E570E00C94450F882321F00E941617FE
:101ED0000C94F4160895882321F00E941C170C948A
:101EE000F41608958F929F92AF92BF92CF92DF9295
:101EF000EF92FF920F931F93CF93DF93DC01C62FD6
:101F0000972F12962C91129715965C911597352F55
:101F100032953F70072F02950F7010E0F801EB5ECD
:101F2000F24D0C949C2CD72FDF70907F11F0D2953E
:101F3000D07F2223A9F0DD2359F080E28C0F883076
:101F400010F0C11109C08D2F0E9416170E94F416BF
:101F50008C2F0E945D0E14C08D2F0E942917F6CF82
:101F60008C2F0E94EF0EDD2359F080E28C0F883019
:101F700010F0C1111BC08D2F0E941C170E94F41677
:101F8000085011090430110508F065C10E94F527B9
:101F9000DF91CF911F910F91FF90EF90DF90CF9045
:101FA000BF90AF909F908F900C94120E8D2F0E9437
:101FB0002F17E4CF872F8F70907F903211F082958A
:101FC000807FC13061F4222329F03630C8F60E94A8
:101FD000640FD6CF3530A0F60E946B0FD1CF2223ED
:101FE00041F03323A1F350FFB3CF5F7015965C939C
:101FF000EECF332389F3C93309F017C12FEF87EEF2
:1020000093E0215080409040E1F700C000008C2F09
:102010000E94EF0EB5CF872F86958695837061F06D
:10202000813009F0ADCF862F9370211102C090E06E
:1020300080E00E943328A4CF862F9370211102C024
:1020400090E080E00E941D289BCF862F222329F05C
:102050000E94EF1C0E94A71D93CF0E94441DFACF3F
:10206000872F837009F045C021118ACF862F829572
:1020700086958770880F880F6F70862E912CB12CF3
:10208000A12C082E04C0880C991CAA1CBB1C0A9405
:10209000D2F7C12CD12C7601C4FF10C03FE0C32E73
:1020A000D12CE12CF12C04C0CC0CDD1CEE1CFF1C4F
:1020B0008A95D2F7C094D094E094F094492F469535
:1020C00046954370C701B601682979298A299B2959
:1020D000423049F058F4413019F00E94FC1150CFC1
:1020E0000E94EA114DCF0E940E124ACF0E94E811C1
:1020F00047CF8695222311F0872F8170882309F41A
:102100003FCF8C2F829586958770880F880F6C2F14
:102110006F70862E912CB12CA12C082E04C0880C37
:10212000991CAA1CBB1C0A94D2F7C12CD12C760195
:10213000C4FF10C02FE0C22ED12CE12CF12C04C022
:10214000CC0CDD1CEE1CFF1C8A95D2F7C094D094F9
:10215000E094F094492F469546954370C701B60127
:10216000682979298A299B29423049F058F441305D
:1021700019F00E94C11204CF0E94AF1201CF0E9439
:10218000D312FECE0E942412FBCED72FDF70222363
:1021900029F08D2F0E944A128C2F19CF862F0E9472
:1021A0006B0F8D2F0E946B12EBCE613F19F148F43B
:1021B000603F91F0222369F13111CACE892F8F71CE
:1021C0001DC0623FF1F0633FA9F72223F9F0872F8A
:1021D0008F710E943512D4CE222341F0353008F0A1
:1021E000CFCE892F8F710E948E12CACE363008F062
:1021F000C7CEF7CF872F8F712223A1F20E944A12F8
:10220000BFCE872F8F712223C9F3CCCF0E9430120B
:10221000B7CE332379F0C93341F49FEF27EE83E043
:10222000915020408040E1F7F0CE8FE39CE9019788
:10223000F1F7EBCE892F8F71B5CF472F4F70CD01BE
:102240000E94F4180E94AA139BCE472F4F70CD0115
:102250000E94F71895CEDF91CF911F910F91FF90BB
:10226000EF90DF90CF90BF90AF909F908F900895A8
:102270000F931F93CF93DF93EC01688179818A815B
:102280000E9486138C010E94E5120E94E711B8019A
:10229000CE01DF91CF911F910F910C94720FCF93CC
:1022A000DF93EC018B819C81892B29F088819981B6
:1022B00089238F3F19F4DF91CF910895CE010E94B9
:1022C0008A0C8823C1F3CE010E943811CE01DF9120
:1022D000CF910C94650C882321F00E9429170C944F
:1022E000F4160895882321F00E942F170C94F416F9
:1022F000089590E080E00E941D2890E080E00E9418
:1023000033280E9436170E9446170E94F4160E9436
:102310003C1E0C94A71D0E94EE160C9479110E948D
:1023200026170C948B11E92FE295EF70E250EE30F6
:1023300070F4F0E0EB5DF24D0C949C2C803F19F0B2
:1023400020F4883E20F481E00895843FE1F380E0AA
:102350000895883EC0F3813FD1F7F5CF93FB8827DE
:1023600080F90895FC01808191810E947C130C9476
:102370009311CF93DF9300D000D00F92CDB7DEB78B
:102380000F900F900F900F900F90DF91CF910895C5
:10239000CF93DF9300D000D000D0CDB7DEB7269624
:1023A0000FB6F894DEBF0FBECDBFDF91CF91089579
:1023B00008950C94D8110E94D9116093F101709383
:1023C000F2018093F3019093F4010C947911089534
:1023D0000C94DB110F931F930091F1011091F20106
:1023E0002091F3013091F401602B712B822B932B00
:1023F0001F910F910C94DB110F931F930091F1012A
:102400001091F2012091F3013091F40160237123C6
:10241000822393231F910F910C94DB110F931F9331
:102420000091F1011091F2012091F3013091F4013A
:1024300060277127822793271F910F910C94DB113E
:102440000C94D8110C9420120E9422126093ED017A
:102450007093EE018093EF019093F0010C94791149
:1024600060E070E0CB010C9424120F931F9341E0C5
:1024700050E060E070E08A019B0104C0000F111F72
:10248000221F331F8A95D2F7C901B8011F910F91FE
:102490000C9424120F931F9341E050E060E070E031
:1024A00004C0440F551F661F771F8A95D2F780918D
:1024B000ED019091EE01A091EF01B091F0018A0140
:1024C0009B01082B192B2A2B3B2BC901B8011F910B
:1024D0000F910C9424120F931F9341E050E060E0A1
:1024E00070E004C0440F551F661F771F8A95D2F70E
:1024F000CB01BA0160957095809590950091ED01A2
:102500001091EE012091EF013091F00160237123D1
:10251000822393231F910F910C9424120F931F93E6
:1025200041E050E060E070E004C0440F551F661FBA
:10253000771F8A95D2F78091ED019091EE01A091DD
:10254000EF01B091F0018A019B01082719272A2782
:102550003B27C901B8011F910F910C9424120F93CE
:102560001F930091ED011091EE012091EF01309148
:10257000F001602B712B822B932B1F910F910C94E8
:1025800024120F931F930091ED011091EE01209101
:10259000EF013091F00160237123822393231F9177
:1025A0000F910C9424120F931F930091ED01109141
:1025B000EE012091EF013091F00160277127822711
:1025C00093271F910F910C942412089527E0929F56
:1025D000800D1124982F977041E001C0440F9A9507
:1025E000EAF786958695869595E0899FF0011124F6
:1025F000E653FE4F90E080E070E05191DF011197CB
:102600009B01082E02C0369527950A94E2F72170A7
:1026100021952527242325272C9301968530910584
:1026200061F7089527E0929F800D1124982F9770ED
:1026300086958695869525E0829FF0011124E653C4
:10264000FE4F50E040E080E0219130E0092E02C0D2
:10265000369527950A94E2F721703327042E01C09E
:10266000220F0A94EAF7822B4F5F5F4F45305105E6
:1026700059F70895BF92CF92DF92EF92FF920F9396
:102680001F93CF93DF938C01C090ED01D090EE01AA
:10269000E090EF01F090F0018091F1019091F20152
:1026A000A091F301B091F401C82AD92AEA2AFB2AA1
:1026B000CFE1D0E0BC2ED701C6010C2E04C0B695E8
:1026C000A795979587950A94D2F780FD0EC021971C
:1026D00088F7B12C8B2DDF91CF911F910F91FF9037
:1026E000EF90DF90CF90BF900895B8018C2F0E949B
:1026F0000E1A019761F3EECFCF93DF93EC010E94A6
:102700003A13BE01DF91CF910C940E1A1F93CF9311
:10271000DF93EB019091C901992331F0CB01DF9157
:10272000CF911F910C947C13882379F0CB010E94E8
:102730003A13182F682FCE010E94E612BE01812F96
:10274000DF91CF911F910C940E1ACB010E941213AE
:10275000182FF4CFEF92FF920F931F93CF93DF9335
:102760008C01892B81F0F12CEE24E394E801219671
:10277000F8018491843770F4843008F05FC08130B0
:10278000B1F08230A1F1DF91CF911F910F91FF90B5
:10279000EF900895853709F44CC008F43DC09CE7DC
:1027A000980F903780F78F770E94EF0E49C00E5F29
:1027B0001F4FFE01849190E2980F983060F487706B
:1027C000FE2D01C0FF0F8A95EAF78F2F0E9439175F
:1027D0000E94F41602C00E945D0E8F2D815030F2CF
:1027E000EFE9FFE03197F1F700C00000F7CF0E5F8F
:1027F0001F4FFE01849190E2980F983050F487703B
:10280000FE2D01C0FF0F8A95EAF78F2F0E943F1718
:10281000DFCF0E94EF0EE1CF0E5F1F4FFE01C4918C
:10282000C150D8F28FE99FE00197F1F700C0000096
:10283000F7CF0E5F1F4FFE01F490CFCF0E945D0EC9
:102840008E01CBCF1F93CF93DF93C091F50116E09C
:102850008091F6018C1304C0DF91CF911F910895F0
:10286000D0E01C9FF0011D9FF00D1124E950FE4F98
:102870004081518162817381848195810E94C81158
:102880002196C770E5CF40912702509128026091B0
:10289000290270912A0280912B0290912C020C94B3
:1028A000C8111F93CF93DF9380912C02807FA9F4EE
:1028B00080912902882389F08091F501C091F60169
:1028C0006091270270912802A0912A02B0912B02F8
:1028D000D62FD72316E0C81304C0DF91CF911F91E4
:1028E000089590E0109711F0DF3F19F4019687707A
:1028F000F2CF189F9001199F300D1124F901E95072
:10290000FE4F41814713F2CF40814613EFCF428102
:102910004111ECCF438154814A1B5B0B483C51056C
:1029200028F780912C028F70806180932C02F9012E
:10293000E450FE4F80818F708061808387E292E057
:102940000E944F11DF91CF911F910C942214AF92EE
:10295000BF92CF92DF92EF92FF920F931F93CF938C
:10296000DF93CDB7DEB761970FB6F894DEBF0FBE29
:10297000CDBF8C0185E0F801DE011D9601900D921E
:102980008A95E1F7F801E28087E2C82E82E0D82E2E
:1029900060912A0270912B026115710509F45AC1E8
:1029A0009091270220912802892F82238F3F09F4DA
:1029B00051C140815181A380B480F0902902F5017A
:1029C000E61BF70BFF2009F4F6C080912C02382F8C
:1029D000307FE83CF10508F0AFC0311179C0FE2C22
:1029E000251323C0941321C0E1101FC08F70806194
:1029F00080932C020E944314C6010E944F118091C3
:102A00002C02F80185838F2D61960FB6F894DEBFF6
:102A10000FBECDBFDF91CF911F910F91FF90EF902F
:102A2000DF90CF90BF90AF900895AB2829F0842F0E
:102A300085238F3F09F027C180E0F82FF170DF2E4A
:102A400080FF3CC08091F5012091F60136E08213B1
:102A500015C04D875E878D859E850E947C13292F2A
:102A600022952F702230F0F0243018F59F70F1F08D
:102A7000F8019581907FD1F4D12C1EC090E0389F51
:102A8000F001399FF00D1124E950FE4F618165136B
:102A900006C06081641303C06281E6120FC0019614
:102AA0008770D5CF9F7011F0882331F3805E883016
:102AB00018F3C8010E944F11FD2CA5CFEE2009F498
:102AC000A2CF80912C02816080932C02F12C9BCFAD
:102AD000251306C0941304C0F801EE2009F487C042
:102AE000C8010E94B211882319F1EE2009F18091EA
:102AF0002C02803270F02091270230912802388712
:102B00002F831986BB86AA868C87CE0107960E94E2
:102B10004F1186E0F801A7E2B2E001900D928A958C
:102B2000E1F70E9451140E944314FF24F3946BCFE9
:102B3000C8010E944F11F9CF311113C07A2DB98A03
:102B4000A88A6E2D89890E94B91187E292E00E94BD
:102B50004F1186E0F60111928A95E9F70E9443141D
:102B6000B5CF25130FC094130DC0E1100BC0F801B1
:102B70008583C8010E944F1186E0F60111928A9563
:102B8000E9F741CFC8010E94B211882389F2EE20F3
:102B900079F280912C02803208F4BBCF2091270279
:102BA000309128023A8329831B82BD82AC828E83B6
:102BB000CE010196ACCFE83CF10508F03EC0FE2CFA
:102BC000EE2009F4B5CF25132AC0941328C08091B4
:102BD0002C0280FD1BC0982F907FC1F0F8018583E7
:102BE000903F31F0982F907F905F8F70892B858375
:102BF000C8010E944F1186E0F801A7E2B2E00190FF
:102C00000D928A95E1F70E944314FDCE86E0F8010B
:102C1000A7E2B2E001900D928A95E1F7F4CEC801E7
:102C20000E94B211811175CF80912C028160809336
:102C30002C02C8010E944F11E6CE7A2DB98AA88ACB
:102C40006E2D89890E94B91186E0F60111928A954C
:102C5000E9F7D9CFEE2009F46BCFC8010E94B21179
:102C6000F82E882309F464CF86E0F801A7E2B2E0E9
:102C700001900D928A95E1F787E292E00E94580E4A
:102C80000E945114C0CF81E08E25D7CE1F93CF93E1
:102C9000DF93CDB7DEB72C970FB6F894DEBF0FBE2B
:102CA000CDBF4F83588769877A878B879C87CE01F2
:102CB00007960E94A714882369F08A859B85892B33
:102CC00039F04F815885842F85238F3F09F071C0DB
:102CD00016E05FC086E0FE013796DE011196019096
:102CE0000D928A95E1F78A859B85892B89F38F81DF
:102CF000988589238F3F61F32091F60130E0C90167
:102D00000196877099274091F5014817190671F4CB
:102D10000E948F111092F6011092F50186E0E7E211
:102D2000F2E0DF011D928A95E9F7D2CF96E0929FFB
:102D3000D001939FB00D1124A950BE4FFE013196D2
:102D400001900D929A95E1F78093F6010E9422146A
:102D5000BFCF819FC001112489509E4F0E94A714AC
:102D60008823E9F0E091F5011E9FF0011124E9505C
:102D7000FE4F4081518162817381848195810E94DF
:102D8000C8118091F50190E0019687709927809392
:102D9000F5018091F5019091F6018913DACF2C9617
:102DA0000FB6F894DEBF0FBECDBFDF91CF911F915C
:102DB000089569857A858B859C850E94C81188CF86
:102DC000682F80910001909101010C947F28682F59
:102DD00080910001909101010C9481288091000163
:102DE000909101010C948328E0910001F091010180
:102DF000809137028083E0910001F0910101808190
:102E000090913602892B8083E0910001F0910101BD
:102E1000808190913502892B80838091000190916F
:102E200001010C9404288091370208959091370293
:102E3000892B8093370208958095909137029823CB
:102E400090933702089580933702089510923702C5
:102E5000089590913602892B8093360208958095CB
:102E6000909136029823909336020895109236027C
:102E7000089590913502892B8093350208958095AD
:102E8000909135029823909335020895109235025F
:102E900008956FEF7FEF90E080E00C94FD2C90E0C0
:102EA00080E00E94D92C21E0893E9E4F09F020E06D
:102EB000822F089582E090E00C94D12C83E090E082
:102EC0000C94D12CCF9384E090E00E94D12CC82F99
:102ED00082E290E00E94D12C982F8C2FCF91089500
:102EE000CF93C92F682F84E090E00E94DF2C6C2FD5
:102EF00082E290E0CF910C94DF2CAB01BC018FE01B
:102F000090E00C94F12CAB01BC0183E190E00C94B7
:102F1000F12C60E070E0CB010C94831760E070E06E
:102F2000CB010E947D170C94891769EE7EEF90E02B
:102F300080E00E94FD2C60E082E090E00E94DF2CA7
:102F400060E083E090E00E94DF2C1092F10110928B
:102F5000F2011092F3011092F40160E084E090E03D
:102F60000E94DF2C60E082E290E00E94DF2C60E0B3
:102F700085E090E00E94DF2C60E086E090E00E9417
:102F8000DF2C6FEF87E090E00E94DF2C40E050E004
:102F9000BA0188E090E00E94F12C60E08DE090E0C2
:102FA0000E94DF2C40E050E0BA0188E190E00E94EE
:102FB000F12C60E087E190E00E94DF2C40E050E0DF
:102FC000BA018CE190E00E94F12C70E060E080E2B8
:102FD00090E00E94FD2C40E050E0BA0188E190E0D2
:102FE0000E94F12C0C948E170C949517682F8EE08C
:102FF00090E00C94DF2C0E94192960934802709392
:10300000490280934A0290934B026093440270936A
:103010004502809346029093470208950E94192921
:10302000609348027093490280934A0290934B0246
:103030006093400270934102809342029093430256
:103040000895089508950C94211808950C94251856
:103050008CEE9AE10E946D290E9422180C9423188C
:1030600081E008950C943018089508950E94341852
:103070000C9435180E9404290E94DC1B80E00E94F9
:10308000E31E0E94461E0C9426189F92AF92BF9298
:10309000CF92DF92EF92FF920F931F93CF93DF9324
:1030A000CDB7DEB72A970FB6F894DEBF0FBECDBFFF
:1030B0000E94ED1BC82E81110E94FB1789E3A82EE8
:1030C00082E0B82E10E000E0902E802F0E94301B8E
:1030D000E82EF501F1905F01F81609F45CC08091CB
:1030E0004C0281FD0E94361B8F2D8E25D12CFF2492
:1030F000F394982F9F2109F449C00E943218882325
:1031000099F0DE829F82EF2081E009F480E08887D9
:103110000E940D298160782F9A8789874E815F816F
:1031200068858A850E941A0EF801E75CFD4F808150
:10313000F826F0820E94561E182F81110E940E1848
:103140000E94B720C11001C011110E94801F0E946F
:10315000C21D0E94F52790913802891799F10E94AB
:10316000F527809338022A960FB6F894DEBF0FBE7B
:10317000CDBFDF91CF911F910F91FF90EF90DF9026
:10318000CF90BF90AF909F900C94120ED394FF0CF1
:10319000F7E0DF12AECF0F5F1F4F0730110509F0C8
:1031A00093CF8FEF89838A831B820E940D298160D0
:1031B000782F9D838C8349815A816B818D810E94F8
:1031C0001A0EB8CF2A960FB6F894DEBF0FBECDBF49
:1031D000DF91CF911F910F91FF90EF90DF90CF90F3
:1031E000BF90AF909F90089590E080E0089508957B
:1031F000972F70E027E0929F600D711D1124FB0155
:1032000091E3899FE00DF11D1124EE0FFF1FEB5A92
:10321000F44F859194910895FC01EE0FFF1FE35741
:10322000F24F859194910895CF93DF930E94121AE3
:10323000EC01811520E4920708F043C0811530E3CA
:10324000930708F0B6C0803E910518F5803C9105C3
:1032500008F0ACC0883A910570F4853A910508F001
:103260009BC08130910501F10097F1F00497E0F4E3
:10327000D0E0C0E019C08F3B9105D0F7C85AD0E02C
:10328000CC0FDD1FCA59DE4F0990D881C02DD46400
:103290000BC08F3F910509F058F48D3E910508F061
:1032A00083C0883E910520F7CE01DF91CF9108952C
:1032B0009F70C11540E2D407B8F30E940C19EC01CD
:1032C000F3CFC11583E5D80760F5C11592E5D9079D
:1032D00008F080C0C11521E5D20708F076C0C115FD
:1032E00030E5D30708F46EC0CE0164E0969587956B
:1032F0006A95E1F783702C2F26952695237040E27E
:10330000249F90011124382B8C2F8370C1E0D0E0D2
:1033100002C0CC0FDD1F8A95E2F7C22BD32BDC68ED
:10332000C3CFC11549E5D407F0F4C11588E5D80726
:1033300008F061C0C11594E5D90708F099CFCE0116
:103340008370992721E030E002C0220F331F8A9555
:10335000E2F7C695C69590E2C99FE0011124C22B01
:10336000D32BDA68A1CFC1152AE5D20708F448C0EB
:10337000CE0190568115904208F07ACF8D2F8F7133
:103380000E94A91A90E0982F882788279F719C0196
:103390002C2BE901D06288CFC55AD0E0CC56DE4F45
:1033A000C881D0E0D06480CFD0657ECF805C9109A9
:1033B00084CF9927D3FF03C0EC01D86C75CFEC0103
:1033C000D06C72CFDF70D06A6FCFDC2FCC27C16F8B
:1033D000D06A6ACFCE018370992721E030E002C025
:1033E000220F331F8A95E2F7C695C69580E2C89FE3
:1033F000E001112492CFDC2FCC27C06FD06A54CFCC
:103400008C2F8F700E94A91A34E0D695C7953A95F3
:10341000E1F7CF709C2FEC01D06946CF0E94F818DD
:103420000C94141982389105B1F1B0F481339105EF
:1034300009F475C048F48932910509F469C08A32EB
:10344000910509F473C008958533910509F459C0B5
:103450008933910501F10895833E9105A9F138F46E
:10346000803E9105F9F0823E910549F10895863E2E
:103470009105A9F1873E9105C9F1843E910519F5A1
:1034800020914B0321FF1FC080914A0384FD14C08B
:1034900087EE90E0089520914A032370A1F080EE1A
:1034A00090E0089520914A0320FD47C030914B03DE
:1034B00030FF09C024FF44C090E080E004C02091A8
:1034C0004A0322FDF7CF089520914A0322FD3BC015
:1034D00030914B0330FDE3CF24FFF5CFEDCF2091AA
:1034E0004A0323FFF0CF24FDE7CFD2CF20914A0338
:1034F00023FD2CC030914B0331FFEECF84EE90E0E2
:10350000089520914A0325FFDECF89E290E00895D7
:1035100020914A0325FFD7CF85E390E008952091BD
:103520004A0326FFD0CF8AE290E0089520914A0313
:1035300026FFC9CF81E390E0089589E390E00895E4
:1035400083EE90E0089582EE90E0089586EE90E09C
:10355000089590914A0392FF06C0282F28712830C1
:10356000F9F4877F846093FF06C0282F28712831E3
:10357000F1F4877E846120914B0320FF06C0382F31
:1035800038713830D9F4877F816021FF06C0282F39
:1035900028712831D1F4877E816194FD877E08955A
:1035A000282F24712430F9F68B7F8860DCCF282FF8
:1035B0002471243101F78B7E8861DDCF382F317182
:1035C000313019F78E7F8860E0CF282F21712131AB
:1035D00021F78E7E8861E1CF80E008950C94491731
:1035E0000E94ED1B8FE39CE90197F1F700C00000FA
:1035F0000E94ED1B80E00E94301B80FF04C00E94EF
:10360000EE1A0C94582908950C94F01A0E944F1742
:10361000811102C00E94F4170E945A1780934C0235
:103620000E94621790934B0380934A030E94041BED
:103630000E945E17682F70E090E080E00E94E81121
:103640006091ED017091EE018091EF019091F00198
:103650000C94221208950C942A1B08950C942D1B8F
:10366000E82FF0E0ED5AFC4F80810895089580EA3C
:103670008A95F1F7089500C008950C94371BF894CB
:10368000E82FE295EF70F0E031A1282F2F7081E054
:1036900090E001C0880F2A95EAF7982F9095932320
:1036A00091A392A1892B82A378940895CF93DF935D
:1036B000CEE9D1E089918F3F11F00E943F1B81E05C
:1036C000C53AD807B9F7C7E9D1E089918F3F11F022
:1036D0000E943F1B81E0CE39D807B9F7DF91CF9127
:1036E0000895CF92DF92EF92FF920F931F93CF93A3
:1036F000DF93EC01D62E062F10E0C80182569E4FB4
:103700007C01FC0180818F3F09F44BC0F894E82FC5
:10371000E295EF70F0E091A18F7021E030E001C000
:10372000220F8A95EAF7892F822B81A382A1209507
:10373000282322A378940E943B1BE7E9F1E030E0C4
:1037400020E0C12C51E041914F3FA1F1A42FA2955F
:10375000AF70B0E090968C9190E04F7002C095955C
:1037600087954A95E2F780FD25C0852F022E01C07E
:10377000880F0A94EAF7C82A2F5F3F4F2730310598
:1037800011F7F70180818F3F11F00E943F1B61E02C
:10379000C11001C060E08D2D0E943D1BC00FD11FE4
:1037A000C882DF91CF911F910F91FF90EF90DF9032
:1037B000CF90089580E0DFCF0E94561BECE4F3E049
:1037C000A3E5B3E011921D9283E0E335F807D1F74A
:1037D00087E00E94361C0C94700CFF920F931F938D
:1037E000CF93DF9300D000D000D00F92CDB7DEB7DB
:1037F0008E010F5F1F4F87E0F80111928A95E9F75C
:10380000F12C6F2DC8010E94711BF394F7E0FF1299
:10381000F8CF47E050E0B8018CE493E00E94C42C5C
:10382000FF24F394009709F4F12C892B41F087E0F1
:10383000F801ACE4B3E001900D928A95E1F72F2DE9
:1038400047E063E573E08CE493E00E94371C0E943C
:10385000780C8F2D27960FB6F894DEBF0FBECDBF24
:10386000DF91CF911F910F91FF9008950895FF92DE
:103870000F931F93CF93DF93F82E092F162FD72F77
:10388000C42F222349F081E080934F020E940D292A
:1038900090934E0280934D0280914F028823A1F0B5
:1038A00080914D0290914E020E942529059760F06B
:1038B000EF2DF02FA12FBD2FCE0FDF2FD11DEC1735
:1038C000FD0741F410924F02DF91CF911F910F91AC
:1038D000FF90089581918D93F2CF0E948A280E94D3
:1038E00072290E9483290E94A3290E943618FBCFC7
:1038F0008091540290E0880F991FFC01E65EFE4F14
:103900002081865F9E4FFC0180819091570219169D
:1039100014F4209357029091570297FF04C0922FFE
:1039200091959093570290915802191614F4209390
:1039300058029091580297FF03C021952093580296
:1039400090915A02191614F480935A0290915A02D7
:1039500097FF04C0982F919590935A029091590225
:10396000191614F4809359029091590297FF03C0DD
:10397000819580935902309157023323A1F0209111
:103980005802222381F045EB3403C001112499230E
:10399000F1F09093570245EB240390011124332357
:1039A000D1F03093580240915A02442379F030917B
:1039B0005902332359F025EB4203A00111245093FF
:1039C0005A0232039001112430935902089581E084
:1039D00080935702E0CF81E080935802E4CF40917A
:1039E0005402242F30E0220F331FF901E65EFE4F10
:1039F00090818D3E21F491959093580208958E3ECA
:103A0000D9F38F3E21F49195909357020895803F0A
:103A1000D9F3265F3E4FF9019081893F19F49093C5
:103A2000590208958A3F11F49195F9CF8B3F21F403
:103A3000919590935A0208958C3FD9F39FE0980F87
:103A4000983070F4815F990B21E030E001C0220FC3
:103A50008A95EAF780915602822B80935602089548
:103A60008D3F49F481E080935402809154024817BD
:103A700051F00C94781C8E3F11F482E0F4CF8F3F0C
:103A800011F483E0F0CF08958D3E39F490915802FF
:103A900097FF09C01092580208958E3E81F49091CC
:103AA00058021916BCF38D3F08F450C0809154029F
:103AB00010925402882309F449C00C94781C8F3E5C
:103AC00039F49091570297FFEECF10925702089564
:103AD000803F29F4909157021916BCF3E4CF893F37
:103AE00039F4909159021916F4F61092590208957A
:103AF0008A3F29F49091590297FFD5CFF6CF8B3F9B
:103B000039F480915A0287FF21C010925A02089519
:103B10008C3F29F480915A021816BCF308959FE057
:103B2000980F983008F0BFCF815F990B21E030E00B
:103B3000A90102C0440F551F8A95E2F7CA0180957A
:103B400090915602892380935602089508950E9409
:103B50000D299C019091570280915802982B21F0D9
:103B600030935302209352029091590280915A024D
:103B7000982B21F0309351022093500285E592E07A
:103B80000C940F28EF92FF920F931F93CF93DF9324
:103B900000D000D000D0CDB7DEB786E0E5E5F2E09A
:103BA000DE01119601900D928A95E1F7E09057029F
:103BB000F09058020091590210915A021092570247
:103BC000109258021092590210925A028E2D8F298B
:103BD000B1F080915202909153020E942529E09108
:103BE0005402F0E0EE0FFF1FEE5EFE4F20813181A8
:103BF0002817390720F4E0925702F0925802802FDC
:103C0000812BB1F080915002909151020E942529A0
:103C1000E0915402F0E0EE0FFF1FEE5FFE4F2081B7
:103C200031812817390720F40093590210935A0262
:103C30008091570290915802892B90915902892BBB
:103C400090915A02892B11F00E94A71D86E0FE0177
:103C50003196A5E5B2E001900D928A95E1F726969E
:103C60000FB6F894DEBF0FBECDBFDF91CF911F918D
:103C70000F91FF90EF90089586E0E5E5F2E0DF0117
:103C80001D928A95E9F708950C940F0A24982C9AAE
:103C900025982D9A83B1829581701D9905C090E079
:103CA000892B80935D02089592E0FACFE0915D0246
:103CB000EE0FEE0FE0935D0243B144FB882780F9DD
:103CC00043B145FB222720F945FF02C022E030E046
:103CD000822BE82BE0935D02EF70F0E0EB55FE4F96
:103CE000808190915C02890F80935C0220E0843097
:103CF00054F080915B028F5F80935B0260E080E014
:103D00000E94441E21E080915C028D3F54F480911A
:103D10005B02815080935B0261E080E00E94441E60
:103D200021E080915C02082E000C990B64E070E0A9
:103D30000E94882C80935C02822F0895CF92DF929C
:103D4000EF92FF920F931F93CF93DF936C017B0150
:103D500064E670E088E70E94EF26EC0197FD12C050
:103D600010E000E0F601E00FF11F849164E670E0DE
:103D70000E946927EC01892B29F40F5F1F4F0E1554
:103D80001F0581F70E94EC27CE01DF91CF911F9193
:103D90000F91FF90EF90DF90CF900895EAE5F3E068
:103DA00080E092E0DF019C011D9221503040E1F75C
:103DB000F0935F05E0935E058FEF9FEF9093840291
:103DC0008093830208950E94E50A80937F0280FD1C
:103DD0000FC080E880937E020E94E9266DE070E0CB
:103DE00084EA9DE00E949E1E892B21F080E00895C8
:103DF00080E2F0CF80917F0263E070E081FD26C019
:103E000081EA9DE00E949E1E892B81F76DE070E0A3
:103E100081E99DE00E949E1E892B41F70E9419298D
:103E20006051754F8F4F9F4F60935A0570935B059C
:103E300080935C0590935D050E94CE1E81E0809387
:103E40008202809381021092800208958EE99DE0A3
:103E5000D9CF20917E0234E0839FC0011124629F5C
:103E6000800D911D1124811522E0920714F090E03D
:103E700080E0865A9C4F90935F0580935E0508957D
:103E8000CF93DF9320915E0530915F052A55334033
:103E9000A901460F571F4130524020F060E072E008
:103EA000621B730B4091830250918402FC01C90193
:103EB000620F731FC1E0D0E08617970738F0509368
:103EC000840240938302DF91CF9108952491DC0115
:103ED000A65ABC4F3C91321781F02C939C01A5E06F
:103EE00036952795AA95E1F7DE0102C0AA0FBB1F00
:103EF0002A95E2F79D014A2B532B01963196DCCF90
:103F000080918202811103C08091810208950E94F4
:103F100019296051754F8F4F9F4F60935A057093C9
:103F20005B0580935C0590935D0580918102811112
:103F3000EBCF62E070E08FE89DE00E949E1E892B2F
:103F400019F781E080938102DFCF2F923F925F9239
:103F50006F927F928F929F92AF92BF92CF92DF9299
:103F6000EF92FF920F931F93CF93DF938091820282
:103F7000882369F020918302309184022115310554
:103F800031F08091800261E070E0882399F0DF9148
:103F9000CF911F910F91FF90EF90DF90CF90BF9046
:103FA000AF909F908F907F906F905F903F902F90F9
:103FB00008958F5F082F10E01B01082E02C0220C0D
:103FC000331C0A94E2F7A90142215321452B89F3BE
:103FD00090917F0290FD44C08295880F80768093F7
:103FE000240198013695279536952795209327012A
:103FF000815E809325011092280124E630E047E09D
:1040000050E062E271E088E70E949827892B09F06E
:10401000BECFA80125E0440F551F2A95E1F78091F6
:104020007F0280FD2BC0465A5C4F04E610E020E280
:1040300030E060E488E70E94BF27892B09F0A7CF12
:104040000E94801FE101C095D095809183029091DC
:104050008402C823D923D0938402C093830297CFCC
:10406000880F880F880F8093240110922701895FA1
:104070008093250183E080932801BFCFEEE5F2E035
:1040800080E2DF011D928A95E9F7A9EBB1E005EB2B
:1040900011E08DEBC82E81E0D82E97E0592E7724C1
:1040A00073948D91E80129918E01240F352F311DD4
:1040B000265A3C4FE82FF0E0E25AFD4F90E080E0B6
:1040C000652C681A872C082E01C0880C0A94EAF720
:1040D0007901A12CE701B9907E01B820662D6A19FB
:1040E0006770962E062E000C770BDB2D01C0DD0FBE
:1040F0009A94EAF77195619571096770772701C005
:10410000B6946A95EAF7BD2A6081962E9B28908224
:10411000A39468E0A612DECF01963196883091050F
:1041200079F6CA16DB0609F0BCCF04E610E020E2FF
:1041300030E04EE552E07DCF809181029091820285
:10414000911103C091E089270895882369F062E006
:1041500070E08DE89DE00E949E1E892B19F08091F1
:10416000810208951092810280918102EBCF0F931A
:104170001F9380918202882319F160E080E00E9401
:10418000291F0E94E70A0E94A51F809181028823AF
:10419000B9F00E94192900915A0510915B052091F0
:1041A0005C0530915D05601B710B820B930B6F3FBB
:1041B0007F4F8F4F9F4720F41F910F910C949C20AD
:1041C0001F910F910895CF93DF93EC0197FF0CC0DF
:1041D000FB018281882341F00E941E21CE019F773E
:1041E0000E947E210E945F2181E0DF91CF9108959E
:1041F0008CE090E00E94D12C482F50E070E060E00D
:104200004093600550936105609362057093630568
:1042100010928502843009F4089584E0809360054B
:104220000895609160058CE090E00C94DF2C109272
:10423000850284E0809360050C9411210E9401287E
:10424000869581708093650590916005913029F481
:10425000882319F089E30E945C0F0E941317809352
:1042600064050E94261780916005813089F08823BB
:1042700059F0823091F08430E9F08FE39CE90197A6
:10428000F1F700C00000089582EE0E945D0EF5CFA8
:1042900088E193E00E94100CF0CF82EE0E945D0E48
:1042A0008FE39CE90197F1F700C0000087E50E94C9
:1042B0005C0FE3CF86EE0E945C0F88E1F8CF80911F
:1042C0006005813071F0882341F0823031F0843014
:1042D00099F0809164050C94231782EE0E94EF0EF2
:1042E000F8CF8CE20E945C0F80916505882389F3EA
:1042F00089E30E945C0FEDCF88E2FBCF0F931F9301
:10430000CF93DF938C01CCE0D0E0C8010C2E02C02B
:10431000969587950A94E2F78F700E94B30D2497C3
:10432000CC3F8FEFD80789F7DF91CF911F910F9185
:1043300008950F931F93CF93DF93EC018B01FB0143
:104340008281882361F00E9413178272C13EFCE5CE
:10435000DF07E1F060F4C03EECE5DE0799F0B8015C
:10436000CE01DF91CF911F910F910C94E320C73EB6
:10437000FCE5DF07A0F78C2F825E809360050E942A
:104380001121EDCF811104C081E003C08111FCCF68
:104390008FEF0E941721E3CF0F931F93CF93DF93EB
:1043A000C42FD22FFC0182818823C9F04093880258
:1043B0000E940D29909387028093860280E28C0FE1
:1043C000883008F050C0C77081E001C0880FCA95DE
:1043D000EAF7DF91CF911F910F910C94640F109128
:1043E0008802141335C080918602909187020E9442
:1043F0002529883C910560F5C0E2CD0F1D17B9F065
:1044000080E2810F883040F4177081E001C0880F8E
:104410001A95EAF70E946B0FC83048F481E09D2F8F
:10442000977001C0880F9A95EAF70E94640F802F59
:104430000E945C0FC830B8F4D77081E001C0880FCB
:10444000DA95EAF7DF91CF911F910F910C946B0FE2
:1044500080E28C0F883038F4C77081E001C0880F8B
:10446000CA95EAF7EFCFDF91CF911F910F91089591
:104470000F939C01CB01243F4CE5340759F1A8F47C
:10448000293DFCE53F0701F12A3D4CE53407D1F118
:10449000283D3C4591F406E221EE41EE68ED7CE5D5
:1044A0000E94CC2180E00F910895263FFCE53F0754
:1044B000E9F0B0F0273F3C45F9F0FC018281882308
:1044C00039F110928802EFCF07E225EE45EE69ED53
:1044D0007CE5E6CF06E221EE40EE64EF7CE5E0CF3E
:1044E00007E225EE44EE65EF7CE5DACF06E221EE49
:1044F00042EE66EF7CE5D4CF07E225EE46EE67EFAD
:104500007CE5CECF08E221E045EE6AED7CE5C8CF40
:1045100081E0C9CFCF93DF93EC01FB018281882337
:1045200009F420C1C430FDE5DF07C8F5CB3F9CE5A9
:10453000D90730F49E0122503C452431310598F5CD
:104540000E94621790934B0380934A03C031FCE5AD
:10455000DF0709F4E0C008F061C0C8309CE5D90766
:1045600009F4CBC088F5C430FCE5DF0709F4B3C01B
:10457000E8F4C2309CE5D90709F4A7C080914A034A
:104580008260C330DC4509F4A3C080914A03909156
:104590004B030E9470170E948F1180E004C0C23646
:1045A000EDE5DE0769F2DF91CF91089580914A032E
:1045B0008061C630FCE5DF0709F48AC008F48FC0CB
:1045C00080914A03806284C080914A038D7FCC3001
:1045D0009CE5D90709F47CC070F480914A038C6093
:1045E000CA30FCE5DF0709F473C008F48AC0809183
:1045F0004A038E7F6DC080914A03877FCE309CE551
:10460000D90709F465C080914A038B7FCF30DC4520
:1046100008F45EC080914A038F7E5AC0CD3FFCE50E
:10462000DF0709F474C040F5C4319CE5D90709F4EB
:104630008AC058F4C231FCE5DF0709F474C008F4FD
:104640006EC080914A03837F43C0CB3F9CE5D9076E
:1046500009F449C008F04DC0C531DC4509F095CFDB
:1046600080914A0382FB992790F921E0922790FBE1
:1046700082F990FB83F92CC0C1308DE5D80709F48D
:1046800058C088F480914B038360CF3FECE5DE0790
:1046900069F180914B038D7FC115DD4538F1809123
:1046A0004B038C7F23C0C3308DE5D80709F458C075
:1046B00008F452C0C236DD4509F067CF90914A0335
:1046C000892F8F7E94FF806103C080914A038160AF
:1046D00080934A035ACF80914A038460F9CF809136
:1046E0004A038860F5CF80914B03816080934B0330
:1046F0004CCF80914B038260F9CF80914A03806454
:10470000E7CF0E948F1180914A038068E1CF8091AA
:104710004B038E7FEBCF80914A038F7DD9CF809161
:104720004A038F7BD5CF0E948F1180914A038F77E8
:10473000CFCF80914B03982F909591708E7F892BCE
:1047400090FB81F9D3CF0E948F1190914A03892F5A
:1047500097FB87F98058BCCF81E00E94F61715CFF0
:1047600080E0FBCF81E01FCFCF93DF93EB01863159
:104770009C4511F50E9413179A81992399F08A7A22
:1047800091E009F490E090938902811109C089E2D7
:104790000E94E0160E94F41680E0DF91CF91089508
:1047A00085E3F6CF80918902811104C089E20E94DD
:1047B000E716F0CF85E3FBCF81E0EFCF4F925F921A
:1047C0006F927F928F929F92AF92BF92CF92DF9221
:1047D000EF92FF920F931F93CF93DF93EC01E88149
:1047E000F981CF01815095458F3F910510F485E502
:1047F000F827DB0112964C90442009F466C2EF3F83
:10480000F10509F100F1EB32FD4521F010928A0229
:10481000A42D07C080918A0291E0892780938A02A3
:10482000A0E08A2FDF91CF911F910F91FF90EF9021
:10483000DF90CF90BF90AF909F908F907F906F90C0
:104840005F904F900895A0918A02AA2309F4E9C0CD
:1048500010928A02E03CF105F0F5E038F10508F02D
:10486000AAC0E034F10508F070C021E030E040E07B
:1048700050E060E070E080E090E00E2F0E94A22CFB
:10488000B0918B022B2BB0918C023B2BB0918D02FF
:104890004B2BB0918E025B2BB0918F026B2BB091A2
:1048A00090027B2BB09191028B2BB09192029B2BAB
:1048B00020938B0230938C0240938D0250938E0292
:1048C00060938F0270939002809391029093920272
:1048D000F983E883A6CFEF3FF10509F030F621E038
:1048E00030E040E050E060E070E080E090E08F0178
:1048F000005C11090E94A22CB091A3022B2BB09155
:10490000A4023B2BB091A5024B2BB091A6025B2BCE
:10491000B091A7026B2BB091A8027B2BB091A9029A
:104920008B2BB091AA029B2B2093A3023093A4025D
:104930004093A5025093A6026093A7027093A80229
:104940008093A9029093AA02C3CF21E030E040E017
:1049500050E060E070E080E090E08F0100541109C9
:104960000E94A22CB09193022B2BB09194023B2B6E
:10497000B09195024B2BB09196025B2BB0919702B0
:104980006B2BB09198027B2BB09199028B2BB0913D
:104990009A029B2B209393023093940240939502AA
:1049A00050939602609397027093980280939902B5
:1049B00090939A028DCF21E030E040E050E060E03B
:1049C00070E080E090E08F01005811090E94A22C55
:1049D000B0919B022B2BB0919C023B2BB0919D027E
:1049E0004B2BB0919E025B2BB0919F026B2BB09131
:1049F000A0027B2BB091A1028B2BB091A2029B2B2A
:104A000020939B0230939C0240939D0250939E0200
:104A100060939F027093A0028093A1029093A202E0
:104A200057CFE034F10508F067C070908B0280909A
:104A30008C0290908D02D0918E02C0918F02B09125
:104A40009002509091026090920221E030E040E0AC
:104A500050E060E070E080E090E00E2F0E94A22C19
:104A600059016A017B018C0127213B2D3821492105
:104A70005D2D5D236C237F2D7B238521912F962136
:104A80000E94BB2C09F0C4CEE03CF10508F08EC0BA
:104A9000E038F10508F0EBC0E034F10508F0B9C0EA
:104AA00021E030E040E050E060E070E080E090E045
:104AB0000E2F0E94A22C2095309540955095609520
:104AC0007095809590952721382149215D236C238D
:104AD0007B238521962120938B0230938C02409377
:104AE0008D0250938E0260938F0270939002809398
:104AF00091029093920295CEE038F105E0F4709027
:104B000093028090940290909502D0919602C09169
:104B10009702B09198025090990260909A0221E019
:104B200030E040E050E060E070E080E090E08F0135
:104B30000054110993CFE03CF105E0F470909B0222
:104B400080909C0290909D02D0919E02C0919F0205
:104B5000B091A0025090A1026090A20221E030E04A
:104B600040E050E060E070E080E090E08F010058AD
:104B7000110974CF7090A3028090A4029090A502B6
:104B8000D091A602C091A702B091A8025090A902AC
:104B90006090AA0221E030E040E050E060E070E088
:104BA00080E090E08F01005C110958CFEF3FF105E4
:104BB00011F008F075CF8F01005C110921E030E0A1
:104BC00040E050E060E070E080E090E00E94A22CC5
:104BD000209530954095509560957095809590956D
:104BE0002721382149215D236C237B2385219621B0
:104BF0002093A3023093A4024093A5025093A602EF
:104C00006093A7027093A8028093A9029093AA02CE
:104C100008CE8F010054110921E030E040E050E05F
:104C200060E070E080E090E00E94A22C209530953A
:104C300040955095609570958095909527213821E5
:104C400049215D236C237B238521962120939302A8
:104C5000309394024093950250939602609397028A
:104C6000709398028093990290939A02DACD8F0103
:104C70000058110921E030E040E050E060E070E0D1
:104C800080E090E00E94A22C2095309540955095B0
:104C900060957095809590952721382149215D2355
:104CA0006C237B238521962120939B0230939C02C9
:104CB00040939D0250939E0260939F027093A002C6
:104CC0008093A1029093A202ACCDA1E0EF3FF10549
:104CD00009F098F5E034F10590F580908B02909002
:104CE0008C02D0918D02C0918E02B0918F02A09162
:104CF0009002609091027090920221E030E040E0DA
:104D000050E060E070E080E090E00E2F0E94A22C66
:104D100059016A017B018C0128213B2D39214D234A
:104D20005D2D5C236B237F2D7A23A1E08621912FBB
:104D300097210E94BB2C09F4A0E0A17072CDE0384D
:104D4000F105E0F48090930290909402D091950246
:104D5000C0919602B0919702A0919802609099023A
:104D600070909A028F010054110921E030E040E078
:104D700050E060E070E080E090E0C8CFE03CF105FA
:104D8000A0F480909B0290909C02D0919D02C091D3
:104D90009E02B0919F02A091A0026090A10270902B
:104DA000A2028F0100581109E0CF8090A3029090D9
:104DB000A402D091A502C091A602B091A702A09131
:104DC000A8026090A9027090AA028F01005C1109EC
:104DD000CCCF1092B9008CE08093B80008959F92D8
:104DE000AF92BF92CF92DF92EF92FF920F931F93F9
:104DF000CF93DF93B82EEB010E940D296C01EE24B6
:104E0000E394F12CC431D10560F025E0E22EF12CC1
:104E1000CF3FDC0731F0CE0164E170E00E94742CDA
:104E20007B0184EAA82E94E8992E1092BC00A092EF
:104E3000BC000E940D298C018091BC0087FF0DC031
:104E40008091B900887F883039F18091B900887FDE
:104E5000803111F10FEF1FEF09C00E940D29801B57
:104E6000910B8E159F0540F30EEF1FEFCF3FDC0730
:104E7000E1F2C6010E9425298C179D07B0F2C801F6
:104E8000DF91CF911F910F91FF90EF90DF90CF9026
:104E9000BF90AF909F900895B092BB009092BC00DD
:104EA0000E940D298C018091BC0087FF0AC080916F
:104EB000B900887F883111F0803461F610E000E09D
:104EC000DECF0E940D29801B910B8E159F0558F394
:104ED000CBCF0F931F93CF93DF93EB018093BB0056
:104EE00084E88093BC000E940D298C018091BC0055
:104EF00087FF11C02091B900287F81E090E028321F
:104F000011F490E080E0919581959109DF91CF9126
:104F10001F910F910895CF3FDC0741F30E940D29A7
:104F2000801B910B8C179D0708F38EEF9FEFEECF40
:104F3000CF92DF92EF92FF920F931F93CF93DF9365
:104F40006B018A017901B9010E94EF26E6010C0D7F
:104F50001D1DC017D10761F424E92093BC00DF9127
:104F6000CF911F910F91FF90EF90DF90CF90089518
:104F700097FDF2CFB70189910E946927EACFCF92BE
:104F8000DF92EF92FF920F931F93CF93DF93C62F81
:104F90006A017901B8010E94EF2697FD0CC0B801A3
:104FA0008C2F0E946927E601EC0CFD1CCE15DF0555
:104FB00011F097FF0CC024E92093BC00DF91CF9142
:104FC0001F910F91FF90EF90DF90CF900895B8015F
:104FD00089910E946927EACF84E98093BC000895F3
:104FE0009093B0028093AF020895E091AF02F091E8
:104FF000B002309721F00190F081E02D099480E01B
:1050000008950E94F5270895E091AF02F091B00253
:10501000309721F00280F381E02D09940895E0910A
:10502000AF02F091B002309739F022E0DC012C930E
:105030000480F581E02D099408952091AD0230910E
:10504000AE022817390771F09093AE028093AD023B
:10505000E091AF02F091B002309721F00680F78125
:10506000E02D099408952091AB023091AC022817ED
:10507000390771F09093AC028093AB02E091AF02DC
:10508000F091B002309721F00084F185E02D099471
:105090000895662349F0FC0132960896219126175F
:1050A00029F0E817F907D1F780E0089581E0089525
:1050B0009C01FC0132969FEF80E04191461751F030
:1050C0009F3F19F4411101C0982F8F5F8630A9F7D7
:1050D0009F3F09F40895290F311D97FD3A95F90175
:1050E00062830895FC01329608962191261303C02D
:1050F000DF0111971C92E817F907B9F708950C948E
:1051000058280C947228029626E0FC0111922A95E8
:10511000E9F708950895089508950C948C288091D6
:10512000B402882349F10E948D2880E00E94120E6B
:105130001092B10288E190E020E40FB6F894A895AF
:10514000809360000FBE2093600083B7817F8460EE
:1051500083BF83B7816083BF7894889583B78E7F40
:1051600083BF0FB6F894A895809160008861809302
:105170006000109260000FBE08950895CF930E94C2
:105180008B280E94ED1B0E94BD28C0E08C2F0E943E
:10519000301B811105C0CF5FC730C1F7CF91089593
:1051A00081E0FCCF08950C94D2280E948F110E94B8
:1051B000F5270E94120E0C94D3281F921FB61F923F
:1051C00011248F939F93AF93BF938091B10281116C
:1051D00013C08091660590916705A0916805B09114
:1051E00069054196A11DB11D8093660590936705E1
:1051F000A0936805B0936905BF91AF919F918F917E
:105200001F901FBE1F90189582E084BD93E095BD4E
:105210009AEF97BD80936E0008952FB7F894809110
:10522000660590916705A0916805B09169052FBF4B
:1052300008952FB7F8946091660570916705809185
:105240006805909169052FBF08959C014FB7F894A8
:105250008091660590916705A0916805B0916905F8
:105260004FBF821B930B089578941F921FB61F9215
:1052700011248F939F93AF93BF9380916605909174
:105280006705A0916805B09169050196A11DB11D42
:105290008093660590936705A0936805B0936905B0
:1052A000BF91AF919F918F911F901FBE1F90189536
:1052B00088E198E00FB6F894A895809360000FBE3F
:1052C00090936000A895F894D8E0CEEF28E3299356
:1052D00020E0299314BEFFCF08959093BF018093DF
:1052E000BE0108950E940D299093B3028093B202EB
:1052F00080E890E00FB6F89480936100909361008D
:105300000FBE0C9428180E94592C539A80E08150AB
:1053100091F4539878940E943A180E94892A0E9426
:10532000F027FFEF20E782E0F15020408040E1F7D6
:1053300000C000000895A895EFE9FFE03197F1F76C
:1053400000C00000E4CF80919105882309F11092FC
:1053500091050E940D299093B3028093B20280912F
:10536000B402882341F01092B4020E94D5288091A3
:10537000B402811111C00E94692B80919705882386
:1053800029F08091750584FD0E9445180C94302AFF
:105390008091B402882301F10E948F280E94BE28C8
:1053A000882349F1F8942AB15B9A822F8C608AB9DC
:1053B0009BB13CE093279BB94FE788E391E04150D4
:1053C00080409040E1F700C000008BB183278BB98B
:1053D0002AB95B98789408958091B2029091B302B3
:1053E0000E942529069708F4C2CF81E08093B40279
:1053F0000E948F28BCCF0895809149030895909111
:10540000BA02981307C02091B8023091B90226174A
:105410003707A9F08093BA027093B9026093B8027B
:105420008093B5027093B7026093B6028091AE0587
:1054300084FF05C063E085EB92E00C94652B089532
:10544000BC0184E00C94FF29BC0183E00C94FF298B
:105450002091AE0524FF03C066E00C94652B0895EF
:10546000CF93DF93CAE0D0E08091750584FF1AC026
:105470008091C6029091C702981789F028E0829F18
:10548000C001112468E088539D4F0E94612B8091D8
:10549000C60290E001968F7099278093C602DF9133
:1054A000CF9108950E94692B8FE99FE00197F1F752
:1054B00000C000002197C1F6F2CFCF93DF93EC013B
:1054C000A091C702B0E0CD0101968F70992720917D
:1054D000C602281779F093E0AA0FBB1F9A95E1F74F
:1054E000A853BD4F98E0FE0101900D929A95E1F707
:1054F0008093C7020E94692B0E94302A88E0FE0137
:10550000AEEBB2E001900D928A95E1F7DF91CF9179
:10551000089589E291E00895FC01808180768032CF
:10552000F1F48181813061F484819581892BB9F412
:105530008EEB92E0909393058093920588E0089516
:10554000823041F488E493E0909393058093920530
:1055500081E008958A3029F483818093480380E0B4
:1055600008958930E1F7828193818115924069F431
:1055700084819581892B49F481E08093BD028681E5
:1055800097819093BC028093BB028FEF0895FC013A
:105590008091BB029091BC02892B61F08091BD0289
:1055A000813041F49081909349031092BC02109293
:1055B000BB0208958FEF08950895FC019381933005
:1055C00051F130F49130B9F09230E9F080E0089573
:1055D0009132B1F19232D1F784819581009709F42B
:1055E0003FC0019799F78AE29EE0909393058093DC
:1055F00092058BE708958CEE9DE090939305809340
:10560000920582E1089581EB9DE09093930580934C
:1056100092058BE308958281813079F0882329F007
:105620008230A1F68EEF9DE0E8CF86E29EE0909377
:1056300093058093920584E0089582E19EE0DDCF9A
:105640008281882329F0813009F68CED9DE002C02B
:1056500083EC9DE0909393058093920589E00895F3
:1056600085EA9EE0909393058093920580E40895E7
:105670001F93CF93DF93E82F792F162FEA018881AC
:1056800084FF1CC0298188E828272983CE0102963F
:10569000DC012E2F372F512F5E0FF90121912D9311
:1056A0009F01452F4E1B1416C4F3612F0E94D10792
:1056B0001C5F1883DF91CF911F9108958AE588833D
:1056C000E5CF45E755E00C94382B4EEA55E00C94B5
:1056D000382BCF93DF9360919405635067FD12C020
:1056E00080919005CCE0D0E0C81BD109C856DA4FB4
:1056F00080918F05803108F054C0CE010E94DC2AD1
:10570000109294058091340184FF3EC08091330152
:105710008F3FD1F1C82F893008F0C8E0982F9C1B2B
:105720009093330190916A0528E8922790936A0537
:105730008823E9F0809192059091930520918E0540
:1057400026FFAEC0FC012C2FABE6B5E034913D93B3
:1057500031962150D9F79C012F5F3F4F8FEF8C0F6F
:10576000820F932F911D90939305809392056C2F38
:105770008BE695E00E94D107CC5FCC3019F08FEF1B
:1057800080933301C093340184E199B19C7031F46A
:105790008150D9F71092950510928D05DF91CF9128
:1057A00008958D3209F069C0683009F0A9CF83EC03
:1057B00080936A058AE58093340110928E05888172
:1057C000807671F0CE010E948C2A8F3FC1F49881BF
:1057D00097FD8E8190E890938E058093330190CF52
:1057E0002A81109273059981911111C0109274054C
:1057F00023E735E082E030939305209392059F8163
:105800009111EBCF9E81981740F7892FE6CF953005
:1058100029F42093950523E735E0EDCF963099F4F0
:105820009B81913021F4CE010E94DD2A08C0923084
:10583000D1F39330C1F39132B1F39232A1F390E4FA
:1058400090938E05C2CF983089F0993019F4209347
:105850009705E1CF9A3071F09B30E9F69BE4909385
:1058600076059093AF0590938205D5CF27E935E073
:1058700081E0C1CF23E735E0FBCF80918E0587FF24
:105880003FCFCE010E94C72A8F3F21F48EE1809343
:10589000340136CF882309F433CF1092330130CF4F
:1058A000DC012C2FEBE6F5E03D9131932150E1F73F
:1058B00052CFCF93DF93E9E6F0E080818860808368
:1058C000E99AC5E7D5E08BE48983AEEAB5E01196A5
:1058D0008C931197E1E8F5E081838AE588838C93C6
:1058E0008083DF91CF910895AA1BBB1B51E107C0B4
:1058F000AA1FBB1FA617B70710F0A61BB70B881F60
:10590000991F5A95A9F780959095BC01CD010895EE
:1059100097FB072E16F4009407D077FD09D00E945C
:10592000742C07FC05D03EF4909581959F4F089507
:10593000709561957F4F0895EE0FFF1F0590F491CC
:10594000E02D0994002E083090F0982F872F762FA5
:10595000652F542F432F322F22270850F4CF220FC8
:10596000331F441F551F661F771F881F991F0A95F5
:10597000B2F7002D08952A153B054C055D056E050F
:105980007F05800791070895FB01DC0104C08D911C
:105990000190801921F441505040C8F7881B990BA1
:1059A0000895F999FECF92BD81BDF89A992780B5E7
:1059B0000895A8E1B0E042E050E00C94052D262FB8
:1059C000F999FECF92BD81BDF89A019700B40216F5
:1059D00039F01FBA20BD0FB6F894FA9AF99A0FBEA3
:1059E00008950396272F0E94E02C0E94DF2C252F7C
:1059F0000E94E02C242F0C94E02C0196272F0E946B
:105A0000E02C0C94DF2CDC01CB01FC01F999FECFDA
:105A100006C0F2BDE1BDF89A319600B40D92415036
:105A20005040B8F70895F894FFCF930F930FDA0F13
:105A3000DA0F0B102510C00FC00F3010C510D51095
:105A4000D5101D11C00FC00F25119E119E11A71159
:105A5000A711A911A711A711A7119E119E11AE118F
:065A6000A711A711AE1111
:105A66002D02780068017800140002000100010090
:105A760001001000200010000400100001000800C2
:105A860078000021007F220003FC295D2A282A24B1
:105A96002A202AFF5AE200E900EA00B500B600B75C
:105AA60000CD008301CC008A0192019401210223DA
:105AB6000224022502260227022A02B300B4006F3E
:105AC600007000818283E200E900EA00B500B600BA
:105AD600B700CD008301CC008A0192019401210216
