:10000000FCC2000033C3000031C300002FC3000056
:100010002DC300002BC3000029C3000027C300002C
:1000200025C3000023C300000C94B2240C947E2549
:100030000C949D1F1BC3000019C3000017C30000D0
:1000400015C3000013C3000011C300000FC300005C
:100050000DC300000C94142009C3000007C3000066
:1000600005C3000003C3000001C30000FFC200007D
:10007000FDC20000FBC20000F9C20000F7C2000090
:10008000F5C20000F3C20000F1C20000EFC20000A0
:10009000EDC20000EBC20000E9C20000E7C20000B0
:1000A000E5C20000E3C20000E1C200002352550097
:1000B000167C1F0021002300250027002E0032009F
:1000C00054002A001E0020002200240026002D00DB
:1000D00064004C005F0061002B001A0013000D004B
:1000E0001800330030002A00600056001400090098
:1000F0000A000F001C002F0000004B005C005E0097
:100100002A00150017000B0008001200000028004C
:100110005D00570004001600070011000C003400B9
:1001200001004E0059005B00E1001D0006000500C3
:1001300010003700E50052005A00580001001B0073
:1001400019000E00360038000000225262006300E1
:10015000E000E20000002C000000E600000051007A
:1001600062005800E3000000000000000000E4000E
:1001700050004F000100010001001F00210023007A
:10018000250027002E003500010001001E00200080
:100190002200240026002D0064000100010001005F
:1001A00001001A0015001C000C00130030000100B3
:1001B00001000100140008001700180012002F00B1
:1001C00000004900010001000100160009000B00B9
:1001D0000E003300000001000100010004000700D0
:1001E0000A000D000F0034000100010001000100B1
:1001F00001001D000600050010003700010001008D
:100200000100010001001B00190011003600380038
:100210000000225201000100010001000000010065
:1002200000000100000001000100010001000000C9
:100230000000000000000100010001005300010067
:1002400001003B003D003F0041004300450001002C
:10025000010001003A003C003E0040004200440022
:100260000100010001000100010001000100010086
:100270000100010001000100010001000100010076
:100280000100010001000100000001000100010067
:10029000390001000100010001000100000001001F
:1002A0000100010046000100010001000100010001
:1002B0000100615201000100010001000100010084
:1002C0000100010001000100010001000100010026
:1002D0000100010001000100000001000100010017
:1002E00001000100000001000000597C0000010035
:1002F00001000100010000000000000000000100FA
:1003000001000100010001000100010001000100E5
:1003100001000100010001000100010001000100D5
:1003200001000100010001000100007C40004100CB
:1003300001000100010001000100010001000100B5
:100340004100010001000100010001000100010065
:100350000000037C3D003F0001000100010001009E
:1003600001000100000001003E0001000100010049
:100370000100010001000100010001003A003C0001
:100380000100010001000100010001000100010065
:100390003B004500010001000100010001000100D7
:1003A00000000100430044000100010000000100C2
:1003B00000000100000001004300450001000000B2
:1003C000000000000000010001000100000000002A
:1003D000000000002A2B28000000000000000000A0
:1003E0000000000000000029000000002C1E342046
:1003F000212224342627252E362D3738271E1F206C
:100400002122232425263333362E37381F040506B0
:100410000708090A0B0C0D0E0F10111213141516F4
:100420001718191A1B1C1D2F3130232D35040506F2
:100430000708090A0B0C0D0E0F10111213141516D4
:100440001718191A1B1C1D2F3130354C00000000E5
:10045000000000000000000000000000000000009C
:10046000000000000000000000000000000000008C
:100470007E0F00D4FFFFFFC7000000780E03570077
:1004800079007600650072006E0000001A034D00CE
:1004900079007300740069006300200057006F004A
:1004A00072006B00730000000403090409025B0082
:1004B000030100A0FA090400000103010100092161
:1004C000110100012244000705810308000109040D
:1004D0000100020300000009211101000122220095
:1004E000070582032000010705030320000109041A
:1004F00002000103000000092111010001227B001C
:1005000007058403200001120100020000000859C1
:100510004D01000100010200010660FF0961A10117
:100520000962150026FF00952075088102096315F0
:100530000026FF00952075089102C005010902A15F
:100540000185020901A100050919012908150025E5
:1005500001950875018102050109300931158125D0
:100560007F95027508810609381581257F950175EB
:10057000088106050C0A38021581257F950175084A
:100580008106C0C005010980A101850319012AB7B0
:1005900000150126B700950175108100C0050C09F2
:1005A00001A101850419012AA002150126A00295C6
:1005B0000175108100C005010906A101050719E0B8
:1005C00029E7150025019508750181029501750837
:1005D00081010507190029FF150026FF0095067502
:1005E00008810005081901290515002501950575E3
:1005F000019102950175039101C011241FBECFEF37
:10060000DAE0DEBFCDBF04B603FE19C08091E5027B
:100610009091E602A091E702B091E8028730904BFA
:10062000A740B04B61F41092E5021092E6021092DE
:10063000E7021092E802E0E0F8E3099500C011E05B
:10064000A0E0B1E0EEECF0E502C005900D92AC3A0E
:10065000B107D9F722E0ACEAB1E001C01D92A53E96
:10066000B207E1F70E9495110C940028C9CC8430A0
:10067000C8F46A30B8F44A30A8F450E09AE0699FB0
:10068000400D511D112494E6899F400D511D1124E8
:10069000FA01EE0FFF1FE455FF4F85919591282F2A
:1006A000822F089521E090E0FBCF81E0089581E062
:1006B0000895FBCF089581E0089581E00895FDCF6E
:1006C000089508950895FDCF089508950895A6E02A
:1006D000B0E0EDE6F3E00C94422749835A839E8311
:1006E0003091B30189819A81311117C03E81311552
:1006F00089F0211579F04AD5182F682F89819A81C0
:1007000024D569817A81812F0E94BD0E2696E3E06F
:100710000C945E272BD5182FF4CF38D569817A81B8
:10072000F3CFFC01262F4081518162817381848146
:100730009581CDCFCF93DF93EC0161E0F2DFBE0175
:10074000B6DF811529F061E0CE01EBDFBE01B1DF3C
:10075000DF91CF9108950F931F93CF93DF93EC0117
:1007600060E0DFDF8C01BE01ADDFBE01C801ABDFA1
:10077000DF91CF911F910F910895A2E0B0E0E3ECDB
:10078000F3E00C9441278C0161E0CBDF89839A83ED
:10079000B801CE0101960E945014811105C080E07D
:1007A0002296E4E00C945D27B80189819A8183DF69
:1007B0008115A9F3B80189819A8181DF811579F3C7
:1007C000B80189819A810E949B1C811541F3B8016F
:1007D00089819A810E94D91B811509F3B801898109
:1007E0009A810E944B178115D1F2B80189819A81B3
:1007F0000E942614811599F2B80189819A810E947C
:10080000191C811561F2B80189819A810E94BF0F7C
:10081000811529F2B80189819A810E94D10F811531
:1008200009F4BDCFB80189819A810E94EB0FB8CF3E
:1008300091E001C0990F8A95EAF7892FE5C3CF931C
:10084000C82F81E00C2E01C0880F0A94EAF70E949D
:10085000D80C8C2FEDDFCF91089581E0089581E0D1
:100860000895FBCF0895CF93C82F7FD38C2FF7DF48
:100870008C2FF7DFCF91089581E0F5DF0C943820BD
:1008800080E0F1DF0C945C2020DF0E94361F17C04F
:1008900018D01CDF0C943A1F81E008950895CF937F
:1008A000DF93C82FF9DFD82F811511F08C2FF6DFD9
:1008B0008D2FDF91CF9108950895F1CF089580E0B5
:1008C000FCCF0E94BD1DF9CFCF930E94BD1DC82F44
:1008D0008091AE018C1771F0C093AE010E94082088
:1008E0006093AF017093B0018093B1019093B20116
:1008F0008C2FE3DFCF910895ADE0B0E0E2E8F4E0C3
:100900000C944327488759876A877B878C879D8704
:10091000911165D71F8286E0FE0138969E012F5FF8
:100920003F4FD90101900D928A95E1F78D81811198
:100930000CC029813A814B815C816D817E818F81E0
:1009400099D62D96E2E00C945F27CE010196F2DE57
:100950008111EFCFF6CFFC012481213019F4808181
:10096000918140C40895611521F00E94A7180C944C
:100970005C190E94E718FBCFCF93C82F8115B9F0FF
:100980008238B9F40E94CC1D81FD11C089E30E9418
:10099000981E8ED78FEF97EE23E081509040204035
:1009A000E1F700C0000089E30E949E1E81D7CF912D
:1009B0000895833899F40E94CC1D80FDF8CF83E51B
:1009C0000E94981E75D78FEF91EE24E081509040E1
:1009D0002040E1F700C0000083E5E6CF843899F4B9
:1009E0000E94CC1D82FDE3CF87E40E94981E60D751
:1009F0008FEF91EE24E0815090402040E1F700C05D
:100A0000000087E4D1CF8450813A68F48C2F0E9493
:100A10005C1E811521F08C2F0E949E1E49D78C2FC1
:100A20000E94981EC3CF8C2F805E883048F481E0EE
:100A3000C1FD84E0C0FD880FC2FD8295B1D6B6CF5E
:100A40008C2F855A833030F48C2F8452990B0E945E
:100A5000ED1DADCFEC2FE85AEB3150F4F0E0EE0F86
:100A6000FF1FE35EFE4F808191810E94141E9FCF85
:100A70008C2F8D5C833108F09ACF61E08C2F73DF6F
:100A800096CF811509F44EC0823861F40E94CC1DC6
:100A900081FF48C089E30E94981E0AD789E30E941B
:100AA0009E1E06C7833851F40E94CC1D80FF3AC0B9
:100AB00083E50E94981EFCD683E5F1CF843851F47B
:100AC0000E94CC1D82FF2EC087E40E94981EF0D6A3
:100AD00087E4E5CF982F9450913A08F3982F905ED1
:100AE000983050F4982F81E091FD84E090FD880FBC
:100AF00092FD82955BD6D5CF982F955A933020F4EE
:100B000080E090E00C94ED1D982F985A9B3120F4D2
:100B100080E090E00C94141E982F9D5C933110F4AB
:100B200060E021CF08951F93CF93DF93182FEB013F
:100B300023DF209731F4812FA4DFDF91CF911F9124
:100B400008958FE99FE00197F1F700C00000219719
:100B5000F0CF60E570E0893311F060E070E0E3CF42
:100B6000811511F01DD6A4C60895811511F01ED669
:100B70009FC60895A0E0B0E0E0ECF5E00C943D27BE
:100B80006C01D62FC72FFC011581068102950F70CD
:100B9000FCD5E82E8115E9F0E12E1115D1F08C2F4E
:100BA000807F803461F08D2F805E8830E0F08C2F64
:100BB000807E803221F4D230B0F00115A1F0809116
:100BC000AB0282FF10C082E08FD6DFD591E089278B
:100BD000E82EEC2FE295EF70C03C78F5F0E0EE5F88
:100BE000F74D0C942627E12CF4CF0C2F0F70C03159
:100BF00010F00295007F111581F0011549F08D2F3D
:100C0000805E883010F0D11105C0802FC9D550D634
:100C10008D2F40C0802FD5D5FACF8D2F32DF011513
:100C200061F08D2F805E883010F0D11103C0802FCD
:100C3000BDD502C0802FCBD53BD6E11409F4AEC0A0
:100C4000A0D580FDABC0F601158295D5FFD1C601B8
:100C50005DD191D504D2A2C08C2F8F70F82EC07FA9
:100C6000C03219F0F29480EFF822D13038F079F1E7
:100C7000111509F438C00115C9F0CACF8091AB0233
:100C800082FD10C0111541F0F11419F08F2D88D597
:100C90000FD680E071DED1CF80E0F3DEF11469F28F
:100CA0008F2DC6CF111551F0013018F48F2D58DF5C
:100CB000C4CF09F0C2CF8F2DA6D5BFCF0111BDCFB4
:100CC0008F2D53DF8F2DAAD58F2D8FD5B6CF111530
:100CD00021F0063008F0B1CFE9CF053008F0ADCFF4
:100CE0008F2D43DFAACF0115D9F3D93349F48FEF04
:100CF00097EE23E0815090402040E1F700C00000D3
:100D00008D2FBFDE9ACF8C2F86958695837081308C
:100D100060F009F092CF8D2F9C2F9370111102C0BB
:100D200080E090E00E94141E88CF8D2F9C2F93703E
:100D3000111102C080E090E00E94ED1D7ECF612F76
:100D40008D2F11DE7ACF8C2F837099F5111123C06E
:100D50009D2F929596959770990F990F4D2F4F70E3
:100D6000092E01C0440F0A94EAF78D2F8071D4FF39
:100D700007C02FE001C0220F9A95EAF7822F8095D5
:100D8000C695C695C370842BC23079F0C33079F014
:100D9000C13049F03FD10E94BD1D8FDDCDB7DEB718
:100DA000E8E00C94592732D1F6CF38D1F4CF2CD1CA
:100DB000F2CF111531F1C0FFEECF9D2F9295969590
:100DC0009770990F990F4D2F4F70092E01C0440F46
:100DD0000A94EAF78D2F8071D4FF07C02FE001C07D
:100DE000220F9A95EAF7822F8095C695C695C37013
:100DF000842BC23059F0C33059F0C13029F047D1AB
:100E0000CACF823040F2D9CF3ED1C5CF44D1C3CF73
:100E10000FD1C1CFCF70111529F08C2F17D18D2F85
:100E20009FDEB9CF8D2FA1DE8C2F19D1B4CFD23F49
:100E300031F168F4D03FC1F0D13F89F0111509F4C8
:100E40003EC0011509F438C08D2F96DDA4CFD33FE5
:100E5000E1F0D43F99F78091AB0282FD1EC08C2F48
:100E60008F71111511F30FC0111539F0053008F00D
:100E700092CF8C2F8F71FED08ECF0630F8CF8C2F73
:100E80008F711111D2CFE2D086CF111521F08C2FA6
:100E90008F71D5D080CFD1D07ECF111529F063E0EE
:100EA0008C2F8F710AD577CF81E01ED5023008F4E0
:100EB00072CF82E019D56FCF8C2F8F71E4CF0115DF
:100EC00071F0D93349F48FEF97EE23E081509040D1
:100ED0002040E1F700C000008D2FD3DD5CCF8C2FC8
:100EE0008F71A3CF0F931F93CF93DF93EC01688192
:100EF00079818D8180D18C01D2D085D0B801CE018D
:100F000039DEDF91CF911F910F910895CF93DF9339
:100F1000EC018C81811581F0CE012FDC81110FC095
:100F200034D4811549F08D81811531F08091AB0267
:100F300082FF02C082E0D8D4DF91CF910895CE0124
:100F4000D1DFCE0108DCF8CF80E090E00E94ED1DFB
:100F500080E090E00E94141E42D4AAD40E94751929
:100F60000C945C190E94A41EEFCF28D4FBCF282F2D
:100F700092959F70963099F060F4925F9F709230D6
:100F800030F4203FB1F038F481E0283E38F080E0C2
:100F900008959A5FF3CF81E0243FC9F7089591E067
:100FA000813F09F090E081E0283E08F080E0892B45
:100FB000089581E00895FC012481211521F08081AC
:100FC000918110D1D4CF80E00895A6E0B0E0EBEE9F
:100FD000F7E00C9443272696E2E00C945F27A7E005
:100FE000B0E0E5EFF7E00C9443272796E2E00C949D
:100FF0005F270895FECF0895FDCF0895FADFFCDF47
:101000008093DC0108950895F9CF08959091DC0153
:10101000892BF4CF9091DC018923F0CF9091DC01F2
:101020008927ECCFE6CF0895FDCF0895E2CF08954C
:10103000FDDFFADF8093DB01089580E0F9CF91E0D6
:1010400001C0990F8A95EAF7892FF2CF21E001C0FC
:10105000220F8A95EAF78091DB01822BE9CF21E00C
:1010600001C0220F8A95EAF7822F80959091DB01CB
:101070008923DECF21E001C0220F8A95EAF7809113
:10108000DB018227D5CF9091DB01892BD1CF9091C5
:10109000DB018923CDCF9091DB018927C9CF08954A
:1010A000CF93C1E061FDC4E060FDCC0F62FDC2954D
:1010B00093E0769567959A95E1F79B01220F331F90
:1010C000260F371F420F531FFA0140E050E090E017
:1010D0006191DF019C01042E02C0369527950A9488
:1010E000E2F72695220B26272C2326272E934F5FE7
:1010F0005F4F4330510561F7CF910895A82FA77036
:1011000023E0969587952A95E1F79C01220F331FDE
:10111000820F931F680F791FFB0140E050E080E0D1
:10112000219130E00A2E02C0369527950A94E2F705
:101130002170042E01C0220F0A94EAF7822B4F5F20
:101140005F4F4330510561F70895262F9A3068F4B8
:101150008A3058F4682F70E08AE0989F600D711D06
:10116000112444EB51E0822F9BCF0895292F9A3010
:1011700058F48A3048F490E064EB71E03AE0239F41
:10118000800D911D1124BACF80E00895CF92DF9297
:10119000FF920F931F93CF93DF936C010091DB01BC
:1011A0008091DC01082BC3E0D0E010E0C8010C2ED8
:1011B00002C0959587950A94E2F780FD0CC02197AF
:1011C000A8F7F12C8F2DDF91CF911F910F91FF90F8
:1011D000DF90CF900895FC2EB6018C2FD8D50197C3
:1011E00071F3F0CFCF93DF93EC01D0DFBE01CFD509
:1011F000DF91CF9108950F931F93CF938B0190911F
:10120000B301911531F0CB01EDDFCF911F910F911B
:101210000895811551F0CB01B9DFC82F682FC8019F
:1012200094DFB8018C2FB3D5F0CFCB019FDFC82F4F
:10123000F8CFE1E0F0E0DF0101C0AA0F6A95EAF71C
:101240006A2FDF0101C0AA0F4A95EAF76A2B01C095
:10125000EE0F2A95EAF7962F9823961302C08E2B4D
:101260000895E0958E230895242F462F682F8091AE
:10127000DB01DFDFDDCE0F931F930091DD01809155
:10128000DE01801303C01F910F91089587E0089F2E
:10129000F0011124E152FE4F2081318142815381BE
:1012A0006481758186819BDE0F5F1F4F0770E7CFDA
:1012B00020911702309118024091190250911A02A0
:1012C00060911B0270911C0280911D0288CE80915A
:1012D0001D02803170F480911C02811551F0E09163
:1012E000DD012091DE0130911802409117022E138A
:1012F00001C00895BF0187E0E89FF0011124DF01DC
:10130000A152BE4F14968C911497811549F11196F4
:101310008C911197831324C08C91841321C015964E
:101320008C91159781111CC012968D919D91A09161
:101330001902B0911A028A1B9B0B883C910580F41C
:1013400080911D028F70806180931D02EB51FE4FD2
:1013500080818F708061808387E192E0D7DD8BCFC1
:101360006F5F7F4FFB01E770C2CFE091DD0190918D
:10137000DE01E91302C080E008959F0157E0E59F78
:10138000F0011124E152FE4F5181561306C05081E5
:10139000581303C05581541305C02F5F3F4FF90107
:1013A000E770E7CF81E008958F929F92AF92BF924E
:1013B000DF92EF92FF920F931F93CF93DF93CDB7FE
:1013C000DEB72D970FB6F894DEBF0FBECDBF8C01F0
:1013D00086E0F801DE01189601900D928A95E1F7FA
:1013E000F801F580848197E1892E92E0992E909101
:1013F0001B02911117C0811509F4EFC0F11409F413
:101400002EC1C801D8DD811509F429C187E0F80192
:10141000D40101900D928A95E1F7C4019CDA57DF5F
:1014200047DFDBC0E080A280B380D0901C02209117
:10143000190230911A02A501421B530BD11409F471
:10144000CFC0483C510508F09EC0811509F4C5C0C5
:1014500090911802918080911D02803108F065C042
:10146000991226C0909117029E1122C0F11057C008
:101470008F70806180931D021BDF87E192E046DD63
:1014800080911D02F8018683F12C8F2D2D960FB6C9
:10149000F894DEBF0FBECDBFDF91CF911F910F91AA
:1014A000FF90EF90DF90BF90AF909F908F90089546
:1014B000F11035C040E0692D8E2D57DF40E0692DD9
:1014C0008E2D53DFF82E8111DFCF888599858ADE36
:1014D000292F22952F70903450F49F70223078F08D
:1014E000911591F0F8019681903170F4CECF2A5F7A
:1014F0002F70223070F0C80109DDFD2CC6CF911588
:1015000019F0811509F4C1CF805E883008F4BDCF91
:10151000F2CF803F08F4B9CF815F8330F7CF80915D
:101520001D02816080931D02AFCF991207C0909178
:1015300017029E1103C0F11409F473C0C8013BDD0A
:10154000811509F48CC0F11409F489C080911D0241
:10155000803280F0209117023091180229833A835B
:10156000AB82BC8290911B029D831E828F83CE0131
:101570000196CCDC87E0F801A7E1B2E001900D9282
:101580008A95E1F74CCF90911D02903188F44885FF
:1015900059856A857B858C859D8517DD87E192E07D
:1015A000B5DCF40187E011928A95E9F781DE6CCF12
:1015B000811599F02091180281812813BFCF809165
:1015C00017028E11BBCFF110B9CF9683C8019EDCF4
:1015D000F40187E011928A95E9F7FF24F39455CF3F
:1015E000483C510508F03EC08115B9F3F114B9F13A
:1015F000909118028181981329C0809117028E1151
:1016000025C080911D0280FD18C08031B0F0868316
:10161000807F803F39F08681982F907F905F8F7018
:10162000892B8683C80172DC87E0F801A7E1B2E06C
:1016300001900D928A95E1F7F3CE87E0F801A7E1DA
:10164000B2E001900D928A95E1F7C7CFC801B3DCF3
:10165000811190CF80911D02816080931D02C8018D
:1016600055DCBBCF488559856A857B858C859D85F2
:10167000ACDC97CFAEE0B0E0E0E4FBE00C944227B6
:10168000288739874A875B876C877D878E87CE015D
:1016900008968ADE6C85811599F0611539F02885E8
:1016A00039854A855B857D858E8599DC8091DD0154
:1016B0009091DE0189133DC02E96E3E00C945E27E5
:1016C00087E09E01285F3F4FF90127503109D9017A
:1016D00001900D928A95E1F7611541F3A091DE0129
:1016E0008A2F90E08395877090E0AC012091DD0116
:1016F0002417150691F097E09A9FD0011124A1526A
:10170000BE4F9E012F5F3F4FF90101900D929A95B8
:10171000E1F74093DE01AFDDC9CF27DC1092DE0197
:101720001092DD01E7E1F2E087E011928A95E9F796
:10173000BDCF17E0189FC001112481529E4F34DEA7
:10174000811509F4B9CFE091DD011E9FF00111244C
:10175000E152FE4F20813181428153816481758144
:1017600086813DDC8091DD019091DE0101968770DC
:101770008093DD019BCF8091260286958695869584
:10178000089580912602877008959091260297709F
:1017900081E0911101C080E00895809132020895A6
:1017A00090913202982B9093320208958095982F51
:1017B000809132028923809332020895109232027E
:1017C000089590913102982B90933102089580955D
:1017D000982F8091310289238093310208951092CD
:1017E000310208950895FECF089590912702292F80
:1017F000282329F08095892380932702F4CF089528
:101800000895FECF089590912802292F28232817A4
:1018100021F0982B90932802F4CF089590912802FC
:10182000292F282329F08095892380932802E9CF46
:10183000089580912802811521F01092280280E0FD
:10184000E0CF08950F931F93CF93DF938091000112
:10185000909101018C01C091320280913102C82B1C
:1018600080912802811529F0C82B0E94481E811101
:10187000E0DFF801C083C0910001D091010148E090
:1018800050E06EE172E0CE010E94A627892B59F04C
:1018900088E0FE01AEE1B2E001900D928A95E1F799
:1018A000CE010E94CE1DDF91CF911F910F9108951F
:1018B000C9CF08950895FECF08959091AB0292FF8D
:1018C0000EC0982F990F990F990F962B909326027F
:1018D000BDDB80912602869586958695ECCFB6CBAA
:1018E0001092260280E0E7CF90912602809589230E
:1018F00080932602282F277059F4891749F0909178
:10190000AB0292FF05C0869586958695A8DBE8CF49
:1019100008959091AB0292FB222720F9281749F0F5
:1019200080FB92F99093AB028AEA92E045D082E084
:10193000DBCF08958091AB02002482FF0394802DB9
:10194000E8CF81E0E6CF80E0E4CF80E090E0BC012A
:10195000A7C380E090E0BC019DD3F7CFA3E0B0E047
:10196000E4EBFCE00C94432750D35BD31B82CE0105
:1019700003966ED381E08093DC0174D3198284E1F5
:101980008A83CE0101967FD30E94851CE2DF2396D5
:10199000E2E00C945F27E2CF089549C3089536D35F
:1019A00081110C944D1C089548C3089557C30895A0
:1019B00059C308955CC3089566C3089577C3089515
:1019C000A6E0B0E0E6EEFCE00C9441270E94FC1F8C
:1019D0008C0180913302909134028017910779F045
:1019E00019821A820E94FC1FBC0149815A8180E041
:1019F00090E00E947C0400933302109334022696F8
:101A0000E4E00C945D270E940820609339027093F3
:101A10003A0280933B0290933C02609335027093AC
:101A200036028093370290933802089508950895FE
:101A3000FDCF08950895FEDFFBCF0895FECF0895F2
:101A40000895FEDFFBCF8DEB9FE082D4F0DFF3CF74
:101A500081E0089581E00895FBCF089508950895E9
:101A60000895FCDFFCDFFCCF9ADF811101C093DF1A
:101A70008DE392E099DF8AEA92E09CDF89D496DFD9
:101A8000C3DA8091DB01D0CA0E94F31F0E94921C2E
:101A9000C5D3EADF0E94BB1D0E945C04D2CFA6E042
:101AA000B0E0E5E5FDE00C943727D4DF81110BC0F1
:101AB00087DF0E94BC1D0E9496190E94640426962E
:101AC000EEE00C945327B9D326E9822E22E0922E21
:101AD000740110E0F701C080D180812FF2D21F5F26
:101AE0001A3009F450C022E0E20EF11CC816D906E3
:101AF00089F380913D0281FDEDD2AEDF682E10E0CA
:101B0000812FDFD27C01F401A190B1904F018A15A1
:101B10009B0599F1A826BF2400E091E0C92ED12CA5
:101B2000C5018C219D21892B01F177247394C70174
:101B30008C219D21892B09F4712C611489F0602F6F
:101B4000812F0E945E1F81110BC009831A830E949E
:101B5000FC1FBC0149815A8181E0972D0E947C04C1
:101B6000472D602F812F0E94751F0F5FCC0CDD1C4D
:101B70000A30B1F6F401F292E2921F5F1A3009F0D6
:101B8000BFCF41DF96CFC816D90609F0B2CF90CFAC
:101B90000F931F93CF93DF93FCD0EC01D23508F065
:101BA00050C0D03508F0C8C0C03ED10530F5CD3C9E
:101BB000D10508F09DC0C83AD10578F4C53AD105E1
:101BC00008F093C0C130D105B1F1CE010497813A3C
:101BD000910588F1C0E0D0E02EC0CE01885A91096D
:101BE0004B97C0F7C85AD0E0CC0FDD1FCD5ADE4F5F
:101BF0000990D881C02DD4641EC0D034A8F4D0324E
:101C000008F0ADC0C83ED105B0F0CE0191509F3173
:101C100008F78D2F61D1082F8C2F90E0BAD0D02FEC
:101C2000DF71C82FD92B07C08C2F90E0B2D0DF70A6
:101C3000C82FD92BD06ACE01DF91CF911F910F9180
:101C40000895C03882E5D807B8F5C03682E5D807D0
:101C500008F056C0C03482E5D807C8F4C03282E527
:101C6000D80708F047C08C2F8695869520E2829F82
:101C7000C0011124C37021E030E002C0220F331FE5
:101C8000CA95E2F7E901C82BD92BDD68D4CF8C2F98
:101C900086958695877020E2829FC0011124C370CB
:101CA00021E030E002C0220F331FCA95E2F7E901BC
:101CB000C82BD92BDC68BFCFC03C82E5D80750F4D5
:101CC0008C2F8F71C03AD24580F5982F84EF906A9F
:101CD000EC01B1CFCE01805C9245809708F07ACFBD
:101CE000DC2FDF71C0EFD06AA6CFA497D064A3CF5A
:101CF000D065A1CF8C2F8F71D82FC1EFD06A9BCF29
:101D00008C2F86958695877020E2829FC0011124D2
:101D1000C37021E030E002C0220F331FCA95E2F702
:101D2000E901C82BD92BDA6886CFD6D0982F80E06E
:101D30009F71EC01D0627FCF8C2F8F71CDD053E09B
:101D4000CC0FDD1F5A95E1F7DF70282F84FF04C008
:101D500090E1899F90011124C22FD0696CCF8D2F03
:101D60008F71BAD0082F8C2F90E013D0302F3F7195
:101D7000282F392B3062E9015ECF462F7A3020F4CC
:101D80006A3010F4672F69C380E090E00895F5DFB2
:101D9000FFCE803E9105D1F1C8F48133910509F45D
:101DA00081C048F48932910509F471C08A329105E5
:101DB00009F47FC0089589339105E1F082389105D7
:101DC000C9F08533910509F45DC00895843E9105FD
:101DD000D1F148F4823E910531F1833E910541F104
:101DE00081EE90E00895863E9105C1F1873E910510
:101DF000F1F108952091AA02237009F064C02091A6
:101E0000AB0223FF14C089E290E008952091AA025A
:101E100020FD45C03091AB0230FF09C024FD24C035
:101E200083EE90E008952091AA0222FDF7CF089555
:101E30002091AA0222FD44C03091AB0230FD43C084
:101E400024FFF5CF11C02091AB0221FFF0CF80918C
:101E5000AA0284FD09C087EE90E008952091AA02AD
:101E600023FFE5CF24FFF7CF80E090E00895209195
:101E7000AA0223FD2BC03091AB0231FFE1CF84EEEB
:101E800090E008952091AA0225FFD1CFBCCF2091E8
:101E9000AA0225FD1EC02091AB0223FFC8CF89E313
:101EA00090E008952091AA0226FFC1CF8AE290E037
:101EB00008952091AA0226FFBACF81E390E0089509
:101EC00082EE90E0089580EE90E0089586EE90E036
:101ED000089585E390E008959091AA0292FF10C0C2
:101EE00041E0282F2471243009F040E031E0282F10
:101EF0002871283009F030E0431711F02CE08227D8
:101F000093FF10C041E0282F2471243109F040E0F4
:101F100031E0282F2871283109F030E0431711F003
:101F20002CE082273091AB0230FF10C051E0282F07
:101F30002171213009F050E041E0282F287128302C
:101F400009F040E0541711F029E0822731FF10C05A
:101F500041E0282F2171213109F040E031E0282FA4
:101F60002871283109F030E0431711F029E0822769
:101F700094FF02C083FD877E089580E00895CF938B
:101F80009C01205E3245C1E02032310538F4FB016E
:101F9000C581C11103C08F710E941F048C2FCF9186
:101FA00008959C01FB018581811599F02B359CE7F3
:101FB000390769F02C359CE7390721F02A353C4771
:101FC00021F00895B7DC80E00895BBDCFCCFBBDCDA
:101FD000FACF81E008959C01FB018581811599F07C
:101FE00021309CE7390761F023309CE7390739F04D
:101FF00021153C4749F40E943C0480E00895CDDC63
:102000000E944004FACF81E00895089580E090E0B6
:102010000E94BE279C0181E0233E3E4F09F080E0F4
:10202000089563EE7EEF80E090E00C94EC276FEF74
:102030007FEF80E090E00C94EC27CF93DF93EC01EE
:1020400082E090E00E94B6278883DF91CF910895C7
:10205000FC01608182E090E00C94D22783E090E064
:102060000C94B627682F83E090E00C94D227CF938E
:10207000DF93EC0184E090E00E94BE27888399837F
:10208000DF91CF910895FC016081718184E090E03F
:102090000C94EC27AB01BC018FE090E00C94E4279A
:1020A000AB01BC0183E190E00C94E427682F8EE043
:1020B00090E00C94D2270895FECF08950895FECFA6
:1020C0000895E82FF0E0EE0FFF1FE054FD4F8081F0
:1020D00091810895089580EA8A95F1F7089500C0E6
:1020E0000895F9CF0895F894E82FE295EF70F0E0A5
:1020F00041A18F7021E001C0220F8A95EAF7922F4B
:102100009095942391A392A1822F892B82A37894F6
:102110000895CF93DF93C3E9D1E089918F3F09F010
:10212000E2DF81E0CD39D807C1F7C9E8D1E0899174
:102130008F3F09F0D8DF81E0C339D807C1F7DF91BD
:10214000CF910895AF92BF92DF92EF92FF920F93DB
:102150001F93CF93DF935C01D62EC62FD0E08E0164
:102160000D561E4FF80180818F3F09F44BC0F89443
:10217000E82FE295EF70F0E091A18F7021E001C0AF
:10218000220F8A95EAF7892F822B81A382A12095BD
:10219000282322A37894A3DFE9E8F1E021E030E0EE
:1021A000E12CF12C41914F3F79F0A42FA295AF7013
:1021B000A05EB0E08C9190E04F7002C0959587953D
:1021C0004A95E2F780FF28C080E090E0E82AF92AEB
:1021D000220F331F81E0E339F80721F7F8018081EE
:1021E0008F3F09F080DF61E0E114F10409F460E061
:1021F0008D2D77DFCC0FDD1FC5018C0F9D1FEC01EE
:10220000E882F982DF91CF911F910F91FF90EF90BB
:10221000DF90BF90AF900895C901D8CF7ADFE0EC8E
:10222000F2E084E111928A95E9F7ECEAF2E084E1C8
:1022300011928A95E9F73CD03FCFA4E1B0E0E3E208
:10224000F1E10C944027FE013196DF0184E11D92FB
:102250008A95E9F710E00E2FFF2E612F802F9F2D1A
:1022600071DF812F8F5F182F8A30B9F744E150E07A
:10227000602F7F2D8CEA92E00E94A62741E0892BF7
:1022800069F440E060EC72E08CEA92E012D0182F22
:1022900016DF812F6496E5E00C945C2784E1E02F43
:1022A000FF2DACEAB2E001900D928A95E1F7EACFFA
:1022B0000895EF92FF920F931F93CF93DF938C01BA
:1022C0007B01C42F411579F081E0809340020E9488
:1022D000FC1F80933E0290933F0280E0CDB7DEB7B3
:1022E000E6E00C945B27D0914002D115B1F38091C8
:1022F0003E0290913F020E948D1F059770F344E1CA
:1023000050E0B801C7010E94A627892B41F084E163
:10231000F801D70101900D928A95E1F7CD2F109227
:1023200040028C2FDBCFBBCB08950E94961F0E94EA
:10233000C42189DB0E94DC21A7DB0E94E5210E94E9
:10234000E821F1DF0E94FE210E94B0208ADBF7CF56
:102350008093AC019093AD0108950C943B1E0895B9
:102360001CCB089580E0ADDE8170089566DF8FEFAD
:1023700096E721E0815090402040E1F700C0000046
:102380005CDFF0DF811519F0EBDF0C943820089545
:10239000EDCF0895A1E0B0E0E0EDF1E10C943F272E
:1023A0007C01FC0160817181828193819E012F5F9C
:1023B0003F4F890140E050E09D0195D1F7018081B8
:1023C0009181A281B3810196A11DB11D808391836A
:1023D000A283B38389812196E6E00C945B2784E095
:1023E0000895C8C00895F0C008951F93CF93DF9358
:1023F000BFD0D0E0C0E010C0412F6C2F8D2F0E94C5
:1024000037039C01412F6C2F8D2FDED01F5F1A30B8
:1024100099F7CF5FCA3011F010E0EECFDF5FD43014
:1024200049F7DF91CF911F9108950F931F938A0170
:102430009B0140E050E0BC01CA01ECD01F910F911C
:1024400008950F931F938A019B0140E050E0BC0167
:10245000CA010DD11F910F910895843028F46A307C
:1024600018F44A3008F486C080E090E0089580E1D6
:10247000089534D1CB0108950F931F938A019B01D6
:1024800040E050E0BC01CA012ED11F910F91089588
:102490000F931F938A019B0140E050E0BC01CA01E9
:1024A00068D11F910F91089564D095C16F927F926A
:1024B0008F929F92BF92CF92DF92EF92FF920F93F3
:1024C0001F93CF93DF9300D000D0CDB7DEB7B82EE7
:1024D000803120F503D161507109810991097E0194
:1024E0002FEFE21AF20A870121E030E040E050E0ED
:1024F000FAD08981811112C0F1D03B014C01E12C4D
:10250000F12C6701B1101CC0C982DA82EB82FC8217
:1025100040E0B8018AEC91E10E94041B0F900F90FB
:102520000F900F90DF91CF911F910F91FF90EF903F
:10253000DF90CF90BF909F908F907F906F90089585
:10254000C301D401C816D906EA06FB0639F321E017
:1025500030E040E050E0B601C701C5D089819FEF6F
:10256000C91AD90AE90AF90A8111EACFBA94CACF7D
:10257000089508950F931F93CF93DF93843008F548
:102580006A30F8F44A30E8F4C42FD0E0CC0FDD1FF5
:1025900094E1699FC00DD11D112498EC899FC00D55
:1025A000D11D1124CE0189960E94B627082FCE0195
:1025B0008A960E94B627902FDF91CF911F910F919D
:1025C000089580E090E0F8CF1F93CF93DF93122F10
:1025D0008430E0F46A30D0F44A30C0F4C42FD0E044
:1025E000CC0FDD1F24E1629FC00DD11D112498EC9A
:1025F000899FC00DD11D1124632FCE0189960E94A1
:10260000D227612FCE018A960E94D227DF91CF91E7
:102610001F910895A0E0B0E0E0E1F3E10C943927C8
:102620006B017C01E8012C0D3D1D4E1D5F1D490114
:102630005A01C814D904EA04FB0429F4CDB7DEB763
:10264000ECE00C94552780E2C81683E0D806E1043C
:10265000F10458F4C60189960E94B62789938FEF3A
:10266000C81AD80AE80AF80AE4CF80E0F7CF8F92B8
:102670009F92AF92BF92CF92DF92EF92FF920F9311
:102680001F936B017C012C0D3D1D4E1D5F1D4901EB
:102690005A01C814D904EA04FB0459F41F910F919C
:1026A000FF90EF90DF90CF90BF90AF909F908F9072
:1026B000089580E2C81683E0D806E104F10430F4FE
:1026C000F8016081C60189960E94D2270F5F1F4FD3
:1026D0008FEFC81AD80AE80AF80ADBCF67EB70E078
:1026E00080E090E008954F925F926F927F928F9278
:1026F0009F92AF92BF92EF92FF920F931F93CF934F
:10270000DF934B015C0129013A01E8017B0187EB72
:10271000E81A8CEFF80A00E010E0C201D3010817B4
:1027200019071A061B0678F0DF91CF911F910F91C0
:10273000FF90EF90BF90AF909F908F907F906F90A1
:102740005F904F900895C401D501800F911FA11D86
:10275000B11D873B9105A105B10548F4C701800F64
:10276000911F0E94B62789930F5F1F4FD6CF80E03D
:10277000FACFA0E0B0E0EFEBF3E10C9437276B0168
:102780007C0149015A013801EB01C75BDC4F8D0127
:10279000C401D501081719071A061B0628F0CDB782
:1027A000DEB7EEE00C945327C601D701800F911FCE
:1027B000A11DB11D873B9105A105B10548F4F301A9
:1027C000E00FF11F6081CE01800F911F0E94D22780
:1027D0000F5F1F4FDDCFA0E1B0E0E1EFF3E10C941C
:1027E0003527FE013196DF0180E11D928A95E9F7D8
:1027F0000CE010E097EB492E512C612C712C29E450
:10280000A22E23E0B22E9E2E8F2E6201730181E153
:1028100048165104610471041CF080E1C82ED12CCB
:10282000A601B501892D982D0E94C327AC0CBD1CB3
:102830000D2C000C00084C185D0860087008015051
:10284000104019F76096E0E10C945127CF93DF9385
:10285000EB0186319C4711F50E94CD0B9D819115AE
:1028600099F08A7A91E0811101C090E09093410241
:10287000811541F085E30E94981E1AD880E0DF910F
:10288000CF91089589E2F7CF80914102811521F01F
:1028900085E30E949E1EF1CF89E2FBCF81E0EFCF5E
:1028A000A0E0B0E0E6E5F4E10C943627EC01E88026
:1028B000F980C701815A92454F9720F480EAE826B3
:1028C00082E5F826FB01A581A11509F448C2F1149F
:1028D000A9F089E5E8168CE7F80641F0109242026B
:1028E0008A2FCDB7DEB7EFE00C94522780914202D9
:1028F00091E0892780934202A0E0F2CF80914202CA
:10290000811509F4E1C010924202C701803C910593
:10291000F0F58038910508F0A2C0F701E054F10904
:102920008F01E034F10508F469C021E030E040E0B7
:1029300050E0BA01CA010E2D0E946A27B0914302ED
:102940002B2BB09144023B2BB09145024B2BB09105
:1029500046025B2BB09147026B2BB09148027B2B58
:10296000B09149028B2BB0914A02B92B20934302BC
:1029700030934402409345025093460260934702CD
:102980007093480280934902B0934A0234C021E018
:1029900030E040E050E0BA01CA01F701E05CF10923
:1029A0008F010E946A27B0915B022B2BB0915C02D1
:1029B0003B2BB0915D024B2BB0915E025B2BB09133
:1029C0005F026B2BB09160027B2BB09161028B2B6D
:1029D000B0916202B92B20935B0230935C0240936A
:1029E0005D0250935E0260935F0270936002809379
:1029F0006102B0936202E882F98272CF21E030E096
:102A000040E050E0BA01CA010E946A27B0914B022F
:102A10002B2BB0914C023B2BB0914D024B2BB09124
:102A20004E025B2BB0914F026B2BB09150027B2B6F
:102A3000B09151028B2BB0915202B92B20934B02D3
:102A400030934C0240934D0250934E0260934F02DC
:102A50007093500280935102B0935202CCCF21E088
:102A600030E040E050E0BA01CA01F701E058F10956
:102A70008F010E946A27B09153022B2BB091540210
:102A80003B2BB09155024B2BB09156025B2BB09172
:102A900057026B2BB09158027B2BB09159028B2BB4
:102AA000B0915A02B92B20935302309354024093B1
:102AB00055025093560260935702709358028093C8
:102AC0005902B0935A0297CFC7018034910508F09C
:102AD0004EC06090430270904402809045029090F6
:102AE0004602D0914702C0914802B0914902F0914C
:102AF0004A0221E030E040E050E0BA01CA010E2D68
:102B00000E946A27A62CA222B72CB322C82CC4226A
:102B1000D92CD522ED2EE622FC2EF7220B2F0823EE
:102B20001F2F19230E94832709F0DACE20953095B4
:102B30004095509560957095809590952621372108
:102B4000482159216D237C238B239F23209343020B
:102B500030934402409345025093460260934702EB
:102B6000709348028093490290934A02C5CE803800
:102B7000910508F050C050904B0260904C0270904C
:102B80004D0280904E0290904F02D0915002C09121
:102B90005102B0915202F701E0540E2F21E030E0D3
:102BA00040E050E0BA01CA010E946A27A52CA22287
:102BB000B62CB322C72CC422D82CD522E92CE6226D
:102BC000FD2EF7220C2F08231B2F19230E94832789
:102BD00009F086CE2095309540955095609570957A
:102BE00080959095252136214721582169217D2303
:102BF0008C239B2320934B0230934C0240934D0235
:102C000050934E0260934F02709350028093510292
:102C10009093520271CE803C910508F050C05090C4
:102C2000530260905402709055028090560290902A
:102C30005702D0915802C0915902B0915A02F7013F
:102C4000E0580E2F21E030E040E050E0BA01CA0128
:102C50000E946A27A52CA222B62CB322C72CC4221C
:102C6000D82CD522E92CE622FD2EF7220C2F0823A2
:102C70001B2F19230E94832709F032CE209530950F
:102C800040955095609570958095909525213621B9
:102C90004721582169217D238C239B2320935302B4
:102CA000309354024093550250935602609357025A
:102CB000709358028093590290935A021DCE5090FF
:102CC0005B0260905C0270905D0280905E0290906A
:102CD0005F02D0916002C0916102B0916202F7017F
:102CE000E05C0E2F21E030E040E050E0BA01CA0184
:102CF0000E946A27A52CA222B62CB322C72CC4227C
:102D0000D82CD522E92CE622FD2EF7220C2F082301
:102D10001B2F19230E94832709F0E2CD20953095BF
:102D20004095509560957095809590952521362118
:102D30004721582169217D238C239B2320935B020B
:102D400030935C0240935D0250935E0260935F0299
:102D5000709360028093610290936202CDCDA1E0F6
:102D6000F110BECDC7018034910538F521E030E087
:102D700040E050E0BA01CA010E2D0E946A27A090DF
:102D80004302A222B0904402B322C0904502C42262
:102D9000D0904602D522E0904702E622F090480209
:102DA000F72200914902082310914A021923A1E059
:102DB0000E94832709F094CD9FCD8038910518F5A6
:102DC000F701E0540E2F21E030E040E050E0BA017E
:102DD000CA010E946A27A0904B02A222B0904C0226
:102DE000B322C0904D02C422D0904E02D522E09072
:102DF0004F02E622F0905002F72200915102082380
:102E000010915202D3CFF701803C910510F5E058A4
:102E10000E2F21E030E040E050E0BA01CA010E94EC
:102E20006A27A0905302A222B0905402B322C0900D
:102E30005502C422D0905602D522E0905702E622D5
:102E4000F0905802F72200915902082310915A027B
:102E5000ADCFE05C0E2F21E030E040E050E0BA0161
:102E6000CA010E946A27A0905B02A222B0905C0275
:102E7000B322C0905D02C422D0905E02D522E090C1
:102E80005F02E622F0906002F722009161020823BF
:102E9000109162028BCFCF93DF93EC01FB01858110
:102EA000811509F4CBC09E0130572332310508F05B
:102EB000ABC08AEA92E00E94DA0CFE01E150F047D2
:102EC000E232F10520F4E25FF74D0C942627809161
:102ED000AA0281608093AA0290C08091AB028860B0
:102EE0008093AB028AC08091AA028260F3CF809166
:102EF000AA028460EFCF8091AA028860EBCF809114
:102F0000AB028160EDCF8091AB028260E9CF80910E
:102F1000AA028061DFCF8091AA028062DBCF80911C
:102F2000AA028064D7CF0E94B5078091AA02806868
:102F3000D1CF8091AA028C60CDCF8091AB0283600B
:102F4000CFCF8091AA028E7FC5CF8091AB02877FC1
:102F5000C7CF8091AA028D7FBDCF8091AA028B7FBF
:102F6000B9CF8091AA02877FB5CF8091AB028E7FC7
:102F7000B7CF8091AB028D7FB3CF8091AA028F7EB5
:102F8000A9CF8091AA028F7DA5CF8091AA028F7BC5
:102F9000A1CF0E94B5078091AA028F779BCF809125
:102FA000AA02837F97CF8091AB028C7F99CF9091BB
:102FB000AA02892F8B7F92FF8460877F92FF8860AF
:102FC00089CF8091AB02982F909590FB80F990FB70
:102FD00081F986CF9091AA02892F8F7B96FF80641A
:102FE00079CF0E94B5079091AA02892F97FB87F9A4
:102FF000805870CF81E00E94DE0C8AEA92E00E9445
:10300000DC0C0E94B50780E0DF91CF91089580E04D
:10301000F2CF9091AA02892F8F7E94FF80615ACFC0
:103020009091AA02892F8E7F90FF816053CF90915B
:10303000AB02892F877F93FF886052CF81E0E4CF76
:10304000382F25EB3203C001112497FF04C08058AC
:103050009109892F089580589F4FFBCF8091690275
:1030600080FF0DC06091070170E0660F771F603828
:10307000710588F56115710581F1862F089581FF2D
:1030800007C06091070184E0689FB0011124EFCF71
:1030900082FF04C06091070188E0F6CF909168023A
:1030A0009115B9F06091060180910701961728F0FB
:1030B00098E0899FB0011124DACF899FC0011124C3
:1030C00023E0880F991F2A95E1F770E00E941327EB
:1030D000CECF68E0D2CF8FE7089581E00895809148
:1030E000690280FF0CC06091030170E075956795DF
:1030F000759567956115710541F1862F089581FFDA
:1031000006C06091030170E075956795F3CF6091FB
:10311000030182FD0BC0909167029115A1F06091AF
:10312000020180910301961738F0682F70E0603833
:10313000710500F38FE70895899FC001112470E0A5
:103140000E941327F4CF61E0D8CF81E00895E82FE3
:10315000ED5CE33198F5F0E0E05DF74D0C94262747
:103160007DDF819580936D02089578DFFBCF76DF58
:10317000819580936C02089571DFFBCFB0DF80935F
:103180006E020895ACDF8195FACFA9DF8195809317
:103190006F020895A4DFFBCF815D990B21E001C090
:1031A000220F8A95EAF780916B02822B80936B0243
:1031B00008958091690281608093690208958091E9
:1031C00069028260F9CF809169028460F5CF4091F5
:1031D0006C028D3C59F480916D0287FF0DC01092F6
:1031E0006D02411559F41092680208C08E3C81F4BA
:1031F00080916D0218169CF3411581F080916E024A
:1032000090916F02892B09F056C0109267020895C1
:103210008F3C41F447FFF0CF10926C0280916D0219
:103220008115E0CF803D19F41416B4F3E5CF9091E9
:103230006E02893D29F41916FCF610926E02DCCF5D
:103240008A3D19F497FFD8CFF8CF90916F028B3D4C
:1032500029F497FFD1CF10926F02CECF8C3D19F495
:103260001916CCF3C9CF982F915D983078F4815D11
:10327000990B21E001C0220F8A95EAF7822F8095F1
:1032800090916B02892380936B02B6CF8D3D31F410
:10329000809169028E7F80936902AECF8E3D21F4CA
:1032A000809169028D7FF7CF8F3D09F0A5CF809186
:1032B00069028B7FF0CF08959FD69C0190916C029C
:1032C00080916D02982B21F0209365023093660265
:1032D00090916E0280916F02982B21F020936302EF
:1032E000309364028AE692E066C4EAE6F2E086E0A1
:1032F00011928A95E9F71092680210926702109273
:1033000069020895FC01828181110EC083818111BF
:103310000BC08481811108C091E08581811101C0B9
:1033200090E0892F8170089581E0FCCFA6E0B0E0A5
:10333000ECE9F9E10C94402786E0EAE6F2E09E0130
:103340002F5F3F4FD90101900D928A95E1F71092BE
:103350006C0210926D0210926E0210926F028B81BD
:103360009C81892B022FF32E811581F080916502BB
:1033700090916602D2D5AC01909168029115A1F1AD
:10338000809108018417150608F43BC08D819E8149
:10339000892B89F08091630290916402BED5AC01C3
:1033A00090916702911509F45AC080910401841725
:1033B000150608F462C0602F7F2D8AE692E0CED415
:1033C000811104C08AE692E09DDF811175DF86E0FD
:1033D000E02FFF2DAAE6B2E001900D928A95E1F769
:1033E0002696E5E00C945C27209109018AE0289F4D
:1033F000900111242417350748F69F5F90936802C7
:1034000002C09F3FD1F71B81111551F027DE91E0DB
:1034100011160CF09FEF899F802D112480936C0270
:103420001C81111551F01ADE91E011160CF09FEF7E
:10343000899F802D112480936D0280916C028115EB
:1034400009F4A4CF10916D02111509F49FCFF8DD96
:1034500080936C02812FF4DD80936D0297CF2091D1
:1034600005018AE0289F900111242417350708F0F0
:10347000A2CF9F5F9093670202C09F3FD1F71D814B
:10348000111551F02CDE91E011160CF09FEF899F81
:10349000802D112480936E028E81182F811551F09A
:1034A0001EDE91E011160CF09FEF899F802D1124F4
:1034B00080936F0280916E02811509F47CCF909108
:1034C0006F02192F911509F476CFBADD80936E0241
:1034D000812FB6DD80936F026ECFA0E0B0E0E3E70E
:1034E000FAE10C943C27E82FF0E0E453FC4F949170
:1034F000B92E282F26952695269530E0F901E45916
:10350000FB4FE4908770F12C082E02C0F594E794ED
:103510000A94E2F7F901E45AFB4FC490D12C082E2B
:1035200002C0D594C7940A94E2F7245B3B4FF9019B
:10353000049110E002C0159507958A95E2F7C62F11
:10354000D0E0E0FC25C0C0FE06C086EE0E94BC04B0
:10355000CE01009759F5BE018B2D0E949305CE0137
:10356000009761F5C0FC32C0E0FE06C081EE0E940B
:103570004105CE010097C1F500FF05C08CE20E9415
:10358000A9052097C9F5CDB7DEB7E9E00C94582717
:1035900081EE0E94BC04CE010097A9F2EFE9FFE0A2
:1035A0003197F1F700C000000197F6CFEFE9FFE097
:1035B0003197F1F700C000000197CBCFEFE9FFE0B2
:1035C0003197F1F700C000000197CACF86EE0E9444
:1035D0004105CE01009741F2EFE9FFE03197F1F7A5
:1035E00000C000000197F6CFEFE9FFE03197F1F757
:1035F00000C000000197BECF8FE99FE00197F1F76F
:1036000000C000002197BDCFA0E0B0E0EAE0FBE100
:103610000C943C278C017B01B42EC701F80109955D
:103620008130A0F009F05BC0C701F8010995C82FEF
:10363000813089F4C701F80109950E94A9058B2DF5
:1036400090E0009709F043C0C111E7CFCDB7DEB7D6
:10365000E9E00C945827823031F4C701F80109954C
:103660000E94BC04ECCF833031F4C701F801099506
:103670000E944105E4CF843011F7C701F801099594
:10368000C82FC12CD12CDAE02C2F30E0C9010E94C8
:10369000A027892B69F4C114D10489F28FE99FE036
:1036A0000197F1F700C0000081E0C81AD108F3CFFC
:1036B000DC9DC001DD9D900D11242053310969016D
:1036C000C80ED91EC701F8010995C82FDDCFEFE953
:1036D000FFE03197F1F700C000000197B2CF6B2DEA
:1036E000FCDE9BCF0F931F93CF93DF93C42FD22F7A
:1036F000FC0185818115C9F0409372027DD48093CD
:103700007002909371028C2F805E883048F481E0C3
:10371000C1FD84E0C0FD880FC2FD82950E94B00506
:10372000DF91CF911F910F910895109172021413A0
:1037300033C08091700290917102EFD3883C910563
:1037400058F5CD2FC05E1D17C1F0812F805E8830E7
:1037500048F481E011FD84E010FD880F12FD829590
:103760000E94B505C83048F481E0D1FD84E0D0FD69
:10377000880FD2FD82950E94B005802F0E94A90576
:1037800081E0D1FD84E0D0FD880FD2FD8295C83064
:1037900038F60E94B505C4CF8C2F805E883008F0C3
:1037A000BFCF81E0C1FD84E0C0FD880FC2FD8295DE
:1037B000F0CF0F93FC01CB01E851FC47E730F10556
:1037C00088F5ED5BF74D0C94262706E221EE41EEDD
:1037D0006AE17CE787DF80E00F91089507E225EE3C
:1037E00045EE6BE17CE7F6CF06E221EE40EE68E1C4
:1037F0007CE7F0CF07E225EE44EE69E17CE7EACF13
:1038000006E221EE42EE6CE17CE7E4CF07E225EE32
:1038100046EE6DE17CE7DECF08E221E045EE6EE1A9
:103820007CE7D8CFFB01858181111092720281E083
:10383000D3CFCF93DF9387372CE7920739F08837C0
:103840009C47D1F081E0DF91CF910895FB01858104
:10385000811571F019D00E9426081CD0C82F17D0EE
:10386000D82F12D04C2F6D2F0E94340980E0EBCF5F
:103870000BD00E942F08F1CFFB018581811511F03B
:1038800006D0E9CF04D0F5CF80910C010895809146
:103890000B01089580910A010895A3E0B0E0E3E5EB
:1038A000FCE10C944327CE010196AC010196BC01CA
:1038B000019613D18B81863239F48A81843021F4C8
:1038C00081E09981933009F080E081702396E2E0F5
:1038D0000C945F27811521F043E064E086E223C168
:1038E0004FEF6FEF8FEFFBCF08950895CF92DF92E8
:1038F000EF92FF926B017C01F8DFB601C70132D174
:10390000FF90EF90DF90CF900895E6D080E0E2DF67
:1039100080E090E0BC01EADF0E94F5110E945412A1
:1039200081E0D8CFE1DF15D1E0DFB7DF811101C041
:10393000ECCF089508959C01FB018581811551F01C
:10394000A90157574038510530F4822F0E94561272
:1039500080E0089581E008952FEFFC012083089511
:10396000FBCF089580E008951F93CF93DF93EC0180
:10397000162FF8DF811110C0E881E150E331C0F467
:10398000F0E0E65BF74D0C94262719828CE08A83E1
:10399000612FCE010E94AD11DF91CF911F9108954B
:1039A00089818330C9F038F4813061F0823091F040
:1039B0008FEF8883EDCF8430D9F71A821B821C8267
:1039C0001D82E6CF25D30E942C276A837B838C83BC
:1039D0009D83DECFBED0F7CF8A8190E0FE018A3092
:1039E0009105B4F63296118212820196F8CF898140
:1039F000823029F08530E1F68A819CDFC9CF6A8167
:103A00007B818C819D810E942C2770DFC1CF4B81EF
:103A10006A8189810E94F1119C013827232732276E
:103A20002C833D83B5CF2C813D813227232732273C
:103A30004B816A8189810E94F311AACF0E94F511FE
:103A4000A7CF612FCE018CDFA3CF0E9437128983CD
:103A50009FCF0E9439129C013827232732272983C0
:103A60003A8396CF6B8170E089819A819827892764
:103A70009827AE014C5F5F4F0E943C1289CF6B814B
:103A800070E089819A81982789279827AE014C5F39
:103A90005F4F0E9448127CCF0E94541279CF0E943F
:103AA000EF11D5CF6B8170E089819A8198278927A2
:103AB0009827AE014C5F5F4F0E94151269CF6B8152
:103AC00070E089819A81982789279827AE014C5FF9
:103AD0005F4F0E9421125CCF0895EF92FF920F93E7
:103AE0001F93CF93DF937C018B01EA01892B31F087
:103AF00085E290E00E94B627F70180830115110549
:103B000031F086E290E00E94B627F801808320978A
:103B100029F087E290E00E94B6278883CDB7DEB710
:103B2000E6E00C945B27CF93DF93C62FD42F682F4A
:103B300085E290E00E94D2276C2F86E290E00E94FE
:103B4000D2276D2F87E290E00E94D227DF91CF919C
:103B5000089588E290E00E94B627682F70E080E028
:103B600090E0089588E290E00C94D2278093770249
:103B700090937802089508950895E0917702F09166
:103B80007802309739F00190F081E02D309711F0F4
:103B90000995089580E00895F0CF0895E0917702A7
:103BA000F0917802309731F00280F381E02D309768
:103BB00009F009950895E0917702F0917802309725
:103BC00059F026813781232B39F022E0DC012C9338
:103BD0000680F781E02D09950895A3E0B0E0E3EFBA
:103BE000FDE10C944327209175023091760228174D
:103BF0003907B1F08093750290937602E0917702D5
:103C0000F0917802309761F00084F185E02D3097D3
:103C100039F023E029838A839B83CE01019609959D
:103C20002396E2E00C945F27A3E0B0E0EAE1FEE136
:103C30000C9443272091730230917402281739079E
:103C4000B1F08093730290937402E0917702F09147
:103C50007802309761F00084F185E02D309739F0DB
:103C600024E029838A839B83CE01019609952396BC
:103C7000E2E00C945F27E0917702F09178023097B0
:103C800031F00284F385E02D309709F0099508950D
:103C900040910001509101019A012E5F3F4F485F12
:103CA0005F4F80E0F90190812F5F3F4F91118F5F4F
:103CB00042175307B9F70895811591F0209100013B
:103CC00030910101F9013296285F3F4F908198179A
:103CD00031F03196E217F307C9F780E0089581E0EB
:103CE00008959C01FC01329680E09FEF40814617C9
:103CF00059F031969F3F19F4411101C0982F8F5F01
:103D00008630A1F79F3F09F40895290F311D97FDD3
:103D10003A95F90162830895FC0132960896219143
:103D2000261302C0DF011E92E817F907C1F70895B4
:103D3000682F8091000190910101D3CF682F80916D
:103D4000000190910101E8CFE0910001F0910101A3
:103D5000329686E011928A95E9F70895DC01FB011D
:103D600011969C9111978181981322C012968C9183
:103D70001297811519F0928189131AC013968C91AC
:103D80001397811519F09381891312C015968C91A0
:103D90001597811519F0958189130AC014969C9185
:103DA000911521F081E02481291303C080E001C036
:103DB00081E0817008950895FECF08958F5F80930C
:103DC000100160910D0170910E0180910F01909191
:103DD0001001F2CF83E08093100160910D0170918A
:103DE0000E0180910F0190911001E6CFE7CF089569
:103DF00081E08093100160910D0170910E0180911E
:103E00000F0190911001D8CFF3CF089591E0811167
:103E100001C090E090930F0160910D0170910E012F
:103E200080910F0190911001C7CF80910F010895EB
:103E300080930E0160910D0170910E0180910F0130
:103E400090911001B9CF80910E01089580930D01DA
:103E500060910D0170910E0180910F019091100100
:103E6000ABCF80910D01089508950895FECF089578
:103E700008950895F9CF08950F931F93CF93DF937B
:103E8000F7DF0E941D11F5DF09E712E0C0E0D0E086
:103E90008C2F0E9461109C01F801819331938F0156
:103EA00091E0232B09F490E0D92BCF5FCA3081F742
:103EB0008D2FDF91CF911F910F910895E82FF0E0A2
:103EC000EE0FFF1FE758FD4F81E090E002C0880F22
:103ED000991F6A95E2F7BC0180819181682379235B
:103EE00081E0672B09F480E00895411115C0E82FA7
:103EF000F0E0EE0FFF1FE758FD4F81E090E002C0B9
:103F0000880F991F6A95E2F78095909520813181FD
:103F100082239323808391830895CF93DF93EC01D1
:103F20006BD08C1B9D0BDF91CF91089585B7806876
:103F300085BF85B7806885BF08951F921FB61F9201
:103F400011248F939F93AF93BF9380918D02811122
:103F500013C08091D4029091D502A091D602B09165
:103F6000D7024196A11DB11D8093D4029093D50232
:103F7000A093D602B093D702BF91AF919F918F913A
:103F80001F901FBE1F9018958091DC02843031F184
:103F90000E94440410928D0288E190E020E40FB664
:103FA000F894A895809360000FBE2093600083B7BB
:103FB000817F846083BF83B7816083BF7894889555
:103FC00083B78E7F83BF0FB6F894A8958091600069
:103FD000886180936000109260000FBE08950E9477
:103FE000B5070C94480482E084BD93E095BD9AEF38
:103FF00097BD80936E0008952FB7F8948091D402F6
:104000009091D502A091D602B091D7022FBF08950A
:104010002FB7F8946091D4027091D5028091D602A6
:104020009091D7022FBF089578941F921FB61F92C8
:1040300011248F939F93AF93BF938091D40290915B
:10404000D502A091D602B091D7020196A11DB11D53
:104050008093D4029093D502A093D602B093D70256
:10406000BF91AF919F918F911F901FBE1F90189588
:1040700081E08093E00080E28093D8001092C90034
:104080008FE19EE40197F1F700C00000A7E0B0EBDC
:10409000CD018093E5029093E602A093E702B093EE
:1040A000E80288E19CE00FB6F894A8958093600040
:1040B0000FBE90936000FFCF88E19CE00FB6F894AC
:1040C000A895809360000FBE90936000FFCF089585
:1040D0009B01BA019091DC029430D9F48F708093E7
:1040E000E9009FEF8091E80085FD06C085ED8A9587
:1040F000F1F700009150B1F78091E80085FF09C009
:1041000040E050E0C901EED18091E8008E778093C5
:10411000E8000895603229F440E250E0BC0182E0FA
:10412000D7CF089543E050E0BC0184E0D1CF46E012
:1041300050E0BC0184E0CCCFCF93DF93EC0175DE7F
:1041400048E050E0BE0181E0C3DF88E0FE01AEE858
:10415000B2E001900D928A95E1F7DF91CF91089539
:10416000A0E2B0E0E5EBF0E28EC68091DC028430A4
:10417000F1F483E08093E9008091E80082FF17C0AA
:104180008091E80090E085FF07C040E050E0BD016D
:10419000CE010196F3D191E08091E8008B77809376
:1041A000E800911521F060E2CE010196DDDBA096DA
:1041B000E2E085C68091DB02811107C066D3B6D3E9
:1041C0008091E20084608093E20008951092DB0207
:1041D00008950EDE81E01ACE6091D80281E061116F
:1041E00001C080E0F7CD9091DC0281E0943009F0CD
:1041F00080E06091D802FACD42E061EC81E0C1D26A
:1042000042E261EC84E0BDD242E261EC82E0B9D2EC
:1042100042E260EC83E0B5D29091DC0281E0943020
:1042200009F080E06091D802C9CD8091DE0289302A
:1042300081F148F4823009F497C0833009F458C002
:10424000813041F008958A3009F481C08B3009F43F
:1042500069C008958091DD02813A09F048C08091DB
:10426000E800877F8093E8008091E1029091E2026C
:10427000892B59F060E080E090E070E0CBD1809134
:10428000E8008B778093E800089568E08EE892E07C
:10429000F4CF8091DD02813251F58091E10290915D
:1042A000E2028D7F892B19F58091E800877F80934A
:1042B000E8008091E80082FF16C02091F300809111
:1042C000F200922F029731F48091F100813011F0C9
:1042D000863019F48091F100ABDD8091E8008B7796
:1042E0008093E80082C28091DC028111E2CF0895C0
:1042F0008091DD02813AD9F78091E1029091E2024A
:10430000892BA9F78091E800877F8093E80080914E
:10431000E80080FFFCCF89DD8093F1008091E80008
:104320008E77DECF8091DD02813209F78091E10244
:104330009091E202892BD9F68091E800877F8093E3
:10434000E80053D28091DF0261DD0C94B5078091C3
:10435000DD02813261F68091E800877F8093E8007A
:1043600044D28091E00272CD8091DD02813A09F061
:10437000BECF8091E800877F8093E8008091E800BD
:1043800080FFFCCF6EDDC8CF84B7877F84BF0FB6B8
:10439000F894A895809160008861809360001092E5
:1043A00060000FBE80E890E00FB6F8948093610043
:1043B000909361000FBE28CD68D2B8D2E2EEF0E053
:1043C000808184608083789415C581E191E0CECBB3
:1043D0008091DC02853029F48091DC02853011F077
:1043E000FECD0895D1DD48DD8115B1F38091DA026B
:1043F000811591F361D00E94B507EECF08959A011F
:104400004091E3025091E40200C0492F50E0433054
:104410005105D1F078F44130510509F448C04230DB
:10442000510571F48BE590E04CEA54E0F9014083CA
:104430005183089541325105E9F04232510539F175
:1044400080E090E040E0F2CF482F50E0813061F012
:104450004230510561F0E8EAF4E04115510581F779
:10446000849190E0AF01E2CFECE8F4E0F9CFECE723
:10447000F4E0F6CF6330710518F7660F771FFB0184
:10448000EA55FE4F4081518189E090E0CFCF633003
:104490007105B0F6FB01EE0FFF1FE056FE4F4081A5
:1044A000518163567E4FFB01808190E0BFCF82E156
:1044B00090E047E055E0BACF80E189BD82E189BD57
:1044C00009B400FEFDCF8091D8008F7D8093D80085
:1044D0008091E00082608093E0008091E00081FDA7
:1044E000FCCF0895AF92BF92CF92DF92EF92FF92EE
:1044F0001F93CF93DF937C01EB016A0195D1182FB5
:10450000811122C0C114D10439F0F601808191815A
:10451000C81BD90BE80EF91EA12CB12C2097A1F0D5
:104520008091E80085FD20C08091E8008E7780931F
:10453000E800C114D10499F0F601808191818A0DBF
:104540009B1D8083918315E0812FDF91CF911F9177
:10455000FF90EF90DF90CF90BF90AF90089564D11F
:104560008115F1F2182FF0CFF70181917F0180932F
:10457000F10021978FEFA81AB80AD0CFAF92BF925F
:10458000CF92DF92EF92FF921F93CF93DF937C0144
:10459000EB016A0149D1182F811122C0C114D10445
:1045A00039F0F60180819181C81BD90BE80EF91E04
:1045B000A12CB12C2097A1F08091E80085FD20C0AE
:1045C0008091E8008B778093E800C114D10499F0C2
:1045D000F601808191818A0D9B1D8083918315E076
:1045E000812FDF91CF911F91FF90EF90DF90CF90BF
:1045F000BF90AF90089518D18115F1F2182FF0CF28
:104600008091F100F70181937F0121978FEFA81A24
:10461000B80AD0CFFC018091E3029091E4028617A2
:10462000970720F06115710561F0CB0140E000971C
:1046300071F441110CC08091E80082FF36C080E027
:1046400008958091E8008E778093E800EECF209166
:10465000DC022115B1F12530B1F12091E80023FDF4
:104660002EC02091E80022FDE6CF2091E80020FF37
:10467000DECF4091F3002091F200342F009719F023
:104680002830310558F041E02830310509F040E08C
:104690002091E8002E772093E800C9CF4191409304
:1046A000F10001972F5F3F4FE9CF8091DC02811528
:1046B00041F0853041F08091E80083FFBCCF81E07C
:1046C000089582E0089583E00895FC018091E3025B
:1046D0009091E4028617970720F06115710561F04B
:1046E000CB0140E0009771F441110CC08091E800CB
:1046F00082FF37C080E008958091E8008E77809334
:10470000E800EECF2091DC022115B9F12530B9F196
:104710002091E80023FD2FC02091E80022FDE6CF84
:104720002091E80020FFDECF4091F3002091F200BD
:10473000342F009719F02830310558F041E0283027
:10474000310509F040E02091E8002E772093E80041
:10475000C9CF44914093F100319601972F5F3F4FAD
:10476000E8CF8091DC02811541F0853041F08091E5
:10477000E80083FFBBCF81E0089582E0089583E0E5
:104780000895982F973028F08F708093E90081E08A
:1047900008959093E900242F762F50E0981731F078
:1047A0007091EC002091ED005091F00021FD02C0CD
:1047B0009F5FE8CF3091EB003E7F3093EB0030916C
:1047C000ED003D7F3093ED003091EB003160309390
:1047D000EB007093EC002093ED005093F0002091DB
:1047E000EE0027FDE5CF80E008958091DD0287FF90
:1047F00013C08091E80082FF06C08091E8008B77AB
:104800008093E80008958091DC028111F2CF089531
:104810008091DC028115D9F38091E80080FFF8CF08
:104820008091E8008E77ECCF2091E4003091E50094
:1048300095E6A9012091EC00822F817020FF06C02F
:104840008091E80080FF06C080E008952091E80094
:1048500022FD1AC08091DC02811589F0853089F033
:104860008091EB0085FD0FC02091E4003091E500C0
:1048700042175307F9F29150E1F684E0089582E07F
:10488000089583E0089581E008955FD066D0E0EE5A
:10489000F0E0808181608083E8ED80818F77808384
:1048A00019BCA7EDB0E08C918E7F8C9380818F7EB8
:1048B00080831092DB020895CF93DF9346D04DD0D2
:1048C000C8EDD0E088818F7788838881806888836D
:1048D00088818F7D888319BC1092DC021092D802E7
:1048E0001092DA021092D902E0EEF0E080818B7F24
:1048F000808388818160888342E060E080E041DFDE
:10490000E1EEF0E080818E7F8083E2EE8081816045
:104910008083808188608083E0EE80818E7F8083C9
:10492000888180618883DF91CF910895E8EDF0E080
:1049300080818F7E8083E7ED80818160808384E049
:1049400082BF81E08093DB02B7CFE8EDF0E08081A9
:104950008E7F80831092E20008951092DA00109208
:10496000E10008951F920F920FB60F9211242F931A
:104970003F934F935F936F937F938F939F93AF93E7
:10498000BF93EF93FF938091E10082FF0AC0809173
:10499000E20082FF06C08091E1008B7F8093E100FE
:1049A00028D28091DA0080FF18C08091D80080FF63
:1049B00014C08091DA008E7F8093DA008091D90054
:1049C00080FF8FC080E189BD82E189BD09B400FE0E
:1049D000FDCF81E08093DC02EDDB8091E10080FF80
:1049E00018C08091E20080FF14C08091E2008E7FA9
:1049F0008093E2008091E20080618093E2008091E8
:104A0000D80080628093D80019BC85E08093DC02D6
:104A1000E3DB8091E10084FF28C08091E20084FF05
:104A200024C080E189BD82E189BD09B400FEFDCFCB
:104A30008091D8008F7D8093D8008091E1008F7E97
:104A40008093E1008091E2008F7E8093E20080916C
:104A5000E20081608093E2008091D802811509F420
:104A600045C084E08093DC02BEDB8091E10083FFDF
:104A700027C08091E20083FF23C08091E100877FFF
:104A80008093E10082E08093DC021092D802809152
:104A9000E1008E7F8093E1008091E2008E7F809321
:104AA000E2008091E20080618093E20042E060E0F9
:104AB00080E067DE8091F00088608093F00089DB01
:104AC000FF91EF91BF91AF919F918F917F916F91E6
:104AD0005F914F913F912F910F900FBE0F901F90BC
:104AE000189519BC1092DC0271DB77CF8091E3003E
:104AF00087FF02C083E0B6CF81E0B4CF1F920F9250
:104B00000FB60F9211241F932F933F934F935F93F0
:104B10006F937F938F939F93AF93BF93CF93DF93C5
:104B2000EF93FF93E9EEF0E080811091EC008F703D
:104B300010FB112717F9182B1082C0EFD0E08881E5
:104B4000877F888378941CD0E9EEF0E0108288811A
:104B5000886088831F701083FF91EF91DF91CF9160
:104B6000BF91AF919F918F917F916F915F914F9185
:104B70003F912F911F910F900FBE0F901F9018958E
:104B8000AAE2B0E0E5ECF5E27DC18DED92E0FC013A
:104B900001962091F100208322E0853E9207B9F72B
:104BA00044DB8091E80083FF37C08091DD02909163
:104BB000DE029A3088F5E92FF0E0E35AF74D46C15E
:104BC000803889F0823841F58091E1028F7087301A
:104BD00018F58093E9008091EB0085FB882780F928
:104BE0001092E90006C08091DA02880F9091D902F4
:104BF000892B9091E800977F9093E8008093F100D3
:104C00001092F1008091E8008E7722C0811115C0CA
:104C10008091DF02813001F18091E80083FF0AC0BA
:104C20008091E800877F8093E8008091EB008062AC
:104C30008093EB00AA96E3E041C1823069F780914E
:104C4000DF02811579F01092E9008091E800877FFA
:104C50008093E800CADDE0CF933009F080E08093D4
:104C6000DA02F1CF8091E1028F70282F2150263097
:104C700098F68093E9002091EB0020FFE4CF933079
:104C800031F48091EB0080628093EB00DCCF909157
:104C9000EB0090619093EB0021E001C0220F8A9518
:104CA000EAF72093EA001092EA008091EB00886016
:104CB000EBCF8111B1CF8091DF028F77182F8091D8
:104CC000E3008078812B8093E3008091E800877F68
:104CD0008093E8008ADD8091E80080FFFCCF80911E
:104CE000E30080688093E30083E0111101C082E05B
:104CF0008093DC0291CF8058823008F08DCF809174
:104D0000DF029091E0028C3D23E0920789F583E079
:104D10008A838AE289834FB7F894DE01139620E0F4
:104D20003EE051E2E32FF0E050935700849120FFE2
:104D300003C082958F703F5F8F708A30B8F0895CB6
:104D40008D931D922F5F243169F74FBF8091E8004A
:104D5000877F8093E8006AE270E0CE0101965ADC1A
:104D60008091E8008B778093E80056CF805DE8CF94
:104D70006091E1027091E2029E012F5F3F4FA90115
:104D80003EDBBC01892B09F447CF9091E800977F67
:104D90009093E80089819A8198DCE2CF803809F00D
:104DA0003BCF8091E800877F8093E8008091D80214
:104DB0008093F10027CF81112FCF9091DF029230A5
:104DC00008F02ACF8091E800877F8093E8009093D5
:104DD000D8020BDD8091D802811529F084E0809300
:104DE000DC020ADA19CF8091E30087FDF7CF81E07A
:104DF000F6CF0895CF938091DC02811591F08091D8
:104E0000E900C091EC008F70C0FBCC27C7F9C82B1C
:104E10001092E9008091E80083FDB2DECF70C0936C
:104E2000E900CF91089597FB072E16F4009406D061
:104E300077FD08D071D007FC05D03EF490958195A0
:104E40009F4F0895709561957F4F0895EE0FFF1F56
:104E50000590F491E02D0994692796276927782712
:104E60008727782708952F923F924F925F926F92F3
:104E70007F928F929F92AF92BF92CF92DF92EF92EA
:104E8000FF920F931F93CF93DF93CDB7DEB7CA1B6B
:104E9000DB0B0FB6F894DEBF0FBECDBF09942A8896
:104EA000398848885F846E847D848C849B84AA843E
:104EB000B984C884DF80EE80FD800C811B81AA81CB
:104EC000B981CE0FD11D0FB6F894DEBF0FBECDBF96
:104ED000ED010895002E083090F0982F872F762F3F
:104EE000652F542F432F322F22270850F4CF220F43
:104EF000331F441F551F661F771F881F991F0A9570
:104F0000B2F7002D08952A153B054C055D056E0589
:104F10007F05800791070895AA1BBB1B51E107C0BD
:104F2000AA1FBB1FA617B70710F0A61BB70B881F39
:104F3000991F5A95A9F780959095BC01CD010895C8
:104F4000911111C080538A50E0F70895FB01DC01F4
:104F500004C08D910190801921F441505040C8F750
:104F6000881B990B0895992788270895F999FECFF2
:104F700092BD81BDF89A992780B50895A8E1B0E067
:104F800042E050E02FC0DC01A40FB51F415050405B
:104F900040F0CB01840F951F2E9105D04150504019
:104FA000D8F70895262FF999FECF92BD81BDF89AC2
:104FB000019700B4021639F01FBA20BD0FB6F8945D
:104FC000FA9AF99A0FBE08950396272FECDFEADFCD
:104FD000252FE9DF242FE7CF0196272FE4DFE2CF4B
:104FE000DC01CB01FC01F999FECF06C0F2BDE1BDA9
:104FF000F89A319600B40D9241505040B8F7089598
:10500000F894FFCFF505F5052C062C0683069F06C0
:105010001D061D06A3060A0717071707A117101874
:10502000A91773177717AD177B17B117BD17871718
:1050300009188B17C1178F17C517EA179317C917C8
:10504000F1179917CF17D7177F17B5178317B91708
:105050009D17D317E117FA1707186D17A51717181B
:10506000B018B518B718BC18CC18CC18CC18CC1878
:10507000CC18CC18CC18CC18BE18C218C518CA1831
:10508000D918DF18E318F41BFA1BE51BEE1B001CF4
:10509000061C0C1CC51CD01CF71C071D131D1E1D57
:1050A000211D211D211DD81CD81C251D291D321D87
:1050B0003F1D4C1D4F1D521D5F1DE02506260C2671
:0E50C00006260C2659267B260C26CE26DB263D
:1050CE002902280850011E0A1401030201000001E2
:1050DE0000231F9C206720972092208A20E200E95F
:1050EE0000EA00B500B600B700CD008301CC008AFF
:1050FE000192019401210223022402250226022795
:10510E00022A02B300B4006F0070009F01CB019F12
:10511E0002A002E200E900EA00B500B600B700CD39
:10512E00008301CC008A0192019401210223022402
:10513E00022502260227022A02B300B4006F007075
:10514E00009F01CB019F02A002C630949697343582
:10515E0036666790919593F7F6F5F4F1F044227B5D
:0C516E00B60519053B05BE04D704F70484
:00000001FF
